{
	"Users/eggs/Desktop/SolidityBootcamp/04 - Solidity /VolcanoCoin.sol": {
		"VolcanoCoin": {
			"abi": [
				{
					"inputs": [],
					"stateMutability": "nonpayable",
					"type": "constructor"
				},
				{
					"anonymous": false,
					"inputs": [
						{
							"indexed": false,
							"internalType": "uint256",
							"name": "newTotalSupply",
							"type": "uint256"
						}
					],
					"name": "IncrementTotalSupply",
					"type": "event"
				},
				{
					"inputs": [
						{
							"internalType": "address",
							"name": "",
							"type": "address"
						}
					],
					"name": "balances",
					"outputs": [
						{
							"internalType": "uint256",
							"name": "",
							"type": "uint256"
						}
					],
					"stateMutability": "view",
					"type": "function"
				},
				{
					"inputs": [],
					"name": "getTotalSupply",
					"outputs": [
						{
							"internalType": "uint256",
							"name": "",
							"type": "uint256"
						}
					],
					"stateMutability": "view",
					"type": "function"
				},
				{
					"inputs": [
						{
							"internalType": "uint256",
							"name": "amnt",
							"type": "uint256"
						}
					],
					"name": "incrementTotalSupplyBy",
					"outputs": [
						{
							"internalType": "uint256",
							"name": "_totalSupply",
							"type": "uint256"
						}
					],
					"stateMutability": "nonpayable",
					"type": "function"
				},
				{
					"inputs": [],
					"name": "incrementTotalSupplyByThousand",
					"outputs": [],
					"stateMutability": "nonpayable",
					"type": "function"
				},
				{
					"inputs": [
						{
							"internalType": "uint256",
							"name": "amnt",
							"type": "uint256"
						},
						{
							"internalType": "address",
							"name": "recipient",
							"type": "address"
						}
					],
					"name": "transferAmountToAddress",
					"outputs": [],
					"stateMutability": "nonpayable",
					"type": "function"
				}
			],
			"devdoc": {
				"kind": "dev",
				"methods": {},
				"version": 1
			},
			"evm": {
				"assembly": "    /* \"Users/eggs/Desktop/SolidityBootcamp/04 - Solidity /VolcanoCoin.sol\":66:1680  contract VolcanoCoin {... */\n  mstore(0x40, 0xa0)\n    /* \"Users/eggs/Desktop/SolidityBootcamp/04 - Solidity /VolcanoCoin.sol\":146:151  10000 */\n  0x2710\n    /* \"Users/eggs/Desktop/SolidityBootcamp/04 - Solidity /VolcanoCoin.sol\":124:151  uint256 totalSupply = 10000 */\n  0x00\n  sstore\n    /* \"Users/eggs/Desktop/SolidityBootcamp/04 - Solidity /VolcanoCoin.sol\":531:730  constructor() {... */\n  callvalue\n  dup1\n  iszero\n  tag_1\n  jumpi\n  0x00\n  dup1\n  revert\ntag_1:\n  pop\n    /* \"Users/eggs/Desktop/SolidityBootcamp/04 - Solidity /VolcanoCoin.sol\":563:573  msg.sender */\n  caller\n    /* \"Users/eggs/Desktop/SolidityBootcamp/04 - Solidity /VolcanoCoin.sol\":555:573  owner = msg.sender */\n  0xffffffffffffffffffffffffffffffffffffffff\n  and\n  0x80\n  dup2\n  0xffffffffffffffffffffffffffffffffffffffff\n  and\n  dup2\n  mstore\n  pop\n  pop\n    /* \"Users/eggs/Desktop/SolidityBootcamp/04 - Solidity /VolcanoCoin.sol\":601:612  totalSupply */\n  sload(0x00)\n    /* \"Users/eggs/Desktop/SolidityBootcamp/04 - Solidity /VolcanoCoin.sol\":583:591  balances */\n  0x01\n    /* \"Users/eggs/Desktop/SolidityBootcamp/04 - Solidity /VolcanoCoin.sol\":583:598  balances[owner] */\n  0x00\n    /* \"Users/eggs/Desktop/SolidityBootcamp/04 - Solidity /VolcanoCoin.sol\":592:597  owner */\n  mload(0x80)\n    /* \"Users/eggs/Desktop/SolidityBootcamp/04 - Solidity /VolcanoCoin.sol\":583:598  balances[owner] */\n  0xffffffffffffffffffffffffffffffffffffffff\n  and\n  0xffffffffffffffffffffffffffffffffffffffff\n  and\n  dup2\n  mstore\n  0x20\n  add\n  swap1\n  dup2\n  mstore\n  0x20\n  add\n  0x00\n  keccak256\n    /* \"Users/eggs/Desktop/SolidityBootcamp/04 - Solidity /VolcanoCoin.sol\":583:612  balances[owner] = totalSupply */\n  dup2\n  swap1\n  sstore\n  pop\n    /* \"Users/eggs/Desktop/SolidityBootcamp/04 - Solidity /VolcanoCoin.sol\":66:1680  contract VolcanoCoin {... */\n  mload(0x80)\n  codecopy(0x00, dataOffset(sub_0), dataSize(sub_0))\n  0x00\n  assignImmutable(\"0x2a80e1ef1d7842f27f2e6be0972bb708b9a135c38860dbe73c27c3486c34f4de\")\n  return(0x00, dataSize(sub_0))\nstop\n\nsub_0: assembly {\n        /* \"Users/eggs/Desktop/SolidityBootcamp/04 - Solidity /VolcanoCoin.sol\":66:1680  contract VolcanoCoin {... */\n      mstore(0x40, 0x80)\n      callvalue\n      dup1\n      iszero\n      tag_1\n      jumpi\n      0x00\n      dup1\n      revert\n    tag_1:\n      pop\n      jumpi(tag_2, lt(calldatasize, 0x04))\n      shr(0xe0, calldataload(0x00))\n      dup1\n      0x27e235e3\n      eq\n      tag_3\n      jumpi\n      dup1\n      0x4e7531af\n      eq\n      tag_4\n      jumpi\n      dup1\n      0xc4e41b22\n      eq\n      tag_5\n      jumpi\n      dup1\n      0xe8346aad\n      eq\n      tag_6\n      jumpi\n      dup1\n      0xeb912a41\n      eq\n      tag_7\n      jumpi\n    tag_2:\n      0x00\n      dup1\n      revert\n        /* \"Users/eggs/Desktop/SolidityBootcamp/04 - Solidity /VolcanoCoin.sol\":323:366  mapping(address => uint256) public balances */\n    tag_3:\n      tag_8\n      0x04\n      dup1\n      calldatasize\n      sub\n      dup2\n      add\n      swap1\n      tag_9\n      swap2\n      swap1\n      tag_10\n      jump\t// in\n    tag_9:\n      tag_11\n      jump\t// in\n    tag_8:\n      mload(0x40)\n      tag_12\n      swap2\n      swap1\n      tag_13\n      jump\t// in\n    tag_12:\n      mload(0x40)\n      dup1\n      swap2\n      sub\n      swap1\n      return\n        /* \"Users/eggs/Desktop/SolidityBootcamp/04 - Solidity /VolcanoCoin.sol\":1326:1430  function incrementTotalSupplyByThousand() public onlyOwner {... */\n    tag_4:\n      tag_14\n      tag_15\n      jump\t// in\n    tag_14:\n      stop\n        /* \"Users/eggs/Desktop/SolidityBootcamp/04 - Solidity /VolcanoCoin.sol\":738:828  function getTotalSupply() public view returns (uint256){... */\n    tag_5:\n      tag_16\n      tag_17\n      jump\t// in\n    tag_16:\n      mload(0x40)\n      tag_18\n      swap2\n      swap1\n      tag_13\n      jump\t// in\n    tag_18:\n      mload(0x40)\n      dup1\n      swap2\n      sub\n      swap1\n      return\n        /* \"Users/eggs/Desktop/SolidityBootcamp/04 - Solidity /VolcanoCoin.sol\":1437:1670  function transferAmountToAddress(uint256 amnt, address recipient) public {... */\n    tag_6:\n      tag_19\n      0x04\n      dup1\n      calldatasize\n      sub\n      dup2\n      add\n      swap1\n      tag_20\n      swap2\n      swap1\n      tag_21\n      jump\t// in\n    tag_20:\n      tag_22\n      jump\t// in\n    tag_19:\n      stop\n        /* \"Users/eggs/Desktop/SolidityBootcamp/04 - Solidity /VolcanoCoin.sol\":954:1320  function incrementTotalSupplyBy(uint256 amnt) public onlyOwner returns (uint256 _totalSupply) {... */\n    tag_7:\n      tag_23\n      0x04\n      dup1\n      calldatasize\n      sub\n      dup2\n      add\n      swap1\n      tag_24\n      swap2\n      swap1\n      tag_25\n      jump\t// in\n    tag_24:\n      tag_26\n      jump\t// in\n    tag_23:\n      mload(0x40)\n      tag_27\n      swap2\n      swap1\n      tag_13\n      jump\t// in\n    tag_27:\n      mload(0x40)\n      dup1\n      swap2\n      sub\n      swap1\n      return\n        /* \"Users/eggs/Desktop/SolidityBootcamp/04 - Solidity /VolcanoCoin.sol\":323:366  mapping(address => uint256) public balances */\n    tag_11:\n      mstore(0x20, 0x01)\n      dup1\n      0x00\n      mstore\n      keccak256(0x00, 0x40)\n      0x00\n      swap2\n      pop\n      swap1\n      pop\n      sload\n      dup2\n      jump\t// out\n        /* \"Users/eggs/Desktop/SolidityBootcamp/04 - Solidity /VolcanoCoin.sol\":1326:1430  function incrementTotalSupplyByThousand() public onlyOwner {... */\n    tag_15:\n        /* \"Users/eggs/Desktop/SolidityBootcamp/04 - Solidity /VolcanoCoin.sol\":485:490  owner */\n      immutable(\"0x2a80e1ef1d7842f27f2e6be0972bb708b9a135c38860dbe73c27c3486c34f4de\")\n        /* \"Users/eggs/Desktop/SolidityBootcamp/04 - Solidity /VolcanoCoin.sol\":471:490  msg.sender == owner */\n      0xffffffffffffffffffffffffffffffffffffffff\n      and\n        /* \"Users/eggs/Desktop/SolidityBootcamp/04 - Solidity /VolcanoCoin.sol\":471:481  msg.sender */\n      caller\n        /* \"Users/eggs/Desktop/SolidityBootcamp/04 - Solidity /VolcanoCoin.sol\":471:490  msg.sender == owner */\n      0xffffffffffffffffffffffffffffffffffffffff\n      and\n      sub\n        /* \"Users/eggs/Desktop/SolidityBootcamp/04 - Solidity /VolcanoCoin.sol\":467:518  if (msg.sender == owner) {... */\n      tag_29\n      jumpi\n        /* \"Users/eggs/Desktop/SolidityBootcamp/04 - Solidity /VolcanoCoin.sol\":1395:1423  incrementTotalSupplyBy(1000) */\n      tag_31\n        /* \"Users/eggs/Desktop/SolidityBootcamp/04 - Solidity /VolcanoCoin.sol\":1418:1422  1000 */\n      0x03e8\n        /* \"Users/eggs/Desktop/SolidityBootcamp/04 - Solidity /VolcanoCoin.sol\":1395:1417  incrementTotalSupplyBy */\n      tag_26\n        /* \"Users/eggs/Desktop/SolidityBootcamp/04 - Solidity /VolcanoCoin.sol\":1395:1423  incrementTotalSupplyBy(1000) */\n      jump\t// in\n    tag_31:\n      pop\n        /* \"Users/eggs/Desktop/SolidityBootcamp/04 - Solidity /VolcanoCoin.sol\":467:518  if (msg.sender == owner) {... */\n    tag_29:\n        /* \"Users/eggs/Desktop/SolidityBootcamp/04 - Solidity /VolcanoCoin.sol\":1326:1430  function incrementTotalSupplyByThousand() public onlyOwner {... */\n      jump\t// out\n        /* \"Users/eggs/Desktop/SolidityBootcamp/04 - Solidity /VolcanoCoin.sol\":738:828  function getTotalSupply() public view returns (uint256){... */\n    tag_17:\n        /* \"Users/eggs/Desktop/SolidityBootcamp/04 - Solidity /VolcanoCoin.sol\":785:792  uint256 */\n      0x00\n        /* \"Users/eggs/Desktop/SolidityBootcamp/04 - Solidity /VolcanoCoin.sol\":810:821  totalSupply */\n      dup1\n      sload\n        /* \"Users/eggs/Desktop/SolidityBootcamp/04 - Solidity /VolcanoCoin.sol\":803:821  return totalSupply */\n      swap1\n      pop\n        /* \"Users/eggs/Desktop/SolidityBootcamp/04 - Solidity /VolcanoCoin.sol\":738:828  function getTotalSupply() public view returns (uint256){... */\n      swap1\n      jump\t// out\n        /* \"Users/eggs/Desktop/SolidityBootcamp/04 - Solidity /VolcanoCoin.sol\":1437:1670  function transferAmountToAddress(uint256 amnt, address recipient) public {... */\n    tag_22:\n        /* \"Users/eggs/Desktop/SolidityBootcamp/04 - Solidity /VolcanoCoin.sol\":1548:1552  amnt */\n      dup2\n        /* \"Users/eggs/Desktop/SolidityBootcamp/04 - Solidity /VolcanoCoin.sol\":1525:1533  balances */\n      0x01\n        /* \"Users/eggs/Desktop/SolidityBootcamp/04 - Solidity /VolcanoCoin.sol\":1525:1545  balances[msg.sender] */\n      0x00\n        /* \"Users/eggs/Desktop/SolidityBootcamp/04 - Solidity /VolcanoCoin.sol\":1534:1544  msg.sender */\n      caller\n        /* \"Users/eggs/Desktop/SolidityBootcamp/04 - Solidity /VolcanoCoin.sol\":1525:1545  balances[msg.sender] */\n      0xffffffffffffffffffffffffffffffffffffffff\n      and\n      0xffffffffffffffffffffffffffffffffffffffff\n      and\n      dup2\n      mstore\n      0x20\n      add\n      swap1\n      dup2\n      mstore\n      0x20\n      add\n      0x00\n      keccak256\n      sload\n        /* \"Users/eggs/Desktop/SolidityBootcamp/04 - Solidity /VolcanoCoin.sol\":1525:1552  balances[msg.sender] > amnt */\n      gt\n        /* \"Users/eggs/Desktop/SolidityBootcamp/04 - Solidity /VolcanoCoin.sol\":1521:1664  if (balances[msg.sender] > amnt) {... */\n      iszero\n      tag_34\n      jumpi\n        /* \"Users/eggs/Desktop/SolidityBootcamp/04 - Solidity /VolcanoCoin.sol\":1592:1596  amnt */\n      dup2\n        /* \"Users/eggs/Desktop/SolidityBootcamp/04 - Solidity /VolcanoCoin.sol\":1568:1576  balances */\n      0x01\n        /* \"Users/eggs/Desktop/SolidityBootcamp/04 - Solidity /VolcanoCoin.sol\":1568:1588  balances[msg.sender] */\n      0x00\n        /* \"Users/eggs/Desktop/SolidityBootcamp/04 - Solidity /VolcanoCoin.sol\":1577:1587  msg.sender */\n      caller\n        /* \"Users/eggs/Desktop/SolidityBootcamp/04 - Solidity /VolcanoCoin.sol\":1568:1588  balances[msg.sender] */\n      0xffffffffffffffffffffffffffffffffffffffff\n      and\n      0xffffffffffffffffffffffffffffffffffffffff\n      and\n      dup2\n      mstore\n      0x20\n      add\n      swap1\n      dup2\n      mstore\n      0x20\n      add\n      0x00\n      keccak256\n      0x00\n        /* \"Users/eggs/Desktop/SolidityBootcamp/04 - Solidity /VolcanoCoin.sol\":1568:1596  balances[msg.sender] -= amnt */\n      dup3\n      dup3\n      sload\n      tag_35\n      swap2\n      swap1\n      tag_36\n      jump\t// in\n    tag_35:\n      swap3\n      pop\n      pop\n      dup2\n      swap1\n      sstore\n      pop\n        /* \"Users/eggs/Desktop/SolidityBootcamp/04 - Solidity /VolcanoCoin.sol\":1521:1664  if (balances[msg.sender] > amnt) {... */\n      jump(tag_37)\n    tag_34:\n    tag_37:\n        /* \"Users/eggs/Desktop/SolidityBootcamp/04 - Solidity /VolcanoCoin.sol\":1437:1670  function transferAmountToAddress(uint256 amnt, address recipient) public {... */\n      pop\n      pop\n      jump\t// out\n        /* \"Users/eggs/Desktop/SolidityBootcamp/04 - Solidity /VolcanoCoin.sol\":954:1320  function incrementTotalSupplyBy(uint256 amnt) public onlyOwner returns (uint256 _totalSupply) {... */\n    tag_26:\n        /* \"Users/eggs/Desktop/SolidityBootcamp/04 - Solidity /VolcanoCoin.sol\":1026:1046  uint256 _totalSupply */\n      0x00\n        /* \"Users/eggs/Desktop/SolidityBootcamp/04 - Solidity /VolcanoCoin.sol\":485:490  owner */\n      immutable(\"0x2a80e1ef1d7842f27f2e6be0972bb708b9a135c38860dbe73c27c3486c34f4de\")\n        /* \"Users/eggs/Desktop/SolidityBootcamp/04 - Solidity /VolcanoCoin.sol\":471:490  msg.sender == owner */\n      0xffffffffffffffffffffffffffffffffffffffff\n      and\n        /* \"Users/eggs/Desktop/SolidityBootcamp/04 - Solidity /VolcanoCoin.sol\":471:481  msg.sender */\n      caller\n        /* \"Users/eggs/Desktop/SolidityBootcamp/04 - Solidity /VolcanoCoin.sol\":471:490  msg.sender == owner */\n      0xffffffffffffffffffffffffffffffffffffffff\n      and\n      sub\n        /* \"Users/eggs/Desktop/SolidityBootcamp/04 - Solidity /VolcanoCoin.sol\":467:518  if (msg.sender == owner) {... */\n      tag_39\n      jumpi\n        /* \"Users/eggs/Desktop/SolidityBootcamp/04 - Solidity /VolcanoCoin.sol\":1058:1075  uint256 newSupply */\n      0x00\n        /* \"Users/eggs/Desktop/SolidityBootcamp/04 - Solidity /VolcanoCoin.sol\":1092:1096  amnt */\n      dup3\n        /* \"Users/eggs/Desktop/SolidityBootcamp/04 - Solidity /VolcanoCoin.sol\":1078:1089  totalSupply */\n      sload(0x00)\n        /* \"Users/eggs/Desktop/SolidityBootcamp/04 - Solidity /VolcanoCoin.sol\":1078:1096  totalSupply + amnt */\n      tag_41\n      swap2\n      swap1\n      tag_42\n      jump\t// in\n    tag_41:\n        /* \"Users/eggs/Desktop/SolidityBootcamp/04 - Solidity /VolcanoCoin.sol\":1058:1096  uint256 newSupply = totalSupply + amnt */\n      swap1\n      pop\n        /* \"Users/eggs/Desktop/SolidityBootcamp/04 - Solidity /VolcanoCoin.sol\":1120:1129  newSupply */\n      dup1\n        /* \"Users/eggs/Desktop/SolidityBootcamp/04 - Solidity /VolcanoCoin.sol\":1106:1117  totalSupply */\n      0x00\n        /* \"Users/eggs/Desktop/SolidityBootcamp/04 - Solidity /VolcanoCoin.sol\":1106:1129  totalSupply = newSupply */\n      dup2\n      swap1\n      sstore\n      pop\n        /* \"Users/eggs/Desktop/SolidityBootcamp/04 - Solidity /VolcanoCoin.sol\":1167:1171  amnt */\n      dup3\n        /* \"Users/eggs/Desktop/SolidityBootcamp/04 - Solidity /VolcanoCoin.sol\":1148:1156  balances */\n      0x01\n        /* \"Users/eggs/Desktop/SolidityBootcamp/04 - Solidity /VolcanoCoin.sol\":1148:1163  balances[owner] */\n      0x00\n        /* \"Users/eggs/Desktop/SolidityBootcamp/04 - Solidity /VolcanoCoin.sol\":1157:1162  owner */\n      immutable(\"0x2a80e1ef1d7842f27f2e6be0972bb708b9a135c38860dbe73c27c3486c34f4de\")\n        /* \"Users/eggs/Desktop/SolidityBootcamp/04 - Solidity /VolcanoCoin.sol\":1148:1163  balances[owner] */\n      0xffffffffffffffffffffffffffffffffffffffff\n      and\n      0xffffffffffffffffffffffffffffffffffffffff\n      and\n      dup2\n      mstore\n      0x20\n      add\n      swap1\n      dup2\n      mstore\n      0x20\n      add\n      0x00\n      keccak256\n      0x00\n        /* \"Users/eggs/Desktop/SolidityBootcamp/04 - Solidity /VolcanoCoin.sol\":1148:1171  balances[owner] += amnt */\n      dup3\n      dup3\n      sload\n      tag_43\n      swap2\n      swap1\n      tag_42\n      jump\t// in\n    tag_43:\n      swap3\n      pop\n      pop\n      dup2\n      swap1\n      sstore\n      pop\n        /* \"Users/eggs/Desktop/SolidityBootcamp/04 - Solidity /VolcanoCoin.sol\":1256:1287  IncrementTotalSupply(newSupply) */\n      0x4b4cf0ee53bd94681ff4f0a7493774a4079a4dc2a80a6ed73b4788381fdb2473\n        /* \"Users/eggs/Desktop/SolidityBootcamp/04 - Solidity /VolcanoCoin.sol\":1277:1286  newSupply */\n      dup2\n        /* \"Users/eggs/Desktop/SolidityBootcamp/04 - Solidity /VolcanoCoin.sol\":1256:1287  IncrementTotalSupply(newSupply) */\n      mload(0x40)\n      tag_44\n      swap2\n      swap1\n      tag_13\n      jump\t// in\n    tag_44:\n      mload(0x40)\n      dup1\n      swap2\n      sub\n      swap1\n      log1\n        /* \"Users/eggs/Desktop/SolidityBootcamp/04 - Solidity /VolcanoCoin.sol\":1304:1313  newSupply */\n      dup1\n        /* \"Users/eggs/Desktop/SolidityBootcamp/04 - Solidity /VolcanoCoin.sol\":1297:1313  return newSupply */\n      swap2\n      pop\n      pop\n        /* \"Users/eggs/Desktop/SolidityBootcamp/04 - Solidity /VolcanoCoin.sol\":467:518  if (msg.sender == owner) {... */\n    tag_39:\n        /* \"Users/eggs/Desktop/SolidityBootcamp/04 - Solidity /VolcanoCoin.sol\":954:1320  function incrementTotalSupplyBy(uint256 amnt) public onlyOwner returns (uint256 _totalSupply) {... */\n      swap2\n      swap1\n      pop\n      jump\t// out\n        /* \"#utility.yul\":88:205   */\n    tag_46:\n        /* \"#utility.yul\":197:198   */\n      0x00\n        /* \"#utility.yul\":194:195   */\n      dup1\n        /* \"#utility.yul\":187:199   */\n      revert\n        /* \"#utility.yul\":334:460   */\n    tag_48:\n        /* \"#utility.yul\":371:378   */\n      0x00\n        /* \"#utility.yul\":411:453   */\n      0xffffffffffffffffffffffffffffffffffffffff\n        /* \"#utility.yul\":404:409   */\n      dup3\n        /* \"#utility.yul\":400:454   */\n      and\n        /* \"#utility.yul\":389:454   */\n      swap1\n      pop\n        /* \"#utility.yul\":334:460   */\n      swap2\n      swap1\n      pop\n      jump\t// out\n        /* \"#utility.yul\":466:562   */\n    tag_49:\n        /* \"#utility.yul\":503:510   */\n      0x00\n        /* \"#utility.yul\":532:556   */\n      tag_63\n        /* \"#utility.yul\":550:555   */\n      dup3\n        /* \"#utility.yul\":532:556   */\n      tag_48\n      jump\t// in\n    tag_63:\n        /* \"#utility.yul\":521:556   */\n      swap1\n      pop\n        /* \"#utility.yul\":466:562   */\n      swap2\n      swap1\n      pop\n      jump\t// out\n        /* \"#utility.yul\":568:690   */\n    tag_50:\n        /* \"#utility.yul\":641:665   */\n      tag_65\n        /* \"#utility.yul\":659:664   */\n      dup2\n        /* \"#utility.yul\":641:665   */\n      tag_49\n      jump\t// in\n    tag_65:\n        /* \"#utility.yul\":634:639   */\n      dup2\n        /* \"#utility.yul\":631:666   */\n      eq\n        /* \"#utility.yul\":621:684   */\n      tag_66\n      jumpi\n        /* \"#utility.yul\":680:681   */\n      0x00\n        /* \"#utility.yul\":677:678   */\n      dup1\n        /* \"#utility.yul\":670:682   */\n      revert\n        /* \"#utility.yul\":621:684   */\n    tag_66:\n        /* \"#utility.yul\":568:690   */\n      pop\n      jump\t// out\n        /* \"#utility.yul\":696:835   */\n    tag_51:\n        /* \"#utility.yul\":742:747   */\n      0x00\n        /* \"#utility.yul\":780:786   */\n      dup2\n        /* \"#utility.yul\":767:787   */\n      calldataload\n        /* \"#utility.yul\":758:787   */\n      swap1\n      pop\n        /* \"#utility.yul\":796:829   */\n      tag_68\n        /* \"#utility.yul\":823:828   */\n      dup2\n        /* \"#utility.yul\":796:829   */\n      tag_50\n      jump\t// in\n    tag_68:\n        /* \"#utility.yul\":696:835   */\n      swap3\n      swap2\n      pop\n      pop\n      jump\t// out\n        /* \"#utility.yul\":841:1170   */\n    tag_10:\n        /* \"#utility.yul\":900:906   */\n      0x00\n        /* \"#utility.yul\":949:951   */\n      0x20\n        /* \"#utility.yul\":937:946   */\n      dup3\n        /* \"#utility.yul\":928:935   */\n      dup5\n        /* \"#utility.yul\":924:947   */\n      sub\n        /* \"#utility.yul\":920:952   */\n      slt\n        /* \"#utility.yul\":917:1036   */\n      iszero\n      tag_70\n      jumpi\n        /* \"#utility.yul\":955:1034   */\n      tag_71\n      tag_46\n      jump\t// in\n    tag_71:\n        /* \"#utility.yul\":917:1036   */\n    tag_70:\n        /* \"#utility.yul\":1075:1076   */\n      0x00\n        /* \"#utility.yul\":1100:1153   */\n      tag_72\n        /* \"#utility.yul\":1145:1152   */\n      dup5\n        /* \"#utility.yul\":1136:1142   */\n      dup3\n        /* \"#utility.yul\":1125:1134   */\n      dup6\n        /* \"#utility.yul\":1121:1143   */\n      add\n        /* \"#utility.yul\":1100:1153   */\n      tag_51\n      jump\t// in\n    tag_72:\n        /* \"#utility.yul\":1090:1153   */\n      swap2\n      pop\n        /* \"#utility.yul\":1046:1163   */\n      pop\n        /* \"#utility.yul\":841:1170   */\n      swap3\n      swap2\n      pop\n      pop\n      jump\t// out\n        /* \"#utility.yul\":1176:1253   */\n    tag_52:\n        /* \"#utility.yul\":1213:1220   */\n      0x00\n        /* \"#utility.yul\":1242:1247   */\n      dup2\n        /* \"#utility.yul\":1231:1247   */\n      swap1\n      pop\n        /* \"#utility.yul\":1176:1253   */\n      swap2\n      swap1\n      pop\n      jump\t// out\n        /* \"#utility.yul\":1259:1377   */\n    tag_53:\n        /* \"#utility.yul\":1346:1370   */\n      tag_75\n        /* \"#utility.yul\":1364:1369   */\n      dup2\n        /* \"#utility.yul\":1346:1370   */\n      tag_52\n      jump\t// in\n    tag_75:\n        /* \"#utility.yul\":1341:1344   */\n      dup3\n        /* \"#utility.yul\":1334:1371   */\n      mstore\n        /* \"#utility.yul\":1259:1377   */\n      pop\n      pop\n      jump\t// out\n        /* \"#utility.yul\":1383:1605   */\n    tag_13:\n        /* \"#utility.yul\":1476:1480   */\n      0x00\n        /* \"#utility.yul\":1514:1516   */\n      0x20\n        /* \"#utility.yul\":1503:1512   */\n      dup3\n        /* \"#utility.yul\":1499:1517   */\n      add\n        /* \"#utility.yul\":1491:1517   */\n      swap1\n      pop\n        /* \"#utility.yul\":1527:1598   */\n      tag_77\n        /* \"#utility.yul\":1595:1596   */\n      0x00\n        /* \"#utility.yul\":1584:1593   */\n      dup4\n        /* \"#utility.yul\":1580:1597   */\n      add\n        /* \"#utility.yul\":1571:1577   */\n      dup5\n        /* \"#utility.yul\":1527:1598   */\n      tag_53\n      jump\t// in\n    tag_77:\n        /* \"#utility.yul\":1383:1605   */\n      swap3\n      swap2\n      pop\n      pop\n      jump\t// out\n        /* \"#utility.yul\":1611:1733   */\n    tag_54:\n        /* \"#utility.yul\":1684:1708   */\n      tag_79\n        /* \"#utility.yul\":1702:1707   */\n      dup2\n        /* \"#utility.yul\":1684:1708   */\n      tag_52\n      jump\t// in\n    tag_79:\n        /* \"#utility.yul\":1677:1682   */\n      dup2\n        /* \"#utility.yul\":1674:1709   */\n      eq\n        /* \"#utility.yul\":1664:1727   */\n      tag_80\n      jumpi\n        /* \"#utility.yul\":1723:1724   */\n      0x00\n        /* \"#utility.yul\":1720:1721   */\n      dup1\n        /* \"#utility.yul\":1713:1725   */\n      revert\n        /* \"#utility.yul\":1664:1727   */\n    tag_80:\n        /* \"#utility.yul\":1611:1733   */\n      pop\n      jump\t// out\n        /* \"#utility.yul\":1739:1878   */\n    tag_55:\n        /* \"#utility.yul\":1785:1790   */\n      0x00\n        /* \"#utility.yul\":1823:1829   */\n      dup2\n        /* \"#utility.yul\":1810:1830   */\n      calldataload\n        /* \"#utility.yul\":1801:1830   */\n      swap1\n      pop\n        /* \"#utility.yul\":1839:1872   */\n      tag_82\n        /* \"#utility.yul\":1866:1871   */\n      dup2\n        /* \"#utility.yul\":1839:1872   */\n      tag_54\n      jump\t// in\n    tag_82:\n        /* \"#utility.yul\":1739:1878   */\n      swap3\n      swap2\n      pop\n      pop\n      jump\t// out\n        /* \"#utility.yul\":1884:2358   */\n    tag_21:\n        /* \"#utility.yul\":1952:1958   */\n      0x00\n        /* \"#utility.yul\":1960:1966   */\n      dup1\n        /* \"#utility.yul\":2009:2011   */\n      0x40\n        /* \"#utility.yul\":1997:2006   */\n      dup4\n        /* \"#utility.yul\":1988:1995   */\n      dup6\n        /* \"#utility.yul\":1984:2007   */\n      sub\n        /* \"#utility.yul\":1980:2012   */\n      slt\n        /* \"#utility.yul\":1977:2096   */\n      iszero\n      tag_84\n      jumpi\n        /* \"#utility.yul\":2015:2094   */\n      tag_85\n      tag_46\n      jump\t// in\n    tag_85:\n        /* \"#utility.yul\":1977:2096   */\n    tag_84:\n        /* \"#utility.yul\":2135:2136   */\n      0x00\n        /* \"#utility.yul\":2160:2213   */\n      tag_86\n        /* \"#utility.yul\":2205:2212   */\n      dup6\n        /* \"#utility.yul\":2196:2202   */\n      dup3\n        /* \"#utility.yul\":2185:2194   */\n      dup7\n        /* \"#utility.yul\":2181:2203   */\n      add\n        /* \"#utility.yul\":2160:2213   */\n      tag_55\n      jump\t// in\n    tag_86:\n        /* \"#utility.yul\":2150:2213   */\n      swap3\n      pop\n        /* \"#utility.yul\":2106:2223   */\n      pop\n        /* \"#utility.yul\":2262:2264   */\n      0x20\n        /* \"#utility.yul\":2288:2341   */\n      tag_87\n        /* \"#utility.yul\":2333:2340   */\n      dup6\n        /* \"#utility.yul\":2324:2330   */\n      dup3\n        /* \"#utility.yul\":2313:2322   */\n      dup7\n        /* \"#utility.yul\":2309:2331   */\n      add\n        /* \"#utility.yul\":2288:2341   */\n      tag_51\n      jump\t// in\n    tag_87:\n        /* \"#utility.yul\":2278:2341   */\n      swap2\n      pop\n        /* \"#utility.yul\":2233:2351   */\n      pop\n        /* \"#utility.yul\":1884:2358   */\n      swap3\n      pop\n      swap3\n      swap1\n      pop\n      jump\t// out\n        /* \"#utility.yul\":2364:2693   */\n    tag_25:\n        /* \"#utility.yul\":2423:2429   */\n      0x00\n        /* \"#utility.yul\":2472:2474   */\n      0x20\n        /* \"#utility.yul\":2460:2469   */\n      dup3\n        /* \"#utility.yul\":2451:2458   */\n      dup5\n        /* \"#utility.yul\":2447:2470   */\n      sub\n        /* \"#utility.yul\":2443:2475   */\n      slt\n        /* \"#utility.yul\":2440:2559   */\n      iszero\n      tag_89\n      jumpi\n        /* \"#utility.yul\":2478:2557   */\n      tag_90\n      tag_46\n      jump\t// in\n    tag_90:\n        /* \"#utility.yul\":2440:2559   */\n    tag_89:\n        /* \"#utility.yul\":2598:2599   */\n      0x00\n        /* \"#utility.yul\":2623:2676   */\n      tag_91\n        /* \"#utility.yul\":2668:2675   */\n      dup5\n        /* \"#utility.yul\":2659:2665   */\n      dup3\n        /* \"#utility.yul\":2648:2657   */\n      dup6\n        /* \"#utility.yul\":2644:2666   */\n      add\n        /* \"#utility.yul\":2623:2676   */\n      tag_55\n      jump\t// in\n    tag_91:\n        /* \"#utility.yul\":2613:2676   */\n      swap2\n      pop\n        /* \"#utility.yul\":2569:2686   */\n      pop\n        /* \"#utility.yul\":2364:2693   */\n      swap3\n      swap2\n      pop\n      pop\n      jump\t// out\n        /* \"#utility.yul\":2699:2879   */\n    tag_56:\n        /* \"#utility.yul\":2747:2824   */\n      0x4e487b7100000000000000000000000000000000000000000000000000000000\n        /* \"#utility.yul\":2744:2745   */\n      0x00\n        /* \"#utility.yul\":2737:2825   */\n      mstore\n        /* \"#utility.yul\":2844:2848   */\n      0x11\n        /* \"#utility.yul\":2841:2842   */\n      0x04\n        /* \"#utility.yul\":2834:2849   */\n      mstore\n        /* \"#utility.yul\":2868:2872   */\n      0x24\n        /* \"#utility.yul\":2865:2866   */\n      0x00\n        /* \"#utility.yul\":2858:2873   */\n      revert\n        /* \"#utility.yul\":2885:3079   */\n    tag_36:\n        /* \"#utility.yul\":2925:2929   */\n      0x00\n        /* \"#utility.yul\":2945:2965   */\n      tag_94\n        /* \"#utility.yul\":2963:2964   */\n      dup3\n        /* \"#utility.yul\":2945:2965   */\n      tag_52\n      jump\t// in\n    tag_94:\n        /* \"#utility.yul\":2940:2965   */\n      swap2\n      pop\n        /* \"#utility.yul\":2979:2999   */\n      tag_95\n        /* \"#utility.yul\":2997:2998   */\n      dup4\n        /* \"#utility.yul\":2979:2999   */\n      tag_52\n      jump\t// in\n    tag_95:\n        /* \"#utility.yul\":2974:2999   */\n      swap3\n      pop\n        /* \"#utility.yul\":3023:3024   */\n      dup3\n        /* \"#utility.yul\":3020:3021   */\n      dup3\n        /* \"#utility.yul\":3016:3025   */\n      sub\n        /* \"#utility.yul\":3008:3025   */\n      swap1\n      pop\n        /* \"#utility.yul\":3047:3048   */\n      dup2\n        /* \"#utility.yul\":3041:3045   */\n      dup2\n        /* \"#utility.yul\":3038:3049   */\n      gt\n        /* \"#utility.yul\":3035:3072   */\n      iszero\n      tag_96\n      jumpi\n        /* \"#utility.yul\":3052:3070   */\n      tag_97\n      tag_56\n      jump\t// in\n    tag_97:\n        /* \"#utility.yul\":3035:3072   */\n    tag_96:\n        /* \"#utility.yul\":2885:3079   */\n      swap3\n      swap2\n      pop\n      pop\n      jump\t// out\n        /* \"#utility.yul\":3085:3276   */\n    tag_42:\n        /* \"#utility.yul\":3125:3128   */\n      0x00\n        /* \"#utility.yul\":3144:3164   */\n      tag_99\n        /* \"#utility.yul\":3162:3163   */\n      dup3\n        /* \"#utility.yul\":3144:3164   */\n      tag_52\n      jump\t// in\n    tag_99:\n        /* \"#utility.yul\":3139:3164   */\n      swap2\n      pop\n        /* \"#utility.yul\":3178:3198   */\n      tag_100\n        /* \"#utility.yul\":3196:3197   */\n      dup4\n        /* \"#utility.yul\":3178:3198   */\n      tag_52\n      jump\t// in\n    tag_100:\n        /* \"#utility.yul\":3173:3198   */\n      swap3\n      pop\n        /* \"#utility.yul\":3221:3222   */\n      dup3\n        /* \"#utility.yul\":3218:3219   */\n      dup3\n        /* \"#utility.yul\":3214:3223   */\n      add\n        /* \"#utility.yul\":3207:3223   */\n      swap1\n      pop\n        /* \"#utility.yul\":3242:3245   */\n      dup1\n        /* \"#utility.yul\":3239:3240   */\n      dup3\n        /* \"#utility.yul\":3236:3246   */\n      gt\n        /* \"#utility.yul\":3233:3269   */\n      iszero\n      tag_101\n      jumpi\n        /* \"#utility.yul\":3249:3267   */\n      tag_102\n      tag_56\n      jump\t// in\n    tag_102:\n        /* \"#utility.yul\":3233:3269   */\n    tag_101:\n        /* \"#utility.yul\":3085:3276   */\n      swap3\n      swap2\n      pop\n      pop\n      jump\t// out\n\n    auxdata: 0xa26469706673582212204358eefb3fa50662adb69e7ae2f99f5b75059551dc3f5bba60d8d612ff608b1d64736f6c63430008110033\n}\n",
				"bytecode": {
					"linkReferences": {},
					"object": "60a060405261271060005534801561001657600080fd5b503373ffffffffffffffffffffffffffffffffffffffff1660808173ffffffffffffffffffffffffffffffffffffffff16815250506000546001600060805173ffffffffffffffffffffffffffffffffffffffff1673ffffffffffffffffffffffffffffffffffffffff168152602001908152602001600020819055506080516105796100bc6000396000818161011a0152818161022e015261029f01526105796000f3fe608060405234801561001057600080fd5b50600436106100575760003560e01c806327e235e31461005c5780634e7531af1461008c578063c4e41b2214610096578063e8346aad146100b4578063eb912a41146100d0575b600080fd5b610076600480360381019061007191906103b2565b610100565b60405161008391906103f8565b60405180910390f35b610094610118565b005b61009e61017a565b6040516100ab91906103f8565b60405180910390f35b6100ce60048036038101906100c9919061043f565b610183565b005b6100ea60048036038101906100e5919061047f565b61022a565b6040516100f791906103f8565b60405180910390f35b60016020528060005260406000206000915090505481565b7f000000000000000000000000000000000000000000000000000000000000000073ffffffffffffffffffffffffffffffffffffffff163373ffffffffffffffffffffffffffffffffffffffff1603610178576101766103e861022a565b505b565b60008054905090565b81600160003373ffffffffffffffffffffffffffffffffffffffff1673ffffffffffffffffffffffffffffffffffffffff1681526020019081526020016000205411156102255781600160003373ffffffffffffffffffffffffffffffffffffffff1673ffffffffffffffffffffffffffffffffffffffff168152602001908152602001600020600082825461021991906104db565b92505081905550610226565b5b5050565b60007f000000000000000000000000000000000000000000000000000000000000000073ffffffffffffffffffffffffffffffffffffffff163373ffffffffffffffffffffffffffffffffffffffff160361034a5760008260005461028f919061050f565b90508060008190555082600160007f000000000000000000000000000000000000000000000000000000000000000073ffffffffffffffffffffffffffffffffffffffff1673ffffffffffffffffffffffffffffffffffffffff1681526020019081526020016000206000828254610307919061050f565b925050819055507f4b4cf0ee53bd94681ff4f0a7493774a4079a4dc2a80a6ed73b4788381fdb24738160405161033d91906103f8565b60405180910390a1809150505b919050565b600080fd5b600073ffffffffffffffffffffffffffffffffffffffff82169050919050565b600061037f82610354565b9050919050565b61038f81610374565b811461039a57600080fd5b50565b6000813590506103ac81610386565b92915050565b6000602082840312156103c8576103c761034f565b5b60006103d68482850161039d565b91505092915050565b6000819050919050565b6103f2816103df565b82525050565b600060208201905061040d60008301846103e9565b92915050565b61041c816103df565b811461042757600080fd5b50565b60008135905061043981610413565b92915050565b600080604083850312156104565761045561034f565b5b60006104648582860161042a565b92505060206104758582860161039d565b9150509250929050565b6000602082840312156104955761049461034f565b5b60006104a38482850161042a565b91505092915050565b7f4e487b7100000000000000000000000000000000000000000000000000000000600052601160045260246000fd5b60006104e6826103df565b91506104f1836103df565b9250828203905081811115610509576105086104ac565b5b92915050565b600061051a826103df565b9150610525836103df565b925082820190508082111561053d5761053c6104ac565b5b9291505056fea26469706673582212204358eefb3fa50662adb69e7ae2f99f5b75059551dc3f5bba60d8d612ff608b1d64736f6c63430008110033",
					"opcodes": "PUSH1 0xA0 PUSH1 0x40 MSTORE PUSH2 0x2710 PUSH1 0x0 SSTORE CALLVALUE DUP1 ISZERO PUSH2 0x16 JUMPI PUSH1 0x0 DUP1 REVERT JUMPDEST POP CALLER PUSH20 0xFFFFFFFFFFFFFFFFFFFFFFFFFFFFFFFFFFFFFFFF AND PUSH1 0x80 DUP2 PUSH20 0xFFFFFFFFFFFFFFFFFFFFFFFFFFFFFFFFFFFFFFFF AND DUP2 MSTORE POP POP PUSH1 0x0 SLOAD PUSH1 0x1 PUSH1 0x0 PUSH1 0x80 MLOAD PUSH20 0xFFFFFFFFFFFFFFFFFFFFFFFFFFFFFFFFFFFFFFFF AND PUSH20 0xFFFFFFFFFFFFFFFFFFFFFFFFFFFFFFFFFFFFFFFF AND DUP2 MSTORE PUSH1 0x20 ADD SWAP1 DUP2 MSTORE PUSH1 0x20 ADD PUSH1 0x0 KECCAK256 DUP2 SWAP1 SSTORE POP PUSH1 0x80 MLOAD PUSH2 0x579 PUSH2 0xBC PUSH1 0x0 CODECOPY PUSH1 0x0 DUP2 DUP2 PUSH2 0x11A ADD MSTORE DUP2 DUP2 PUSH2 0x22E ADD MSTORE PUSH2 0x29F ADD MSTORE PUSH2 0x579 PUSH1 0x0 RETURN INVALID PUSH1 0x80 PUSH1 0x40 MSTORE CALLVALUE DUP1 ISZERO PUSH2 0x10 JUMPI PUSH1 0x0 DUP1 REVERT JUMPDEST POP PUSH1 0x4 CALLDATASIZE LT PUSH2 0x57 JUMPI PUSH1 0x0 CALLDATALOAD PUSH1 0xE0 SHR DUP1 PUSH4 0x27E235E3 EQ PUSH2 0x5C JUMPI DUP1 PUSH4 0x4E7531AF EQ PUSH2 0x8C JUMPI DUP1 PUSH4 0xC4E41B22 EQ PUSH2 0x96 JUMPI DUP1 PUSH4 0xE8346AAD EQ PUSH2 0xB4 JUMPI DUP1 PUSH4 0xEB912A41 EQ PUSH2 0xD0 JUMPI JUMPDEST PUSH1 0x0 DUP1 REVERT JUMPDEST PUSH2 0x76 PUSH1 0x4 DUP1 CALLDATASIZE SUB DUP2 ADD SWAP1 PUSH2 0x71 SWAP2 SWAP1 PUSH2 0x3B2 JUMP JUMPDEST PUSH2 0x100 JUMP JUMPDEST PUSH1 0x40 MLOAD PUSH2 0x83 SWAP2 SWAP1 PUSH2 0x3F8 JUMP JUMPDEST PUSH1 0x40 MLOAD DUP1 SWAP2 SUB SWAP1 RETURN JUMPDEST PUSH2 0x94 PUSH2 0x118 JUMP JUMPDEST STOP JUMPDEST PUSH2 0x9E PUSH2 0x17A JUMP JUMPDEST PUSH1 0x40 MLOAD PUSH2 0xAB SWAP2 SWAP1 PUSH2 0x3F8 JUMP JUMPDEST PUSH1 0x40 MLOAD DUP1 SWAP2 SUB SWAP1 RETURN JUMPDEST PUSH2 0xCE PUSH1 0x4 DUP1 CALLDATASIZE SUB DUP2 ADD SWAP1 PUSH2 0xC9 SWAP2 SWAP1 PUSH2 0x43F JUMP JUMPDEST PUSH2 0x183 JUMP JUMPDEST STOP JUMPDEST PUSH2 0xEA PUSH1 0x4 DUP1 CALLDATASIZE SUB DUP2 ADD SWAP1 PUSH2 0xE5 SWAP2 SWAP1 PUSH2 0x47F JUMP JUMPDEST PUSH2 0x22A JUMP JUMPDEST PUSH1 0x40 MLOAD PUSH2 0xF7 SWAP2 SWAP1 PUSH2 0x3F8 JUMP JUMPDEST PUSH1 0x40 MLOAD DUP1 SWAP2 SUB SWAP1 RETURN JUMPDEST PUSH1 0x1 PUSH1 0x20 MSTORE DUP1 PUSH1 0x0 MSTORE PUSH1 0x40 PUSH1 0x0 KECCAK256 PUSH1 0x0 SWAP2 POP SWAP1 POP SLOAD DUP2 JUMP JUMPDEST PUSH32 0x0 PUSH20 0xFFFFFFFFFFFFFFFFFFFFFFFFFFFFFFFFFFFFFFFF AND CALLER PUSH20 0xFFFFFFFFFFFFFFFFFFFFFFFFFFFFFFFFFFFFFFFF AND SUB PUSH2 0x178 JUMPI PUSH2 0x176 PUSH2 0x3E8 PUSH2 0x22A JUMP JUMPDEST POP JUMPDEST JUMP JUMPDEST PUSH1 0x0 DUP1 SLOAD SWAP1 POP SWAP1 JUMP JUMPDEST DUP2 PUSH1 0x1 PUSH1 0x0 CALLER PUSH20 0xFFFFFFFFFFFFFFFFFFFFFFFFFFFFFFFFFFFFFFFF AND PUSH20 0xFFFFFFFFFFFFFFFFFFFFFFFFFFFFFFFFFFFFFFFF AND DUP2 MSTORE PUSH1 0x20 ADD SWAP1 DUP2 MSTORE PUSH1 0x20 ADD PUSH1 0x0 KECCAK256 SLOAD GT ISZERO PUSH2 0x225 JUMPI DUP2 PUSH1 0x1 PUSH1 0x0 CALLER PUSH20 0xFFFFFFFFFFFFFFFFFFFFFFFFFFFFFFFFFFFFFFFF AND PUSH20 0xFFFFFFFFFFFFFFFFFFFFFFFFFFFFFFFFFFFFFFFF AND DUP2 MSTORE PUSH1 0x20 ADD SWAP1 DUP2 MSTORE PUSH1 0x20 ADD PUSH1 0x0 KECCAK256 PUSH1 0x0 DUP3 DUP3 SLOAD PUSH2 0x219 SWAP2 SWAP1 PUSH2 0x4DB JUMP JUMPDEST SWAP3 POP POP DUP2 SWAP1 SSTORE POP PUSH2 0x226 JUMP JUMPDEST JUMPDEST POP POP JUMP JUMPDEST PUSH1 0x0 PUSH32 0x0 PUSH20 0xFFFFFFFFFFFFFFFFFFFFFFFFFFFFFFFFFFFFFFFF AND CALLER PUSH20 0xFFFFFFFFFFFFFFFFFFFFFFFFFFFFFFFFFFFFFFFF AND SUB PUSH2 0x34A JUMPI PUSH1 0x0 DUP3 PUSH1 0x0 SLOAD PUSH2 0x28F SWAP2 SWAP1 PUSH2 0x50F JUMP JUMPDEST SWAP1 POP DUP1 PUSH1 0x0 DUP2 SWAP1 SSTORE POP DUP3 PUSH1 0x1 PUSH1 0x0 PUSH32 0x0 PUSH20 0xFFFFFFFFFFFFFFFFFFFFFFFFFFFFFFFFFFFFFFFF AND PUSH20 0xFFFFFFFFFFFFFFFFFFFFFFFFFFFFFFFFFFFFFFFF AND DUP2 MSTORE PUSH1 0x20 ADD SWAP1 DUP2 MSTORE PUSH1 0x20 ADD PUSH1 0x0 KECCAK256 PUSH1 0x0 DUP3 DUP3 SLOAD PUSH2 0x307 SWAP2 SWAP1 PUSH2 0x50F JUMP JUMPDEST SWAP3 POP POP DUP2 SWAP1 SSTORE POP PUSH32 0x4B4CF0EE53BD94681FF4F0A7493774A4079A4DC2A80A6ED73B4788381FDB2473 DUP2 PUSH1 0x40 MLOAD PUSH2 0x33D SWAP2 SWAP1 PUSH2 0x3F8 JUMP JUMPDEST PUSH1 0x40 MLOAD DUP1 SWAP2 SUB SWAP1 LOG1 DUP1 SWAP2 POP POP JUMPDEST SWAP2 SWAP1 POP JUMP JUMPDEST PUSH1 0x0 DUP1 REVERT JUMPDEST PUSH1 0x0 PUSH20 0xFFFFFFFFFFFFFFFFFFFFFFFFFFFFFFFFFFFFFFFF DUP3 AND SWAP1 POP SWAP2 SWAP1 POP JUMP JUMPDEST PUSH1 0x0 PUSH2 0x37F DUP3 PUSH2 0x354 JUMP JUMPDEST SWAP1 POP SWAP2 SWAP1 POP JUMP JUMPDEST PUSH2 0x38F DUP2 PUSH2 0x374 JUMP JUMPDEST DUP2 EQ PUSH2 0x39A JUMPI PUSH1 0x0 DUP1 REVERT JUMPDEST POP JUMP JUMPDEST PUSH1 0x0 DUP2 CALLDATALOAD SWAP1 POP PUSH2 0x3AC DUP2 PUSH2 0x386 JUMP JUMPDEST SWAP3 SWAP2 POP POP JUMP JUMPDEST PUSH1 0x0 PUSH1 0x20 DUP3 DUP5 SUB SLT ISZERO PUSH2 0x3C8 JUMPI PUSH2 0x3C7 PUSH2 0x34F JUMP JUMPDEST JUMPDEST PUSH1 0x0 PUSH2 0x3D6 DUP5 DUP3 DUP6 ADD PUSH2 0x39D JUMP JUMPDEST SWAP2 POP POP SWAP3 SWAP2 POP POP JUMP JUMPDEST PUSH1 0x0 DUP2 SWAP1 POP SWAP2 SWAP1 POP JUMP JUMPDEST PUSH2 0x3F2 DUP2 PUSH2 0x3DF JUMP JUMPDEST DUP3 MSTORE POP POP JUMP JUMPDEST PUSH1 0x0 PUSH1 0x20 DUP3 ADD SWAP1 POP PUSH2 0x40D PUSH1 0x0 DUP4 ADD DUP5 PUSH2 0x3E9 JUMP JUMPDEST SWAP3 SWAP2 POP POP JUMP JUMPDEST PUSH2 0x41C DUP2 PUSH2 0x3DF JUMP JUMPDEST DUP2 EQ PUSH2 0x427 JUMPI PUSH1 0x0 DUP1 REVERT JUMPDEST POP JUMP JUMPDEST PUSH1 0x0 DUP2 CALLDATALOAD SWAP1 POP PUSH2 0x439 DUP2 PUSH2 0x413 JUMP JUMPDEST SWAP3 SWAP2 POP POP JUMP JUMPDEST PUSH1 0x0 DUP1 PUSH1 0x40 DUP4 DUP6 SUB SLT ISZERO PUSH2 0x456 JUMPI PUSH2 0x455 PUSH2 0x34F JUMP JUMPDEST JUMPDEST PUSH1 0x0 PUSH2 0x464 DUP6 DUP3 DUP7 ADD PUSH2 0x42A JUMP JUMPDEST SWAP3 POP POP PUSH1 0x20 PUSH2 0x475 DUP6 DUP3 DUP7 ADD PUSH2 0x39D JUMP JUMPDEST SWAP2 POP POP SWAP3 POP SWAP3 SWAP1 POP JUMP JUMPDEST PUSH1 0x0 PUSH1 0x20 DUP3 DUP5 SUB SLT ISZERO PUSH2 0x495 JUMPI PUSH2 0x494 PUSH2 0x34F JUMP JUMPDEST JUMPDEST PUSH1 0x0 PUSH2 0x4A3 DUP5 DUP3 DUP6 ADD PUSH2 0x42A JUMP JUMPDEST SWAP2 POP POP SWAP3 SWAP2 POP POP JUMP JUMPDEST PUSH32 0x4E487B7100000000000000000000000000000000000000000000000000000000 PUSH1 0x0 MSTORE PUSH1 0x11 PUSH1 0x4 MSTORE PUSH1 0x24 PUSH1 0x0 REVERT JUMPDEST PUSH1 0x0 PUSH2 0x4E6 DUP3 PUSH2 0x3DF JUMP JUMPDEST SWAP2 POP PUSH2 0x4F1 DUP4 PUSH2 0x3DF JUMP JUMPDEST SWAP3 POP DUP3 DUP3 SUB SWAP1 POP DUP2 DUP2 GT ISZERO PUSH2 0x509 JUMPI PUSH2 0x508 PUSH2 0x4AC JUMP JUMPDEST JUMPDEST SWAP3 SWAP2 POP POP JUMP JUMPDEST PUSH1 0x0 PUSH2 0x51A DUP3 PUSH2 0x3DF JUMP JUMPDEST SWAP2 POP PUSH2 0x525 DUP4 PUSH2 0x3DF JUMP JUMPDEST SWAP3 POP DUP3 DUP3 ADD SWAP1 POP DUP1 DUP3 GT ISZERO PUSH2 0x53D JUMPI PUSH2 0x53C PUSH2 0x4AC JUMP JUMPDEST JUMPDEST SWAP3 SWAP2 POP POP JUMP INVALID LOG2 PUSH5 0x6970667358 0x22 SLT KECCAK256 NUMBER PC 0xEE 0xFB EXTCODEHASH 0xA5 MOD PUSH3 0xADB69E PUSH27 0xE2F99F5B75059551DC3F5BBA60D8D612FF608B1D64736F6C634300 ADDMOD GT STOP CALLER "
				},
				"gasEstimates": {
					"creation": {
						"codeDepositCost": "280200",
						"executionCost": "infinite",
						"totalCost": "infinite"
					},
					"external": {
						"balances(address)": "2792",
						"getTotalSupply()": "2459",
						"incrementTotalSupplyBy(uint256)": "infinite",
						"incrementTotalSupplyByThousand()": "infinite",
						"transferAmountToAddress(uint256,address)": "infinite"
					}
				},
				"methodIdentifiers": {
					"balances(address)": "27e235e3",
					"getTotalSupply()": "c4e41b22",
					"incrementTotalSupplyBy(uint256)": "eb912a41",
					"incrementTotalSupplyByThousand()": "4e7531af",
					"transferAmountToAddress(uint256,address)": "e8346aad"
				}
			},
			"storageLayout": {
				"storage": [
					{
						"astId": 6,
						"contract": "Users/eggs/Desktop/SolidityBootcamp/04 - Solidity /VolcanoCoin.sol:VolcanoCoin",
						"label": "totalSupply",
						"offset": 0,
						"slot": "0",
						"type": "t_uint256"
					},
					{
						"astId": 10,
						"contract": "Users/eggs/Desktop/SolidityBootcamp/04 - Solidity /VolcanoCoin.sol:VolcanoCoin",
						"label": "balances",
						"offset": 0,
						"slot": "1",
						"type": "t_mapping(t_address,t_uint256)"
					}
				],
				"types": {
					"t_address": {
						"encoding": "inplace",
						"label": "address",
						"numberOfBytes": "20"
					},
					"t_mapping(t_address,t_uint256)": {
						"encoding": "mapping",
						"key": "t_address",
						"label": "mapping(address => uint256)",
						"numberOfBytes": "32",
						"value": "t_uint256"
					},
					"t_uint256": {
						"encoding": "inplace",
						"label": "uint256",
						"numberOfBytes": "32"
					}
				}
			},
			"userdoc": {
				"kind": "user",
				"methods": {},
				"version": 1
			}
		}
	}
}