{
	"Users/eggs/Desktop/SolidityBootcamp/04 - Solidity /VolcanoCoin.sol": {
		"VolcanoCoin": {
			"abi": [
				{
					"inputs": [],
					"stateMutability": "nonpayable",
					"type": "constructor"
				},
				{
					"anonymous": false,
					"inputs": [
						{
							"indexed": false,
							"internalType": "uint256",
							"name": "newTotalSupply",
							"type": "uint256"
						}
					],
					"name": "IncrementTotalSupply",
					"type": "event"
				},
				{
					"anonymous": false,
					"inputs": [
						{
							"indexed": false,
							"internalType": "uint256",
							"name": "amount",
							"type": "uint256"
						},
						{
							"indexed": false,
							"internalType": "address",
							"name": "recipient",
							"type": "address"
						}
					],
					"name": "TransferExecuted",
					"type": "event"
				},
				{
					"inputs": [
						{
							"internalType": "address",
							"name": "",
							"type": "address"
						}
					],
					"name": "balanceByAddress",
					"outputs": [
						{
							"internalType": "uint256",
							"name": "",
							"type": "uint256"
						}
					],
					"stateMutability": "view",
					"type": "function"
				},
				{
					"inputs": [
						{
							"internalType": "address",
							"name": "",
							"type": "address"
						}
					],
					"name": "balances",
					"outputs": [
						{
							"internalType": "uint256",
							"name": "",
							"type": "uint256"
						}
					],
					"stateMutability": "view",
					"type": "function"
				},
				{
					"inputs": [],
					"name": "getTotalSupply",
					"outputs": [
						{
							"internalType": "uint256",
							"name": "",
							"type": "uint256"
						}
					],
					"stateMutability": "view",
					"type": "function"
				},
				{
					"inputs": [
						{
							"internalType": "uint256",
							"name": "amnt",
							"type": "uint256"
						}
					],
					"name": "incrementTotalSupplyBy",
					"outputs": [
						{
							"internalType": "uint256",
							"name": "_totalSupply",
							"type": "uint256"
						}
					],
					"stateMutability": "nonpayable",
					"type": "function"
				},
				{
					"inputs": [],
					"name": "incrementTotalSupplyByThousand",
					"outputs": [],
					"stateMutability": "nonpayable",
					"type": "function"
				},
				{
					"inputs": [
						{
							"internalType": "uint256",
							"name": "amnt",
							"type": "uint256"
						},
						{
							"internalType": "address",
							"name": "recipient",
							"type": "address"
						}
					],
					"name": "transferAmountToAddress",
					"outputs": [],
					"stateMutability": "nonpayable",
					"type": "function"
				}
			],
			"devdoc": {
				"kind": "dev",
				"methods": {},
				"version": 1
			},
			"evm": {
				"assembly": "    /* \"Users/eggs/Desktop/SolidityBootcamp/04 - Solidity /VolcanoCoin.sol\":66:1957  contract VolcanoCoin {... */\n  mstore(0x40, 0xa0)\n    /* \"Users/eggs/Desktop/SolidityBootcamp/04 - Solidity /VolcanoCoin.sol\":146:151  10000 */\n  0x2710\n    /* \"Users/eggs/Desktop/SolidityBootcamp/04 - Solidity /VolcanoCoin.sol\":124:151  uint256 totalSupply = 10000 */\n  0x00\n  sstore\n    /* \"Users/eggs/Desktop/SolidityBootcamp/04 - Solidity /VolcanoCoin.sol\":726:925  constructor() {... */\n  callvalue\n  dup1\n  iszero\n  tag_1\n  jumpi\n  0x00\n  dup1\n  revert\ntag_1:\n  pop\n    /* \"Users/eggs/Desktop/SolidityBootcamp/04 - Solidity /VolcanoCoin.sol\":758:768  msg.sender */\n  caller\n    /* \"Users/eggs/Desktop/SolidityBootcamp/04 - Solidity /VolcanoCoin.sol\":750:768  owner = msg.sender */\n  0xffffffffffffffffffffffffffffffffffffffff\n  and\n  0x80\n  dup2\n  0xffffffffffffffffffffffffffffffffffffffff\n  and\n  dup2\n  mstore\n  pop\n  pop\n    /* \"Users/eggs/Desktop/SolidityBootcamp/04 - Solidity /VolcanoCoin.sol\":796:807  totalSupply */\n  sload(0x00)\n    /* \"Users/eggs/Desktop/SolidityBootcamp/04 - Solidity /VolcanoCoin.sol\":778:786  balances */\n  0x02\n    /* \"Users/eggs/Desktop/SolidityBootcamp/04 - Solidity /VolcanoCoin.sol\":778:793  balances[owner] */\n  0x00\n    /* \"Users/eggs/Desktop/SolidityBootcamp/04 - Solidity /VolcanoCoin.sol\":787:792  owner */\n  mload(0x80)\n    /* \"Users/eggs/Desktop/SolidityBootcamp/04 - Solidity /VolcanoCoin.sol\":778:793  balances[owner] */\n  0xffffffffffffffffffffffffffffffffffffffff\n  and\n  0xffffffffffffffffffffffffffffffffffffffff\n  and\n  dup2\n  mstore\n  0x20\n  add\n  swap1\n  dup2\n  mstore\n  0x20\n  add\n  0x00\n  keccak256\n    /* \"Users/eggs/Desktop/SolidityBootcamp/04 - Solidity /VolcanoCoin.sol\":778:807  balances[owner] = totalSupply */\n  dup2\n  swap1\n  sstore\n  pop\n    /* \"Users/eggs/Desktop/SolidityBootcamp/04 - Solidity /VolcanoCoin.sol\":66:1957  contract VolcanoCoin {... */\n  mload(0x80)\n  codecopy(0x00, dataOffset(sub_0), dataSize(sub_0))\n  0x00\n  assignImmutable(\"0x2a80e1ef1d7842f27f2e6be0972bb708b9a135c38860dbe73c27c3486c34f4de\")\n  return(0x00, dataSize(sub_0))\nstop\n\nsub_0: assembly {\n        /* \"Users/eggs/Desktop/SolidityBootcamp/04 - Solidity /VolcanoCoin.sol\":66:1957  contract VolcanoCoin {... */\n      mstore(0x40, 0x80)\n      callvalue\n      dup1\n      iszero\n      tag_1\n      jumpi\n      0x00\n      dup1\n      revert\n    tag_1:\n      pop\n      jumpi(tag_2, lt(calldatasize, 0x04))\n      shr(0xe0, calldataload(0x00))\n      dup1\n      0x09fdcb7d\n      eq\n      tag_3\n      jumpi\n      dup1\n      0x27e235e3\n      eq\n      tag_4\n      jumpi\n      dup1\n      0x4e7531af\n      eq\n      tag_5\n      jumpi\n      dup1\n      0xc4e41b22\n      eq\n      tag_6\n      jumpi\n      dup1\n      0xe8346aad\n      eq\n      tag_7\n      jumpi\n      dup1\n      0xeb912a41\n      eq\n      tag_8\n      jumpi\n    tag_2:\n      0x00\n      dup1\n      revert\n        /* \"Users/eggs/Desktop/SolidityBootcamp/04 - Solidity /VolcanoCoin.sol\":323:374  mapping(address => uint256) public balanceByAddress */\n    tag_3:\n      tag_9\n      0x04\n      dup1\n      calldatasize\n      sub\n      dup2\n      add\n      swap1\n      tag_10\n      swap2\n      swap1\n      tag_11\n      jump\t// in\n    tag_10:\n      tag_12\n      jump\t// in\n    tag_9:\n      mload(0x40)\n      tag_13\n      swap2\n      swap1\n      tag_14\n      jump\t// in\n    tag_13:\n      mload(0x40)\n      dup1\n      swap2\n      sub\n      swap1\n      return\n        /* \"Users/eggs/Desktop/SolidityBootcamp/04 - Solidity /VolcanoCoin.sol\":380:423  mapping(address => uint256) public balances */\n    tag_4:\n      tag_15\n      0x04\n      dup1\n      calldatasize\n      sub\n      dup2\n      add\n      swap1\n      tag_16\n      swap2\n      swap1\n      tag_11\n      jump\t// in\n    tag_16:\n      tag_17\n      jump\t// in\n    tag_15:\n      mload(0x40)\n      tag_18\n      swap2\n      swap1\n      tag_14\n      jump\t// in\n    tag_18:\n      mload(0x40)\n      dup1\n      swap2\n      sub\n      swap1\n      return\n        /* \"Users/eggs/Desktop/SolidityBootcamp/04 - Solidity /VolcanoCoin.sol\":1521:1625  function incrementTotalSupplyByThousand() public onlyOwner {... */\n    tag_5:\n      tag_19\n      tag_20\n      jump\t// in\n    tag_19:\n      stop\n        /* \"Users/eggs/Desktop/SolidityBootcamp/04 - Solidity /VolcanoCoin.sol\":933:1023  function getTotalSupply() public view returns (uint256){... */\n    tag_6:\n      tag_21\n      tag_22\n      jump\t// in\n    tag_21:\n      mload(0x40)\n      tag_23\n      swap2\n      swap1\n      tag_14\n      jump\t// in\n    tag_23:\n      mload(0x40)\n      dup1\n      swap2\n      sub\n      swap1\n      return\n        /* \"Users/eggs/Desktop/SolidityBootcamp/04 - Solidity /VolcanoCoin.sol\":1632:1947  function transferAmountToAddress(uint256 amnt, address recipient) public {... */\n    tag_7:\n      tag_24\n      0x04\n      dup1\n      calldatasize\n      sub\n      dup2\n      add\n      swap1\n      tag_25\n      swap2\n      swap1\n      tag_26\n      jump\t// in\n    tag_25:\n      tag_27\n      jump\t// in\n    tag_24:\n      stop\n        /* \"Users/eggs/Desktop/SolidityBootcamp/04 - Solidity /VolcanoCoin.sol\":1149:1515  function incrementTotalSupplyBy(uint256 amnt) public onlyOwner returns (uint256 _totalSupply) {... */\n    tag_8:\n      tag_28\n      0x04\n      dup1\n      calldatasize\n      sub\n      dup2\n      add\n      swap1\n      tag_29\n      swap2\n      swap1\n      tag_30\n      jump\t// in\n    tag_29:\n      tag_31\n      jump\t// in\n    tag_28:\n      mload(0x40)\n      tag_32\n      swap2\n      swap1\n      tag_14\n      jump\t// in\n    tag_32:\n      mload(0x40)\n      dup1\n      swap2\n      sub\n      swap1\n      return\n        /* \"Users/eggs/Desktop/SolidityBootcamp/04 - Solidity /VolcanoCoin.sol\":323:374  mapping(address => uint256) public balanceByAddress */\n    tag_12:\n      mstore(0x20, 0x01)\n      dup1\n      0x00\n      mstore\n      keccak256(0x00, 0x40)\n      0x00\n      swap2\n      pop\n      swap1\n      pop\n      sload\n      dup2\n      jump\t// out\n        /* \"Users/eggs/Desktop/SolidityBootcamp/04 - Solidity /VolcanoCoin.sol\":380:423  mapping(address => uint256) public balances */\n    tag_17:\n      mstore(0x20, 0x02)\n      dup1\n      0x00\n      mstore\n      keccak256(0x00, 0x40)\n      0x00\n      swap2\n      pop\n      swap1\n      pop\n      sload\n      dup2\n      jump\t// out\n        /* \"Users/eggs/Desktop/SolidityBootcamp/04 - Solidity /VolcanoCoin.sol\":1521:1625  function incrementTotalSupplyByThousand() public onlyOwner {... */\n    tag_20:\n        /* \"Users/eggs/Desktop/SolidityBootcamp/04 - Solidity /VolcanoCoin.sol\":680:685  owner */\n      immutable(\"0x2a80e1ef1d7842f27f2e6be0972bb708b9a135c38860dbe73c27c3486c34f4de\")\n        /* \"Users/eggs/Desktop/SolidityBootcamp/04 - Solidity /VolcanoCoin.sol\":666:685  msg.sender == owner */\n      0xffffffffffffffffffffffffffffffffffffffff\n      and\n        /* \"Users/eggs/Desktop/SolidityBootcamp/04 - Solidity /VolcanoCoin.sol\":666:676  msg.sender */\n      caller\n        /* \"Users/eggs/Desktop/SolidityBootcamp/04 - Solidity /VolcanoCoin.sol\":666:685  msg.sender == owner */\n      0xffffffffffffffffffffffffffffffffffffffff\n      and\n      sub\n        /* \"Users/eggs/Desktop/SolidityBootcamp/04 - Solidity /VolcanoCoin.sol\":662:713  if (msg.sender == owner) {... */\n      tag_34\n      jumpi\n        /* \"Users/eggs/Desktop/SolidityBootcamp/04 - Solidity /VolcanoCoin.sol\":1590:1618  incrementTotalSupplyBy(1000) */\n      tag_36\n        /* \"Users/eggs/Desktop/SolidityBootcamp/04 - Solidity /VolcanoCoin.sol\":1613:1617  1000 */\n      0x03e8\n        /* \"Users/eggs/Desktop/SolidityBootcamp/04 - Solidity /VolcanoCoin.sol\":1590:1612  incrementTotalSupplyBy */\n      tag_31\n        /* \"Users/eggs/Desktop/SolidityBootcamp/04 - Solidity /VolcanoCoin.sol\":1590:1618  incrementTotalSupplyBy(1000) */\n      jump\t// in\n    tag_36:\n      pop\n        /* \"Users/eggs/Desktop/SolidityBootcamp/04 - Solidity /VolcanoCoin.sol\":662:713  if (msg.sender == owner) {... */\n    tag_34:\n        /* \"Users/eggs/Desktop/SolidityBootcamp/04 - Solidity /VolcanoCoin.sol\":1521:1625  function incrementTotalSupplyByThousand() public onlyOwner {... */\n      jump\t// out\n        /* \"Users/eggs/Desktop/SolidityBootcamp/04 - Solidity /VolcanoCoin.sol\":933:1023  function getTotalSupply() public view returns (uint256){... */\n    tag_22:\n        /* \"Users/eggs/Desktop/SolidityBootcamp/04 - Solidity /VolcanoCoin.sol\":980:987  uint256 */\n      0x00\n        /* \"Users/eggs/Desktop/SolidityBootcamp/04 - Solidity /VolcanoCoin.sol\":1005:1016  totalSupply */\n      dup1\n      sload\n        /* \"Users/eggs/Desktop/SolidityBootcamp/04 - Solidity /VolcanoCoin.sol\":998:1016  return totalSupply */\n      swap1\n      pop\n        /* \"Users/eggs/Desktop/SolidityBootcamp/04 - Solidity /VolcanoCoin.sol\":933:1023  function getTotalSupply() public view returns (uint256){... */\n      swap1\n      jump\t// out\n        /* \"Users/eggs/Desktop/SolidityBootcamp/04 - Solidity /VolcanoCoin.sol\":1632:1947  function transferAmountToAddress(uint256 amnt, address recipient) public {... */\n    tag_27:\n        /* \"Users/eggs/Desktop/SolidityBootcamp/04 - Solidity /VolcanoCoin.sol\":1743:1747  amnt */\n      dup2\n        /* \"Users/eggs/Desktop/SolidityBootcamp/04 - Solidity /VolcanoCoin.sol\":1720:1728  balances */\n      0x02\n        /* \"Users/eggs/Desktop/SolidityBootcamp/04 - Solidity /VolcanoCoin.sol\":1720:1740  balances[msg.sender] */\n      0x00\n        /* \"Users/eggs/Desktop/SolidityBootcamp/04 - Solidity /VolcanoCoin.sol\":1729:1739  msg.sender */\n      caller\n        /* \"Users/eggs/Desktop/SolidityBootcamp/04 - Solidity /VolcanoCoin.sol\":1720:1740  balances[msg.sender] */\n      0xffffffffffffffffffffffffffffffffffffffff\n      and\n      0xffffffffffffffffffffffffffffffffffffffff\n      and\n      dup2\n      mstore\n      0x20\n      add\n      swap1\n      dup2\n      mstore\n      0x20\n      add\n      0x00\n      keccak256\n      sload\n        /* \"Users/eggs/Desktop/SolidityBootcamp/04 - Solidity /VolcanoCoin.sol\":1720:1747  balances[msg.sender] > amnt */\n      gt\n        /* \"Users/eggs/Desktop/SolidityBootcamp/04 - Solidity /VolcanoCoin.sol\":1716:1941  if (balances[msg.sender] > amnt) {... */\n      iszero\n      tag_39\n      jumpi\n        /* \"Users/eggs/Desktop/SolidityBootcamp/04 - Solidity /VolcanoCoin.sol\":1787:1791  amnt */\n      dup2\n        /* \"Users/eggs/Desktop/SolidityBootcamp/04 - Solidity /VolcanoCoin.sol\":1763:1771  balances */\n      0x02\n        /* \"Users/eggs/Desktop/SolidityBootcamp/04 - Solidity /VolcanoCoin.sol\":1763:1783  balances[msg.sender] */\n      0x00\n        /* \"Users/eggs/Desktop/SolidityBootcamp/04 - Solidity /VolcanoCoin.sol\":1772:1782  msg.sender */\n      caller\n        /* \"Users/eggs/Desktop/SolidityBootcamp/04 - Solidity /VolcanoCoin.sol\":1763:1783  balances[msg.sender] */\n      0xffffffffffffffffffffffffffffffffffffffff\n      and\n      0xffffffffffffffffffffffffffffffffffffffff\n      and\n      dup2\n      mstore\n      0x20\n      add\n      swap1\n      dup2\n      mstore\n      0x20\n      add\n      0x00\n      keccak256\n      0x00\n        /* \"Users/eggs/Desktop/SolidityBootcamp/04 - Solidity /VolcanoCoin.sol\":1763:1791  balances[msg.sender] -= amnt */\n      dup3\n      dup3\n      sload\n      tag_40\n      swap2\n      swap1\n      tag_41\n      jump\t// in\n    tag_40:\n      swap3\n      pop\n      pop\n      dup2\n      swap1\n      sstore\n      pop\n        /* \"Users/eggs/Desktop/SolidityBootcamp/04 - Solidity /VolcanoCoin.sol\":1828:1832  amnt */\n      dup2\n        /* \"Users/eggs/Desktop/SolidityBootcamp/04 - Solidity /VolcanoCoin.sol\":1805:1813  balances */\n      0x02\n        /* \"Users/eggs/Desktop/SolidityBootcamp/04 - Solidity /VolcanoCoin.sol\":1805:1824  balances[recipient] */\n      0x00\n        /* \"Users/eggs/Desktop/SolidityBootcamp/04 - Solidity /VolcanoCoin.sol\":1814:1823  recipient */\n      dup4\n        /* \"Users/eggs/Desktop/SolidityBootcamp/04 - Solidity /VolcanoCoin.sol\":1805:1824  balances[recipient] */\n      0xffffffffffffffffffffffffffffffffffffffff\n      and\n      0xffffffffffffffffffffffffffffffffffffffff\n      and\n      dup2\n      mstore\n      0x20\n      add\n      swap1\n      dup2\n      mstore\n      0x20\n      add\n      0x00\n      keccak256\n      0x00\n        /* \"Users/eggs/Desktop/SolidityBootcamp/04 - Solidity /VolcanoCoin.sol\":1805:1832  balances[recipient] += amnt */\n      dup3\n      dup3\n      sload\n      tag_42\n      swap2\n      swap1\n      tag_43\n      jump\t// in\n    tag_42:\n      swap3\n      pop\n      pop\n      dup2\n      swap1\n      sstore\n      pop\n        /* \"Users/eggs/Desktop/SolidityBootcamp/04 - Solidity /VolcanoCoin.sol\":1852:1885  TransferExecuted(amnt, recipient) */\n      0x1bab39331027605a94d5d4076658113667ed0f93f2164fa8143eb1ef782d7fa1\n        /* \"Users/eggs/Desktop/SolidityBootcamp/04 - Solidity /VolcanoCoin.sol\":1869:1873  amnt */\n      dup3\n        /* \"Users/eggs/Desktop/SolidityBootcamp/04 - Solidity /VolcanoCoin.sol\":1875:1884  recipient */\n      dup3\n        /* \"Users/eggs/Desktop/SolidityBootcamp/04 - Solidity /VolcanoCoin.sol\":1852:1885  TransferExecuted(amnt, recipient) */\n      mload(0x40)\n      tag_44\n      swap3\n      swap2\n      swap1\n      tag_45\n      jump\t// in\n    tag_44:\n      mload(0x40)\n      dup1\n      swap2\n      sub\n      swap1\n      log1\n        /* \"Users/eggs/Desktop/SolidityBootcamp/04 - Solidity /VolcanoCoin.sol\":1716:1941  if (balances[msg.sender] > amnt) {... */\n      jump(tag_46)\n    tag_39:\n    tag_46:\n        /* \"Users/eggs/Desktop/SolidityBootcamp/04 - Solidity /VolcanoCoin.sol\":1632:1947  function transferAmountToAddress(uint256 amnt, address recipient) public {... */\n      pop\n      pop\n      jump\t// out\n        /* \"Users/eggs/Desktop/SolidityBootcamp/04 - Solidity /VolcanoCoin.sol\":1149:1515  function incrementTotalSupplyBy(uint256 amnt) public onlyOwner returns (uint256 _totalSupply) {... */\n    tag_31:\n        /* \"Users/eggs/Desktop/SolidityBootcamp/04 - Solidity /VolcanoCoin.sol\":1221:1241  uint256 _totalSupply */\n      0x00\n        /* \"Users/eggs/Desktop/SolidityBootcamp/04 - Solidity /VolcanoCoin.sol\":680:685  owner */\n      immutable(\"0x2a80e1ef1d7842f27f2e6be0972bb708b9a135c38860dbe73c27c3486c34f4de\")\n        /* \"Users/eggs/Desktop/SolidityBootcamp/04 - Solidity /VolcanoCoin.sol\":666:685  msg.sender == owner */\n      0xffffffffffffffffffffffffffffffffffffffff\n      and\n        /* \"Users/eggs/Desktop/SolidityBootcamp/04 - Solidity /VolcanoCoin.sol\":666:676  msg.sender */\n      caller\n        /* \"Users/eggs/Desktop/SolidityBootcamp/04 - Solidity /VolcanoCoin.sol\":666:685  msg.sender == owner */\n      0xffffffffffffffffffffffffffffffffffffffff\n      and\n      sub\n        /* \"Users/eggs/Desktop/SolidityBootcamp/04 - Solidity /VolcanoCoin.sol\":662:713  if (msg.sender == owner) {... */\n      tag_48\n      jumpi\n        /* \"Users/eggs/Desktop/SolidityBootcamp/04 - Solidity /VolcanoCoin.sol\":1253:1270  uint256 newSupply */\n      0x00\n        /* \"Users/eggs/Desktop/SolidityBootcamp/04 - Solidity /VolcanoCoin.sol\":1287:1291  amnt */\n      dup3\n        /* \"Users/eggs/Desktop/SolidityBootcamp/04 - Solidity /VolcanoCoin.sol\":1273:1284  totalSupply */\n      sload(0x00)\n        /* \"Users/eggs/Desktop/SolidityBootcamp/04 - Solidity /VolcanoCoin.sol\":1273:1291  totalSupply + amnt */\n      tag_50\n      swap2\n      swap1\n      tag_43\n      jump\t// in\n    tag_50:\n        /* \"Users/eggs/Desktop/SolidityBootcamp/04 - Solidity /VolcanoCoin.sol\":1253:1291  uint256 newSupply = totalSupply + amnt */\n      swap1\n      pop\n        /* \"Users/eggs/Desktop/SolidityBootcamp/04 - Solidity /VolcanoCoin.sol\":1315:1324  newSupply */\n      dup1\n        /* \"Users/eggs/Desktop/SolidityBootcamp/04 - Solidity /VolcanoCoin.sol\":1301:1312  totalSupply */\n      0x00\n        /* \"Users/eggs/Desktop/SolidityBootcamp/04 - Solidity /VolcanoCoin.sol\":1301:1324  totalSupply = newSupply */\n      dup2\n      swap1\n      sstore\n      pop\n        /* \"Users/eggs/Desktop/SolidityBootcamp/04 - Solidity /VolcanoCoin.sol\":1362:1366  amnt */\n      dup3\n        /* \"Users/eggs/Desktop/SolidityBootcamp/04 - Solidity /VolcanoCoin.sol\":1343:1351  balances */\n      0x02\n        /* \"Users/eggs/Desktop/SolidityBootcamp/04 - Solidity /VolcanoCoin.sol\":1343:1358  balances[owner] */\n      0x00\n        /* \"Users/eggs/Desktop/SolidityBootcamp/04 - Solidity /VolcanoCoin.sol\":1352:1357  owner */\n      immutable(\"0x2a80e1ef1d7842f27f2e6be0972bb708b9a135c38860dbe73c27c3486c34f4de\")\n        /* \"Users/eggs/Desktop/SolidityBootcamp/04 - Solidity /VolcanoCoin.sol\":1343:1358  balances[owner] */\n      0xffffffffffffffffffffffffffffffffffffffff\n      and\n      0xffffffffffffffffffffffffffffffffffffffff\n      and\n      dup2\n      mstore\n      0x20\n      add\n      swap1\n      dup2\n      mstore\n      0x20\n      add\n      0x00\n      keccak256\n      0x00\n        /* \"Users/eggs/Desktop/SolidityBootcamp/04 - Solidity /VolcanoCoin.sol\":1343:1366  balances[owner] += amnt */\n      dup3\n      dup3\n      sload\n      tag_51\n      swap2\n      swap1\n      tag_43\n      jump\t// in\n    tag_51:\n      swap3\n      pop\n      pop\n      dup2\n      swap1\n      sstore\n      pop\n        /* \"Users/eggs/Desktop/SolidityBootcamp/04 - Solidity /VolcanoCoin.sol\":1451:1482  IncrementTotalSupply(newSupply) */\n      0x4b4cf0ee53bd94681ff4f0a7493774a4079a4dc2a80a6ed73b4788381fdb2473\n        /* \"Users/eggs/Desktop/SolidityBootcamp/04 - Solidity /VolcanoCoin.sol\":1472:1481  newSupply */\n      dup2\n        /* \"Users/eggs/Desktop/SolidityBootcamp/04 - Solidity /VolcanoCoin.sol\":1451:1482  IncrementTotalSupply(newSupply) */\n      mload(0x40)\n      tag_52\n      swap2\n      swap1\n      tag_14\n      jump\t// in\n    tag_52:\n      mload(0x40)\n      dup1\n      swap2\n      sub\n      swap1\n      log1\n        /* \"Users/eggs/Desktop/SolidityBootcamp/04 - Solidity /VolcanoCoin.sol\":1499:1508  newSupply */\n      dup1\n        /* \"Users/eggs/Desktop/SolidityBootcamp/04 - Solidity /VolcanoCoin.sol\":1492:1508  return newSupply */\n      swap2\n      pop\n      pop\n        /* \"Users/eggs/Desktop/SolidityBootcamp/04 - Solidity /VolcanoCoin.sol\":662:713  if (msg.sender == owner) {... */\n    tag_48:\n        /* \"Users/eggs/Desktop/SolidityBootcamp/04 - Solidity /VolcanoCoin.sol\":1149:1515  function incrementTotalSupplyBy(uint256 amnt) public onlyOwner returns (uint256 _totalSupply) {... */\n      swap2\n      swap1\n      pop\n      jump\t// out\n        /* \"#utility.yul\":88:205   */\n    tag_54:\n        /* \"#utility.yul\":197:198   */\n      0x00\n        /* \"#utility.yul\":194:195   */\n      dup1\n        /* \"#utility.yul\":187:199   */\n      revert\n        /* \"#utility.yul\":334:460   */\n    tag_56:\n        /* \"#utility.yul\":371:378   */\n      0x00\n        /* \"#utility.yul\":411:453   */\n      0xffffffffffffffffffffffffffffffffffffffff\n        /* \"#utility.yul\":404:409   */\n      dup3\n        /* \"#utility.yul\":400:454   */\n      and\n        /* \"#utility.yul\":389:454   */\n      swap1\n      pop\n        /* \"#utility.yul\":334:460   */\n      swap2\n      swap1\n      pop\n      jump\t// out\n        /* \"#utility.yul\":466:562   */\n    tag_57:\n        /* \"#utility.yul\":503:510   */\n      0x00\n        /* \"#utility.yul\":532:556   */\n      tag_72\n        /* \"#utility.yul\":550:555   */\n      dup3\n        /* \"#utility.yul\":532:556   */\n      tag_56\n      jump\t// in\n    tag_72:\n        /* \"#utility.yul\":521:556   */\n      swap1\n      pop\n        /* \"#utility.yul\":466:562   */\n      swap2\n      swap1\n      pop\n      jump\t// out\n        /* \"#utility.yul\":568:690   */\n    tag_58:\n        /* \"#utility.yul\":641:665   */\n      tag_74\n        /* \"#utility.yul\":659:664   */\n      dup2\n        /* \"#utility.yul\":641:665   */\n      tag_57\n      jump\t// in\n    tag_74:\n        /* \"#utility.yul\":634:639   */\n      dup2\n        /* \"#utility.yul\":631:666   */\n      eq\n        /* \"#utility.yul\":621:684   */\n      tag_75\n      jumpi\n        /* \"#utility.yul\":680:681   */\n      0x00\n        /* \"#utility.yul\":677:678   */\n      dup1\n        /* \"#utility.yul\":670:682   */\n      revert\n        /* \"#utility.yul\":621:684   */\n    tag_75:\n        /* \"#utility.yul\":568:690   */\n      pop\n      jump\t// out\n        /* \"#utility.yul\":696:835   */\n    tag_59:\n        /* \"#utility.yul\":742:747   */\n      0x00\n        /* \"#utility.yul\":780:786   */\n      dup2\n        /* \"#utility.yul\":767:787   */\n      calldataload\n        /* \"#utility.yul\":758:787   */\n      swap1\n      pop\n        /* \"#utility.yul\":796:829   */\n      tag_77\n        /* \"#utility.yul\":823:828   */\n      dup2\n        /* \"#utility.yul\":796:829   */\n      tag_58\n      jump\t// in\n    tag_77:\n        /* \"#utility.yul\":696:835   */\n      swap3\n      swap2\n      pop\n      pop\n      jump\t// out\n        /* \"#utility.yul\":841:1170   */\n    tag_11:\n        /* \"#utility.yul\":900:906   */\n      0x00\n        /* \"#utility.yul\":949:951   */\n      0x20\n        /* \"#utility.yul\":937:946   */\n      dup3\n        /* \"#utility.yul\":928:935   */\n      dup5\n        /* \"#utility.yul\":924:947   */\n      sub\n        /* \"#utility.yul\":920:952   */\n      slt\n        /* \"#utility.yul\":917:1036   */\n      iszero\n      tag_79\n      jumpi\n        /* \"#utility.yul\":955:1034   */\n      tag_80\n      tag_54\n      jump\t// in\n    tag_80:\n        /* \"#utility.yul\":917:1036   */\n    tag_79:\n        /* \"#utility.yul\":1075:1076   */\n      0x00\n        /* \"#utility.yul\":1100:1153   */\n      tag_81\n        /* \"#utility.yul\":1145:1152   */\n      dup5\n        /* \"#utility.yul\":1136:1142   */\n      dup3\n        /* \"#utility.yul\":1125:1134   */\n      dup6\n        /* \"#utility.yul\":1121:1143   */\n      add\n        /* \"#utility.yul\":1100:1153   */\n      tag_59\n      jump\t// in\n    tag_81:\n        /* \"#utility.yul\":1090:1153   */\n      swap2\n      pop\n        /* \"#utility.yul\":1046:1163   */\n      pop\n        /* \"#utility.yul\":841:1170   */\n      swap3\n      swap2\n      pop\n      pop\n      jump\t// out\n        /* \"#utility.yul\":1176:1253   */\n    tag_60:\n        /* \"#utility.yul\":1213:1220   */\n      0x00\n        /* \"#utility.yul\":1242:1247   */\n      dup2\n        /* \"#utility.yul\":1231:1247   */\n      swap1\n      pop\n        /* \"#utility.yul\":1176:1253   */\n      swap2\n      swap1\n      pop\n      jump\t// out\n        /* \"#utility.yul\":1259:1377   */\n    tag_61:\n        /* \"#utility.yul\":1346:1370   */\n      tag_84\n        /* \"#utility.yul\":1364:1369   */\n      dup2\n        /* \"#utility.yul\":1346:1370   */\n      tag_60\n      jump\t// in\n    tag_84:\n        /* \"#utility.yul\":1341:1344   */\n      dup3\n        /* \"#utility.yul\":1334:1371   */\n      mstore\n        /* \"#utility.yul\":1259:1377   */\n      pop\n      pop\n      jump\t// out\n        /* \"#utility.yul\":1383:1605   */\n    tag_14:\n        /* \"#utility.yul\":1476:1480   */\n      0x00\n        /* \"#utility.yul\":1514:1516   */\n      0x20\n        /* \"#utility.yul\":1503:1512   */\n      dup3\n        /* \"#utility.yul\":1499:1517   */\n      add\n        /* \"#utility.yul\":1491:1517   */\n      swap1\n      pop\n        /* \"#utility.yul\":1527:1598   */\n      tag_86\n        /* \"#utility.yul\":1595:1596   */\n      0x00\n        /* \"#utility.yul\":1584:1593   */\n      dup4\n        /* \"#utility.yul\":1580:1597   */\n      add\n        /* \"#utility.yul\":1571:1577   */\n      dup5\n        /* \"#utility.yul\":1527:1598   */\n      tag_61\n      jump\t// in\n    tag_86:\n        /* \"#utility.yul\":1383:1605   */\n      swap3\n      swap2\n      pop\n      pop\n      jump\t// out\n        /* \"#utility.yul\":1611:1733   */\n    tag_62:\n        /* \"#utility.yul\":1684:1708   */\n      tag_88\n        /* \"#utility.yul\":1702:1707   */\n      dup2\n        /* \"#utility.yul\":1684:1708   */\n      tag_60\n      jump\t// in\n    tag_88:\n        /* \"#utility.yul\":1677:1682   */\n      dup2\n        /* \"#utility.yul\":1674:1709   */\n      eq\n        /* \"#utility.yul\":1664:1727   */\n      tag_89\n      jumpi\n        /* \"#utility.yul\":1723:1724   */\n      0x00\n        /* \"#utility.yul\":1720:1721   */\n      dup1\n        /* \"#utility.yul\":1713:1725   */\n      revert\n        /* \"#utility.yul\":1664:1727   */\n    tag_89:\n        /* \"#utility.yul\":1611:1733   */\n      pop\n      jump\t// out\n        /* \"#utility.yul\":1739:1878   */\n    tag_63:\n        /* \"#utility.yul\":1785:1790   */\n      0x00\n        /* \"#utility.yul\":1823:1829   */\n      dup2\n        /* \"#utility.yul\":1810:1830   */\n      calldataload\n        /* \"#utility.yul\":1801:1830   */\n      swap1\n      pop\n        /* \"#utility.yul\":1839:1872   */\n      tag_91\n        /* \"#utility.yul\":1866:1871   */\n      dup2\n        /* \"#utility.yul\":1839:1872   */\n      tag_62\n      jump\t// in\n    tag_91:\n        /* \"#utility.yul\":1739:1878   */\n      swap3\n      swap2\n      pop\n      pop\n      jump\t// out\n        /* \"#utility.yul\":1884:2358   */\n    tag_26:\n        /* \"#utility.yul\":1952:1958   */\n      0x00\n        /* \"#utility.yul\":1960:1966   */\n      dup1\n        /* \"#utility.yul\":2009:2011   */\n      0x40\n        /* \"#utility.yul\":1997:2006   */\n      dup4\n        /* \"#utility.yul\":1988:1995   */\n      dup6\n        /* \"#utility.yul\":1984:2007   */\n      sub\n        /* \"#utility.yul\":1980:2012   */\n      slt\n        /* \"#utility.yul\":1977:2096   */\n      iszero\n      tag_93\n      jumpi\n        /* \"#utility.yul\":2015:2094   */\n      tag_94\n      tag_54\n      jump\t// in\n    tag_94:\n        /* \"#utility.yul\":1977:2096   */\n    tag_93:\n        /* \"#utility.yul\":2135:2136   */\n      0x00\n        /* \"#utility.yul\":2160:2213   */\n      tag_95\n        /* \"#utility.yul\":2205:2212   */\n      dup6\n        /* \"#utility.yul\":2196:2202   */\n      dup3\n        /* \"#utility.yul\":2185:2194   */\n      dup7\n        /* \"#utility.yul\":2181:2203   */\n      add\n        /* \"#utility.yul\":2160:2213   */\n      tag_63\n      jump\t// in\n    tag_95:\n        /* \"#utility.yul\":2150:2213   */\n      swap3\n      pop\n        /* \"#utility.yul\":2106:2223   */\n      pop\n        /* \"#utility.yul\":2262:2264   */\n      0x20\n        /* \"#utility.yul\":2288:2341   */\n      tag_96\n        /* \"#utility.yul\":2333:2340   */\n      dup6\n        /* \"#utility.yul\":2324:2330   */\n      dup3\n        /* \"#utility.yul\":2313:2322   */\n      dup7\n        /* \"#utility.yul\":2309:2331   */\n      add\n        /* \"#utility.yul\":2288:2341   */\n      tag_59\n      jump\t// in\n    tag_96:\n        /* \"#utility.yul\":2278:2341   */\n      swap2\n      pop\n        /* \"#utility.yul\":2233:2351   */\n      pop\n        /* \"#utility.yul\":1884:2358   */\n      swap3\n      pop\n      swap3\n      swap1\n      pop\n      jump\t// out\n        /* \"#utility.yul\":2364:2693   */\n    tag_30:\n        /* \"#utility.yul\":2423:2429   */\n      0x00\n        /* \"#utility.yul\":2472:2474   */\n      0x20\n        /* \"#utility.yul\":2460:2469   */\n      dup3\n        /* \"#utility.yul\":2451:2458   */\n      dup5\n        /* \"#utility.yul\":2447:2470   */\n      sub\n        /* \"#utility.yul\":2443:2475   */\n      slt\n        /* \"#utility.yul\":2440:2559   */\n      iszero\n      tag_98\n      jumpi\n        /* \"#utility.yul\":2478:2557   */\n      tag_99\n      tag_54\n      jump\t// in\n    tag_99:\n        /* \"#utility.yul\":2440:2559   */\n    tag_98:\n        /* \"#utility.yul\":2598:2599   */\n      0x00\n        /* \"#utility.yul\":2623:2676   */\n      tag_100\n        /* \"#utility.yul\":2668:2675   */\n      dup5\n        /* \"#utility.yul\":2659:2665   */\n      dup3\n        /* \"#utility.yul\":2648:2657   */\n      dup6\n        /* \"#utility.yul\":2644:2666   */\n      add\n        /* \"#utility.yul\":2623:2676   */\n      tag_63\n      jump\t// in\n    tag_100:\n        /* \"#utility.yul\":2613:2676   */\n      swap2\n      pop\n        /* \"#utility.yul\":2569:2686   */\n      pop\n        /* \"#utility.yul\":2364:2693   */\n      swap3\n      swap2\n      pop\n      pop\n      jump\t// out\n        /* \"#utility.yul\":2699:2879   */\n    tag_64:\n        /* \"#utility.yul\":2747:2824   */\n      0x4e487b7100000000000000000000000000000000000000000000000000000000\n        /* \"#utility.yul\":2744:2745   */\n      0x00\n        /* \"#utility.yul\":2737:2825   */\n      mstore\n        /* \"#utility.yul\":2844:2848   */\n      0x11\n        /* \"#utility.yul\":2841:2842   */\n      0x04\n        /* \"#utility.yul\":2834:2849   */\n      mstore\n        /* \"#utility.yul\":2868:2872   */\n      0x24\n        /* \"#utility.yul\":2865:2866   */\n      0x00\n        /* \"#utility.yul\":2858:2873   */\n      revert\n        /* \"#utility.yul\":2885:3079   */\n    tag_41:\n        /* \"#utility.yul\":2925:2929   */\n      0x00\n        /* \"#utility.yul\":2945:2965   */\n      tag_103\n        /* \"#utility.yul\":2963:2964   */\n      dup3\n        /* \"#utility.yul\":2945:2965   */\n      tag_60\n      jump\t// in\n    tag_103:\n        /* \"#utility.yul\":2940:2965   */\n      swap2\n      pop\n        /* \"#utility.yul\":2979:2999   */\n      tag_104\n        /* \"#utility.yul\":2997:2998   */\n      dup4\n        /* \"#utility.yul\":2979:2999   */\n      tag_60\n      jump\t// in\n    tag_104:\n        /* \"#utility.yul\":2974:2999   */\n      swap3\n      pop\n        /* \"#utility.yul\":3023:3024   */\n      dup3\n        /* \"#utility.yul\":3020:3021   */\n      dup3\n        /* \"#utility.yul\":3016:3025   */\n      sub\n        /* \"#utility.yul\":3008:3025   */\n      swap1\n      pop\n        /* \"#utility.yul\":3047:3048   */\n      dup2\n        /* \"#utility.yul\":3041:3045   */\n      dup2\n        /* \"#utility.yul\":3038:3049   */\n      gt\n        /* \"#utility.yul\":3035:3072   */\n      iszero\n      tag_105\n      jumpi\n        /* \"#utility.yul\":3052:3070   */\n      tag_106\n      tag_64\n      jump\t// in\n    tag_106:\n        /* \"#utility.yul\":3035:3072   */\n    tag_105:\n        /* \"#utility.yul\":2885:3079   */\n      swap3\n      swap2\n      pop\n      pop\n      jump\t// out\n        /* \"#utility.yul\":3085:3276   */\n    tag_43:\n        /* \"#utility.yul\":3125:3128   */\n      0x00\n        /* \"#utility.yul\":3144:3164   */\n      tag_108\n        /* \"#utility.yul\":3162:3163   */\n      dup3\n        /* \"#utility.yul\":3144:3164   */\n      tag_60\n      jump\t// in\n    tag_108:\n        /* \"#utility.yul\":3139:3164   */\n      swap2\n      pop\n        /* \"#utility.yul\":3178:3198   */\n      tag_109\n        /* \"#utility.yul\":3196:3197   */\n      dup4\n        /* \"#utility.yul\":3178:3198   */\n      tag_60\n      jump\t// in\n    tag_109:\n        /* \"#utility.yul\":3173:3198   */\n      swap3\n      pop\n        /* \"#utility.yul\":3221:3222   */\n      dup3\n        /* \"#utility.yul\":3218:3219   */\n      dup3\n        /* \"#utility.yul\":3214:3223   */\n      add\n        /* \"#utility.yul\":3207:3223   */\n      swap1\n      pop\n        /* \"#utility.yul\":3242:3245   */\n      dup1\n        /* \"#utility.yul\":3239:3240   */\n      dup3\n        /* \"#utility.yul\":3236:3246   */\n      gt\n        /* \"#utility.yul\":3233:3269   */\n      iszero\n      tag_110\n      jumpi\n        /* \"#utility.yul\":3249:3267   */\n      tag_111\n      tag_64\n      jump\t// in\n    tag_111:\n        /* \"#utility.yul\":3233:3269   */\n    tag_110:\n        /* \"#utility.yul\":3085:3276   */\n      swap3\n      swap2\n      pop\n      pop\n      jump\t// out\n        /* \"#utility.yul\":3282:3400   */\n    tag_65:\n        /* \"#utility.yul\":3369:3393   */\n      tag_113\n        /* \"#utility.yul\":3387:3392   */\n      dup2\n        /* \"#utility.yul\":3369:3393   */\n      tag_57\n      jump\t// in\n    tag_113:\n        /* \"#utility.yul\":3364:3367   */\n      dup3\n        /* \"#utility.yul\":3357:3394   */\n      mstore\n        /* \"#utility.yul\":3282:3400   */\n      pop\n      pop\n      jump\t// out\n        /* \"#utility.yul\":3406:3738   */\n    tag_45:\n        /* \"#utility.yul\":3527:3531   */\n      0x00\n        /* \"#utility.yul\":3565:3567   */\n      0x40\n        /* \"#utility.yul\":3554:3563   */\n      dup3\n        /* \"#utility.yul\":3550:3568   */\n      add\n        /* \"#utility.yul\":3542:3568   */\n      swap1\n      pop\n        /* \"#utility.yul\":3578:3649   */\n      tag_115\n        /* \"#utility.yul\":3646:3647   */\n      0x00\n        /* \"#utility.yul\":3635:3644   */\n      dup4\n        /* \"#utility.yul\":3631:3648   */\n      add\n        /* \"#utility.yul\":3622:3628   */\n      dup6\n        /* \"#utility.yul\":3578:3649   */\n      tag_61\n      jump\t// in\n    tag_115:\n        /* \"#utility.yul\":3659:3731   */\n      tag_116\n        /* \"#utility.yul\":3727:3729   */\n      0x20\n        /* \"#utility.yul\":3716:3725   */\n      dup4\n        /* \"#utility.yul\":3712:3730   */\n      add\n        /* \"#utility.yul\":3703:3709   */\n      dup5\n        /* \"#utility.yul\":3659:3731   */\n      tag_65\n      jump\t// in\n    tag_116:\n        /* \"#utility.yul\":3406:3738   */\n      swap4\n      swap3\n      pop\n      pop\n      pop\n      jump\t// out\n\n    auxdata: 0xa26469706673582212205b44f7fd49e58d277ef0214e4f81c5303d04bc40ef7b0ffbf2f2feacce246e0464736f6c63430008110033\n}\n",
				"bytecode": {
					"linkReferences": {},
					"object": "60a060405261271060005534801561001657600080fd5b503373ffffffffffffffffffffffffffffffffffffffff1660808173ffffffffffffffffffffffffffffffffffffffff16815250506000546002600060805173ffffffffffffffffffffffffffffffffffffffff1673ffffffffffffffffffffffffffffffffffffffff168152602001908152602001600020819055506080516106936100bc6000396000818161016d01528181610310015261038101526106936000f3fe608060405234801561001057600080fd5b50600436106100625760003560e01c806309fdcb7d1461006757806327e235e3146100975780634e7531af146100c7578063c4e41b22146100d1578063e8346aad146100ef578063eb912a411461010b575b600080fd5b610081600480360381019061007c9190610494565b61013b565b60405161008e91906104da565b60405180910390f35b6100b160048036038101906100ac9190610494565b610153565b6040516100be91906104da565b60405180910390f35b6100cf61016b565b005b6100d96101cd565b6040516100e691906104da565b60405180910390f35b61010960048036038101906101049190610521565b6101d6565b005b61012560048036038101906101209190610561565b61030c565b60405161013291906104da565b60405180910390f35b60016020528060005260406000206000915090505481565b60026020528060005260406000206000915090505481565b7f000000000000000000000000000000000000000000000000000000000000000073ffffffffffffffffffffffffffffffffffffffff163373ffffffffffffffffffffffffffffffffffffffff16036101cb576101c96103e861030c565b505b565b60008054905090565b81600260003373ffffffffffffffffffffffffffffffffffffffff1673ffffffffffffffffffffffffffffffffffffffff1681526020019081526020016000205411156103075781600260003373ffffffffffffffffffffffffffffffffffffffff1673ffffffffffffffffffffffffffffffffffffffff168152602001908152602001600020600082825461026c91906105bd565b9250508190555081600260008373ffffffffffffffffffffffffffffffffffffffff1673ffffffffffffffffffffffffffffffffffffffff16815260200190815260200160002060008282546102c291906105f1565b925050819055507f1bab39331027605a94d5d4076658113667ed0f93f2164fa8143eb1ef782d7fa182826040516102fa929190610634565b60405180910390a1610308565b5b5050565b60007f000000000000000000000000000000000000000000000000000000000000000073ffffffffffffffffffffffffffffffffffffffff163373ffffffffffffffffffffffffffffffffffffffff160361042c5760008260005461037191906105f1565b90508060008190555082600260007f000000000000000000000000000000000000000000000000000000000000000073ffffffffffffffffffffffffffffffffffffffff1673ffffffffffffffffffffffffffffffffffffffff16815260200190815260200160002060008282546103e991906105f1565b925050819055507f4b4cf0ee53bd94681ff4f0a7493774a4079a4dc2a80a6ed73b4788381fdb24738160405161041f91906104da565b60405180910390a1809150505b919050565b600080fd5b600073ffffffffffffffffffffffffffffffffffffffff82169050919050565b600061046182610436565b9050919050565b61047181610456565b811461047c57600080fd5b50565b60008135905061048e81610468565b92915050565b6000602082840312156104aa576104a9610431565b5b60006104b88482850161047f565b91505092915050565b6000819050919050565b6104d4816104c1565b82525050565b60006020820190506104ef60008301846104cb565b92915050565b6104fe816104c1565b811461050957600080fd5b50565b60008135905061051b816104f5565b92915050565b6000806040838503121561053857610537610431565b5b60006105468582860161050c565b92505060206105578582860161047f565b9150509250929050565b60006020828403121561057757610576610431565b5b60006105858482850161050c565b91505092915050565b7f4e487b7100000000000000000000000000000000000000000000000000000000600052601160045260246000fd5b60006105c8826104c1565b91506105d3836104c1565b92508282039050818111156105eb576105ea61058e565b5b92915050565b60006105fc826104c1565b9150610607836104c1565b925082820190508082111561061f5761061e61058e565b5b92915050565b61062e81610456565b82525050565b600060408201905061064960008301856104cb565b6106566020830184610625565b939250505056fea26469706673582212205b44f7fd49e58d277ef0214e4f81c5303d04bc40ef7b0ffbf2f2feacce246e0464736f6c63430008110033",
					"opcodes": "PUSH1 0xA0 PUSH1 0x40 MSTORE PUSH2 0x2710 PUSH1 0x0 SSTORE CALLVALUE DUP1 ISZERO PUSH2 0x16 JUMPI PUSH1 0x0 DUP1 REVERT JUMPDEST POP CALLER PUSH20 0xFFFFFFFFFFFFFFFFFFFFFFFFFFFFFFFFFFFFFFFF AND PUSH1 0x80 DUP2 PUSH20 0xFFFFFFFFFFFFFFFFFFFFFFFFFFFFFFFFFFFFFFFF AND DUP2 MSTORE POP POP PUSH1 0x0 SLOAD PUSH1 0x2 PUSH1 0x0 PUSH1 0x80 MLOAD PUSH20 0xFFFFFFFFFFFFFFFFFFFFFFFFFFFFFFFFFFFFFFFF AND PUSH20 0xFFFFFFFFFFFFFFFFFFFFFFFFFFFFFFFFFFFFFFFF AND DUP2 MSTORE PUSH1 0x20 ADD SWAP1 DUP2 MSTORE PUSH1 0x20 ADD PUSH1 0x0 KECCAK256 DUP2 SWAP1 SSTORE POP PUSH1 0x80 MLOAD PUSH2 0x693 PUSH2 0xBC PUSH1 0x0 CODECOPY PUSH1 0x0 DUP2 DUP2 PUSH2 0x16D ADD MSTORE DUP2 DUP2 PUSH2 0x310 ADD MSTORE PUSH2 0x381 ADD MSTORE PUSH2 0x693 PUSH1 0x0 RETURN INVALID PUSH1 0x80 PUSH1 0x40 MSTORE CALLVALUE DUP1 ISZERO PUSH2 0x10 JUMPI PUSH1 0x0 DUP1 REVERT JUMPDEST POP PUSH1 0x4 CALLDATASIZE LT PUSH2 0x62 JUMPI PUSH1 0x0 CALLDATALOAD PUSH1 0xE0 SHR DUP1 PUSH4 0x9FDCB7D EQ PUSH2 0x67 JUMPI DUP1 PUSH4 0x27E235E3 EQ PUSH2 0x97 JUMPI DUP1 PUSH4 0x4E7531AF EQ PUSH2 0xC7 JUMPI DUP1 PUSH4 0xC4E41B22 EQ PUSH2 0xD1 JUMPI DUP1 PUSH4 0xE8346AAD EQ PUSH2 0xEF JUMPI DUP1 PUSH4 0xEB912A41 EQ PUSH2 0x10B JUMPI JUMPDEST PUSH1 0x0 DUP1 REVERT JUMPDEST PUSH2 0x81 PUSH1 0x4 DUP1 CALLDATASIZE SUB DUP2 ADD SWAP1 PUSH2 0x7C SWAP2 SWAP1 PUSH2 0x494 JUMP JUMPDEST PUSH2 0x13B JUMP JUMPDEST PUSH1 0x40 MLOAD PUSH2 0x8E SWAP2 SWAP1 PUSH2 0x4DA JUMP JUMPDEST PUSH1 0x40 MLOAD DUP1 SWAP2 SUB SWAP1 RETURN JUMPDEST PUSH2 0xB1 PUSH1 0x4 DUP1 CALLDATASIZE SUB DUP2 ADD SWAP1 PUSH2 0xAC SWAP2 SWAP1 PUSH2 0x494 JUMP JUMPDEST PUSH2 0x153 JUMP JUMPDEST PUSH1 0x40 MLOAD PUSH2 0xBE SWAP2 SWAP1 PUSH2 0x4DA JUMP JUMPDEST PUSH1 0x40 MLOAD DUP1 SWAP2 SUB SWAP1 RETURN JUMPDEST PUSH2 0xCF PUSH2 0x16B JUMP JUMPDEST STOP JUMPDEST PUSH2 0xD9 PUSH2 0x1CD JUMP JUMPDEST PUSH1 0x40 MLOAD PUSH2 0xE6 SWAP2 SWAP1 PUSH2 0x4DA JUMP JUMPDEST PUSH1 0x40 MLOAD DUP1 SWAP2 SUB SWAP1 RETURN JUMPDEST PUSH2 0x109 PUSH1 0x4 DUP1 CALLDATASIZE SUB DUP2 ADD SWAP1 PUSH2 0x104 SWAP2 SWAP1 PUSH2 0x521 JUMP JUMPDEST PUSH2 0x1D6 JUMP JUMPDEST STOP JUMPDEST PUSH2 0x125 PUSH1 0x4 DUP1 CALLDATASIZE SUB DUP2 ADD SWAP1 PUSH2 0x120 SWAP2 SWAP1 PUSH2 0x561 JUMP JUMPDEST PUSH2 0x30C JUMP JUMPDEST PUSH1 0x40 MLOAD PUSH2 0x132 SWAP2 SWAP1 PUSH2 0x4DA JUMP JUMPDEST PUSH1 0x40 MLOAD DUP1 SWAP2 SUB SWAP1 RETURN JUMPDEST PUSH1 0x1 PUSH1 0x20 MSTORE DUP1 PUSH1 0x0 MSTORE PUSH1 0x40 PUSH1 0x0 KECCAK256 PUSH1 0x0 SWAP2 POP SWAP1 POP SLOAD DUP2 JUMP JUMPDEST PUSH1 0x2 PUSH1 0x20 MSTORE DUP1 PUSH1 0x0 MSTORE PUSH1 0x40 PUSH1 0x0 KECCAK256 PUSH1 0x0 SWAP2 POP SWAP1 POP SLOAD DUP2 JUMP JUMPDEST PUSH32 0x0 PUSH20 0xFFFFFFFFFFFFFFFFFFFFFFFFFFFFFFFFFFFFFFFF AND CALLER PUSH20 0xFFFFFFFFFFFFFFFFFFFFFFFFFFFFFFFFFFFFFFFF AND SUB PUSH2 0x1CB JUMPI PUSH2 0x1C9 PUSH2 0x3E8 PUSH2 0x30C JUMP JUMPDEST POP JUMPDEST JUMP JUMPDEST PUSH1 0x0 DUP1 SLOAD SWAP1 POP SWAP1 JUMP JUMPDEST DUP2 PUSH1 0x2 PUSH1 0x0 CALLER PUSH20 0xFFFFFFFFFFFFFFFFFFFFFFFFFFFFFFFFFFFFFFFF AND PUSH20 0xFFFFFFFFFFFFFFFFFFFFFFFFFFFFFFFFFFFFFFFF AND DUP2 MSTORE PUSH1 0x20 ADD SWAP1 DUP2 MSTORE PUSH1 0x20 ADD PUSH1 0x0 KECCAK256 SLOAD GT ISZERO PUSH2 0x307 JUMPI DUP2 PUSH1 0x2 PUSH1 0x0 CALLER PUSH20 0xFFFFFFFFFFFFFFFFFFFFFFFFFFFFFFFFFFFFFFFF AND PUSH20 0xFFFFFFFFFFFFFFFFFFFFFFFFFFFFFFFFFFFFFFFF AND DUP2 MSTORE PUSH1 0x20 ADD SWAP1 DUP2 MSTORE PUSH1 0x20 ADD PUSH1 0x0 KECCAK256 PUSH1 0x0 DUP3 DUP3 SLOAD PUSH2 0x26C SWAP2 SWAP1 PUSH2 0x5BD JUMP JUMPDEST SWAP3 POP POP DUP2 SWAP1 SSTORE POP DUP2 PUSH1 0x2 PUSH1 0x0 DUP4 PUSH20 0xFFFFFFFFFFFFFFFFFFFFFFFFFFFFFFFFFFFFFFFF AND PUSH20 0xFFFFFFFFFFFFFFFFFFFFFFFFFFFFFFFFFFFFFFFF AND DUP2 MSTORE PUSH1 0x20 ADD SWAP1 DUP2 MSTORE PUSH1 0x20 ADD PUSH1 0x0 KECCAK256 PUSH1 0x0 DUP3 DUP3 SLOAD PUSH2 0x2C2 SWAP2 SWAP1 PUSH2 0x5F1 JUMP JUMPDEST SWAP3 POP POP DUP2 SWAP1 SSTORE POP PUSH32 0x1BAB39331027605A94D5D4076658113667ED0F93F2164FA8143EB1EF782D7FA1 DUP3 DUP3 PUSH1 0x40 MLOAD PUSH2 0x2FA SWAP3 SWAP2 SWAP1 PUSH2 0x634 JUMP JUMPDEST PUSH1 0x40 MLOAD DUP1 SWAP2 SUB SWAP1 LOG1 PUSH2 0x308 JUMP JUMPDEST JUMPDEST POP POP JUMP JUMPDEST PUSH1 0x0 PUSH32 0x0 PUSH20 0xFFFFFFFFFFFFFFFFFFFFFFFFFFFFFFFFFFFFFFFF AND CALLER PUSH20 0xFFFFFFFFFFFFFFFFFFFFFFFFFFFFFFFFFFFFFFFF AND SUB PUSH2 0x42C JUMPI PUSH1 0x0 DUP3 PUSH1 0x0 SLOAD PUSH2 0x371 SWAP2 SWAP1 PUSH2 0x5F1 JUMP JUMPDEST SWAP1 POP DUP1 PUSH1 0x0 DUP2 SWAP1 SSTORE POP DUP3 PUSH1 0x2 PUSH1 0x0 PUSH32 0x0 PUSH20 0xFFFFFFFFFFFFFFFFFFFFFFFFFFFFFFFFFFFFFFFF AND PUSH20 0xFFFFFFFFFFFFFFFFFFFFFFFFFFFFFFFFFFFFFFFF AND DUP2 MSTORE PUSH1 0x20 ADD SWAP1 DUP2 MSTORE PUSH1 0x20 ADD PUSH1 0x0 KECCAK256 PUSH1 0x0 DUP3 DUP3 SLOAD PUSH2 0x3E9 SWAP2 SWAP1 PUSH2 0x5F1 JUMP JUMPDEST SWAP3 POP POP DUP2 SWAP1 SSTORE POP PUSH32 0x4B4CF0EE53BD94681FF4F0A7493774A4079A4DC2A80A6ED73B4788381FDB2473 DUP2 PUSH1 0x40 MLOAD PUSH2 0x41F SWAP2 SWAP1 PUSH2 0x4DA JUMP JUMPDEST PUSH1 0x40 MLOAD DUP1 SWAP2 SUB SWAP1 LOG1 DUP1 SWAP2 POP POP JUMPDEST SWAP2 SWAP1 POP JUMP JUMPDEST PUSH1 0x0 DUP1 REVERT JUMPDEST PUSH1 0x0 PUSH20 0xFFFFFFFFFFFFFFFFFFFFFFFFFFFFFFFFFFFFFFFF DUP3 AND SWAP1 POP SWAP2 SWAP1 POP JUMP JUMPDEST PUSH1 0x0 PUSH2 0x461 DUP3 PUSH2 0x436 JUMP JUMPDEST SWAP1 POP SWAP2 SWAP1 POP JUMP JUMPDEST PUSH2 0x471 DUP2 PUSH2 0x456 JUMP JUMPDEST DUP2 EQ PUSH2 0x47C JUMPI PUSH1 0x0 DUP1 REVERT JUMPDEST POP JUMP JUMPDEST PUSH1 0x0 DUP2 CALLDATALOAD SWAP1 POP PUSH2 0x48E DUP2 PUSH2 0x468 JUMP JUMPDEST SWAP3 SWAP2 POP POP JUMP JUMPDEST PUSH1 0x0 PUSH1 0x20 DUP3 DUP5 SUB SLT ISZERO PUSH2 0x4AA JUMPI PUSH2 0x4A9 PUSH2 0x431 JUMP JUMPDEST JUMPDEST PUSH1 0x0 PUSH2 0x4B8 DUP5 DUP3 DUP6 ADD PUSH2 0x47F JUMP JUMPDEST SWAP2 POP POP SWAP3 SWAP2 POP POP JUMP JUMPDEST PUSH1 0x0 DUP2 SWAP1 POP SWAP2 SWAP1 POP JUMP JUMPDEST PUSH2 0x4D4 DUP2 PUSH2 0x4C1 JUMP JUMPDEST DUP3 MSTORE POP POP JUMP JUMPDEST PUSH1 0x0 PUSH1 0x20 DUP3 ADD SWAP1 POP PUSH2 0x4EF PUSH1 0x0 DUP4 ADD DUP5 PUSH2 0x4CB JUMP JUMPDEST SWAP3 SWAP2 POP POP JUMP JUMPDEST PUSH2 0x4FE DUP2 PUSH2 0x4C1 JUMP JUMPDEST DUP2 EQ PUSH2 0x509 JUMPI PUSH1 0x0 DUP1 REVERT JUMPDEST POP JUMP JUMPDEST PUSH1 0x0 DUP2 CALLDATALOAD SWAP1 POP PUSH2 0x51B DUP2 PUSH2 0x4F5 JUMP JUMPDEST SWAP3 SWAP2 POP POP JUMP JUMPDEST PUSH1 0x0 DUP1 PUSH1 0x40 DUP4 DUP6 SUB SLT ISZERO PUSH2 0x538 JUMPI PUSH2 0x537 PUSH2 0x431 JUMP JUMPDEST JUMPDEST PUSH1 0x0 PUSH2 0x546 DUP6 DUP3 DUP7 ADD PUSH2 0x50C JUMP JUMPDEST SWAP3 POP POP PUSH1 0x20 PUSH2 0x557 DUP6 DUP3 DUP7 ADD PUSH2 0x47F JUMP JUMPDEST SWAP2 POP POP SWAP3 POP SWAP3 SWAP1 POP JUMP JUMPDEST PUSH1 0x0 PUSH1 0x20 DUP3 DUP5 SUB SLT ISZERO PUSH2 0x577 JUMPI PUSH2 0x576 PUSH2 0x431 JUMP JUMPDEST JUMPDEST PUSH1 0x0 PUSH2 0x585 DUP5 DUP3 DUP6 ADD PUSH2 0x50C JUMP JUMPDEST SWAP2 POP POP SWAP3 SWAP2 POP POP JUMP JUMPDEST PUSH32 0x4E487B7100000000000000000000000000000000000000000000000000000000 PUSH1 0x0 MSTORE PUSH1 0x11 PUSH1 0x4 MSTORE PUSH1 0x24 PUSH1 0x0 REVERT JUMPDEST PUSH1 0x0 PUSH2 0x5C8 DUP3 PUSH2 0x4C1 JUMP JUMPDEST SWAP2 POP PUSH2 0x5D3 DUP4 PUSH2 0x4C1 JUMP JUMPDEST SWAP3 POP DUP3 DUP3 SUB SWAP1 POP DUP2 DUP2 GT ISZERO PUSH2 0x5EB JUMPI PUSH2 0x5EA PUSH2 0x58E JUMP JUMPDEST JUMPDEST SWAP3 SWAP2 POP POP JUMP JUMPDEST PUSH1 0x0 PUSH2 0x5FC DUP3 PUSH2 0x4C1 JUMP JUMPDEST SWAP2 POP PUSH2 0x607 DUP4 PUSH2 0x4C1 JUMP JUMPDEST SWAP3 POP DUP3 DUP3 ADD SWAP1 POP DUP1 DUP3 GT ISZERO PUSH2 0x61F JUMPI PUSH2 0x61E PUSH2 0x58E JUMP JUMPDEST JUMPDEST SWAP3 SWAP2 POP POP JUMP JUMPDEST PUSH2 0x62E DUP2 PUSH2 0x456 JUMP JUMPDEST DUP3 MSTORE POP POP JUMP JUMPDEST PUSH1 0x0 PUSH1 0x40 DUP3 ADD SWAP1 POP PUSH2 0x649 PUSH1 0x0 DUP4 ADD DUP6 PUSH2 0x4CB JUMP JUMPDEST PUSH2 0x656 PUSH1 0x20 DUP4 ADD DUP5 PUSH2 0x625 JUMP JUMPDEST SWAP4 SWAP3 POP POP POP JUMP INVALID LOG2 PUSH5 0x6970667358 0x22 SLT KECCAK256 JUMPDEST DIFFICULTY 0xF7 REVERT 0x49 0xE5 DUP14 0x27 PUSH31 0xF0214E4F81C5303D04BC40EF7B0FFBF2F2FEACCE246E0464736F6C63430008 GT STOP CALLER "
				},
				"gasEstimates": {
					"creation": {
						"codeDepositCost": "336600",
						"executionCost": "infinite",
						"totalCost": "infinite"
					},
					"external": {
						"balanceByAddress(address)": "2792",
						"balances(address)": "2814",
						"getTotalSupply()": "2481",
						"incrementTotalSupplyBy(uint256)": "infinite",
						"incrementTotalSupplyByThousand()": "infinite",
						"transferAmountToAddress(uint256,address)": "infinite"
					}
				},
				"methodIdentifiers": {
					"balanceByAddress(address)": "09fdcb7d",
					"balances(address)": "27e235e3",
					"getTotalSupply()": "c4e41b22",
					"incrementTotalSupplyBy(uint256)": "eb912a41",
					"incrementTotalSupplyByThousand()": "4e7531af",
					"transferAmountToAddress(uint256,address)": "e8346aad"
				}
			},
			"storageLayout": {
				"storage": [
					{
						"astId": 6,
						"contract": "Users/eggs/Desktop/SolidityBootcamp/04 - Solidity /VolcanoCoin.sol:VolcanoCoin",
						"label": "totalSupply",
						"offset": 0,
						"slot": "0",
						"type": "t_uint256"
					},
					{
						"astId": 10,
						"contract": "Users/eggs/Desktop/SolidityBootcamp/04 - Solidity /VolcanoCoin.sol:VolcanoCoin",
						"label": "balanceByAddress",
						"offset": 0,
						"slot": "1",
						"type": "t_mapping(t_address,t_uint256)"
					},
					{
						"astId": 14,
						"contract": "Users/eggs/Desktop/SolidityBootcamp/04 - Solidity /VolcanoCoin.sol:VolcanoCoin",
						"label": "balances",
						"offset": 0,
						"slot": "2",
						"type": "t_mapping(t_address,t_uint256)"
					}
				],
				"types": {
					"t_address": {
						"encoding": "inplace",
						"label": "address",
						"numberOfBytes": "20"
					},
					"t_mapping(t_address,t_uint256)": {
						"encoding": "mapping",
						"key": "t_address",
						"label": "mapping(address => uint256)",
						"numberOfBytes": "32",
						"value": "t_uint256"
					},
					"t_uint256": {
						"encoding": "inplace",
						"label": "uint256",
						"numberOfBytes": "32"
					}
				}
			},
			"userdoc": {
				"kind": "user",
				"methods": {},
				"version": 1
			}
		}
	}
}