{
	"Users/eggs/Desktop/SolidityBootcamp/04 - Solidity /VolcanoCoin.sol": {
		"VolcanoCoin": {
			"abi": [
				{
					"inputs": [],
					"stateMutability": "nonpayable",
					"type": "constructor"
				},
				{
					"inputs": [],
					"name": "getAddress",
					"outputs": [
						{
							"internalType": "address",
							"name": "",
							"type": "address"
						}
					],
					"stateMutability": "view",
					"type": "function"
				},
				{
					"inputs": [],
					"name": "getTotalSupply",
					"outputs": [
						{
							"internalType": "uint256",
							"name": "",
							"type": "uint256"
						}
					],
					"stateMutability": "view",
					"type": "function"
				},
				{
					"inputs": [],
					"name": "incrementTotalSupplyByThousand",
					"outputs": [
						{
							"internalType": "uint256",
							"name": "",
							"type": "uint256"
						}
					],
					"stateMutability": "nonpayable",
					"type": "function"
				},
				{
					"inputs": [
						{
							"internalType": "uint256",
							"name": "num",
							"type": "uint256"
						}
					],
					"name": "store",
					"outputs": [],
					"stateMutability": "nonpayable",
					"type": "function"
				}
			],
			"devdoc": {
				"kind": "dev",
				"methods": {},
				"version": 1
			},
			"evm": {
				"assembly": "    /* \"Users/eggs/Desktop/SolidityBootcamp/04 - Solidity /VolcanoCoin.sol\":66:890  contract VolcanoCoin {... */\n  mstore(0x40, 0x80)\n    /* \"Users/eggs/Desktop/SolidityBootcamp/04 - Solidity /VolcanoCoin.sol\":336:385  constructor() {... */\n  callvalue\n  dup1\n  iszero\n  tag_1\n  jumpi\n  0x00\n  dup1\n  revert\ntag_1:\n  pop\n    /* \"Users/eggs/Desktop/SolidityBootcamp/04 - Solidity /VolcanoCoin.sol\":368:378  msg.sender */\n  caller\n    /* \"Users/eggs/Desktop/SolidityBootcamp/04 - Solidity /VolcanoCoin.sol\":360:365  owner */\n  0x00\n  dup1\n    /* \"Users/eggs/Desktop/SolidityBootcamp/04 - Solidity /VolcanoCoin.sol\":360:378  owner = msg.sender */\n  0x0100\n  exp\n  dup2\n  sload\n  dup2\n  0xffffffffffffffffffffffffffffffffffffffff\n  mul\n  not\n  and\n  swap1\n  dup4\n  0xffffffffffffffffffffffffffffffffffffffff\n  and\n  mul\n  or\n  swap1\n  sstore\n  pop\n    /* \"Users/eggs/Desktop/SolidityBootcamp/04 - Solidity /VolcanoCoin.sol\":66:890  contract VolcanoCoin {... */\n  dataSize(sub_0)\n  dup1\n  dataOffset(sub_0)\n  0x00\n  codecopy\n  0x00\n  return\nstop\n\nsub_0: assembly {\n        /* \"Users/eggs/Desktop/SolidityBootcamp/04 - Solidity /VolcanoCoin.sol\":66:890  contract VolcanoCoin {... */\n      mstore(0x40, 0x80)\n      callvalue\n      dup1\n      iszero\n      tag_1\n      jumpi\n      0x00\n      dup1\n      revert\n    tag_1:\n      pop\n      jumpi(tag_2, lt(calldatasize, 0x04))\n      shr(0xe0, calldataload(0x00))\n      dup1\n      0x38cc4831\n      eq\n      tag_3\n      jumpi\n      dup1\n      0x4e7531af\n      eq\n      tag_4\n      jumpi\n      dup1\n      0x6057361d\n      eq\n      tag_5\n      jumpi\n      dup1\n      0xc4e41b22\n      eq\n      tag_6\n      jumpi\n    tag_2:\n      0x00\n      dup1\n      revert\n        /* \"Users/eggs/Desktop/SolidityBootcamp/04 - Solidity /VolcanoCoin.sol\":660:837  function getAddress() public view returns (address) {... */\n    tag_3:\n      tag_7\n      tag_8\n      jump\t// in\n    tag_7:\n      mload(0x40)\n      tag_9\n      swap2\n      swap1\n      tag_10\n      jump\t// in\n    tag_9:\n      mload(0x40)\n      dup1\n      swap2\n      sub\n      swap1\n      return\n        /* \"Users/eggs/Desktop/SolidityBootcamp/04 - Solidity /VolcanoCoin.sol\":535:650  function incrementTotalSupplyByThousand() public returns (uint) {... */\n    tag_4:\n      tag_11\n      tag_12\n      jump\t// in\n    tag_11:\n      mload(0x40)\n      tag_13\n      swap2\n      swap1\n      tag_14\n      jump\t// in\n    tag_13:\n      mload(0x40)\n      dup1\n      swap2\n      sub\n      swap1\n      return\n        /* \"Users/eggs/Desktop/SolidityBootcamp/04 - Solidity /VolcanoCoin.sol\":843:886  function store(uint256 num) public {... */\n    tag_5:\n      tag_15\n      0x04\n      dup1\n      calldatasize\n      sub\n      dup2\n      add\n      swap1\n      tag_16\n      swap2\n      swap1\n      tag_17\n      jump\t// in\n    tag_16:\n      tag_18\n      jump\t// in\n    tag_15:\n      stop\n        /* \"Users/eggs/Desktop/SolidityBootcamp/04 - Solidity /VolcanoCoin.sol\":393:480  function getTotalSupply() public view returns (uint){... */\n    tag_6:\n      tag_19\n      tag_20\n      jump\t// in\n    tag_19:\n      mload(0x40)\n      tag_21\n      swap2\n      swap1\n      tag_14\n      jump\t// in\n    tag_21:\n      mload(0x40)\n      dup1\n      swap2\n      sub\n      swap1\n      return\n        /* \"Users/eggs/Desktop/SolidityBootcamp/04 - Solidity /VolcanoCoin.sol\":660:837  function getAddress() public view returns (address) {... */\n    tag_8:\n        /* \"Users/eggs/Desktop/SolidityBootcamp/04 - Solidity /VolcanoCoin.sol\":703:710  address */\n      0x00\n        /* \"Users/eggs/Desktop/SolidityBootcamp/04 - Solidity /VolcanoCoin.sol\":740:745  owner */\n      dup1\n      0x00\n      swap1\n      sload\n      swap1\n      0x0100\n      exp\n      swap1\n      div\n      0xffffffffffffffffffffffffffffffffffffffff\n      and\n        /* \"Users/eggs/Desktop/SolidityBootcamp/04 - Solidity /VolcanoCoin.sol\":726:745  msg.sender == owner */\n      0xffffffffffffffffffffffffffffffffffffffff\n      and\n        /* \"Users/eggs/Desktop/SolidityBootcamp/04 - Solidity /VolcanoCoin.sol\":726:736  msg.sender */\n      caller\n        /* \"Users/eggs/Desktop/SolidityBootcamp/04 - Solidity /VolcanoCoin.sol\":726:745  msg.sender == owner */\n      0xffffffffffffffffffffffffffffffffffffffff\n      and\n      sub\n        /* \"Users/eggs/Desktop/SolidityBootcamp/04 - Solidity /VolcanoCoin.sol\":722:831  if (msg.sender == owner) {... */\n      tag_23\n      jumpi\n        /* \"Users/eggs/Desktop/SolidityBootcamp/04 - Solidity /VolcanoCoin.sol\":287:329  0x000000000000000000000000000000000000dEaD */\n      0xdead\n        /* \"Users/eggs/Desktop/SolidityBootcamp/04 - Solidity /VolcanoCoin.sol\":761:777  return BURN_ADDR */\n      swap1\n      pop\n      jump(tag_22)\n        /* \"Users/eggs/Desktop/SolidityBootcamp/04 - Solidity /VolcanoCoin.sol\":722:831  if (msg.sender == owner) {... */\n    tag_23:\n        /* \"Users/eggs/Desktop/SolidityBootcamp/04 - Solidity /VolcanoCoin.sol\":815:820  owner */\n      0x00\n      dup1\n      sload\n      swap1\n      0x0100\n      exp\n      swap1\n      div\n      0xffffffffffffffffffffffffffffffffffffffff\n      and\n        /* \"Users/eggs/Desktop/SolidityBootcamp/04 - Solidity /VolcanoCoin.sol\":808:820  return owner */\n      swap1\n      pop\n        /* \"Users/eggs/Desktop/SolidityBootcamp/04 - Solidity /VolcanoCoin.sol\":660:837  function getAddress() public view returns (address) {... */\n    tag_22:\n      swap1\n      jump\t// out\n        /* \"Users/eggs/Desktop/SolidityBootcamp/04 - Solidity /VolcanoCoin.sol\":535:650  function incrementTotalSupplyByThousand() public returns (uint) {... */\n    tag_12:\n        /* \"Users/eggs/Desktop/SolidityBootcamp/04 - Solidity /VolcanoCoin.sol\":593:597  uint */\n      0x00\n        /* \"Users/eggs/Desktop/SolidityBootcamp/04 - Solidity /VolcanoCoin.sol\":639:643  1000 */\n      0x03e8\n        /* \"Users/eggs/Desktop/SolidityBootcamp/04 - Solidity /VolcanoCoin.sol\":122:127  10000 */\n      0x2710\n        /* \"Users/eggs/Desktop/SolidityBootcamp/04 - Solidity /VolcanoCoin.sol\":625:643  totalSupply + 1000 */\n      tag_26\n      swap2\n      swap1\n      tag_27\n      jump\t// in\n    tag_26:\n        /* \"Users/eggs/Desktop/SolidityBootcamp/04 - Solidity /VolcanoCoin.sol\":618:643  return totalSupply + 1000 */\n      swap1\n      pop\n        /* \"Users/eggs/Desktop/SolidityBootcamp/04 - Solidity /VolcanoCoin.sol\":535:650  function incrementTotalSupplyByThousand() public returns (uint) {... */\n      swap1\n      jump\t// out\n        /* \"Users/eggs/Desktop/SolidityBootcamp/04 - Solidity /VolcanoCoin.sol\":843:886  function store(uint256 num) public {... */\n    tag_18:\n      pop\n      jump\t// out\n        /* \"Users/eggs/Desktop/SolidityBootcamp/04 - Solidity /VolcanoCoin.sol\":393:480  function getTotalSupply() public view returns (uint){... */\n    tag_20:\n        /* \"Users/eggs/Desktop/SolidityBootcamp/04 - Solidity /VolcanoCoin.sol\":440:444  uint */\n      0x00\n        /* \"Users/eggs/Desktop/SolidityBootcamp/04 - Solidity /VolcanoCoin.sol\":122:127  10000 */\n      0x2710\n        /* \"Users/eggs/Desktop/SolidityBootcamp/04 - Solidity /VolcanoCoin.sol\":455:473  return totalSupply */\n      swap1\n      pop\n        /* \"Users/eggs/Desktop/SolidityBootcamp/04 - Solidity /VolcanoCoin.sol\":393:480  function getTotalSupply() public view returns (uint){... */\n      swap1\n      jump\t// out\n        /* \"#utility.yul\":7:133   */\n    tag_30:\n        /* \"#utility.yul\":44:51   */\n      0x00\n        /* \"#utility.yul\":84:126   */\n      0xffffffffffffffffffffffffffffffffffffffff\n        /* \"#utility.yul\":77:82   */\n      dup3\n        /* \"#utility.yul\":73:127   */\n      and\n        /* \"#utility.yul\":62:127   */\n      swap1\n      pop\n        /* \"#utility.yul\":7:133   */\n      swap2\n      swap1\n      pop\n      jump\t// out\n        /* \"#utility.yul\":139:235   */\n    tag_31:\n        /* \"#utility.yul\":176:183   */\n      0x00\n        /* \"#utility.yul\":205:229   */\n      tag_44\n        /* \"#utility.yul\":223:228   */\n      dup3\n        /* \"#utility.yul\":205:229   */\n      tag_30\n      jump\t// in\n    tag_44:\n        /* \"#utility.yul\":194:229   */\n      swap1\n      pop\n        /* \"#utility.yul\":139:235   */\n      swap2\n      swap1\n      pop\n      jump\t// out\n        /* \"#utility.yul\":241:359   */\n    tag_32:\n        /* \"#utility.yul\":328:352   */\n      tag_46\n        /* \"#utility.yul\":346:351   */\n      dup2\n        /* \"#utility.yul\":328:352   */\n      tag_31\n      jump\t// in\n    tag_46:\n        /* \"#utility.yul\":323:326   */\n      dup3\n        /* \"#utility.yul\":316:353   */\n      mstore\n        /* \"#utility.yul\":241:359   */\n      pop\n      pop\n      jump\t// out\n        /* \"#utility.yul\":365:587   */\n    tag_10:\n        /* \"#utility.yul\":458:462   */\n      0x00\n        /* \"#utility.yul\":496:498   */\n      0x20\n        /* \"#utility.yul\":485:494   */\n      dup3\n        /* \"#utility.yul\":481:499   */\n      add\n        /* \"#utility.yul\":473:499   */\n      swap1\n      pop\n        /* \"#utility.yul\":509:580   */\n      tag_48\n        /* \"#utility.yul\":577:578   */\n      0x00\n        /* \"#utility.yul\":566:575   */\n      dup4\n        /* \"#utility.yul\":562:579   */\n      add\n        /* \"#utility.yul\":553:559   */\n      dup5\n        /* \"#utility.yul\":509:580   */\n      tag_32\n      jump\t// in\n    tag_48:\n        /* \"#utility.yul\":365:587   */\n      swap3\n      swap2\n      pop\n      pop\n      jump\t// out\n        /* \"#utility.yul\":593:670   */\n    tag_33:\n        /* \"#utility.yul\":630:637   */\n      0x00\n        /* \"#utility.yul\":659:664   */\n      dup2\n        /* \"#utility.yul\":648:664   */\n      swap1\n      pop\n        /* \"#utility.yul\":593:670   */\n      swap2\n      swap1\n      pop\n      jump\t// out\n        /* \"#utility.yul\":676:794   */\n    tag_34:\n        /* \"#utility.yul\":763:787   */\n      tag_51\n        /* \"#utility.yul\":781:786   */\n      dup2\n        /* \"#utility.yul\":763:787   */\n      tag_33\n      jump\t// in\n    tag_51:\n        /* \"#utility.yul\":758:761   */\n      dup3\n        /* \"#utility.yul\":751:788   */\n      mstore\n        /* \"#utility.yul\":676:794   */\n      pop\n      pop\n      jump\t// out\n        /* \"#utility.yul\":800:1022   */\n    tag_14:\n        /* \"#utility.yul\":893:897   */\n      0x00\n        /* \"#utility.yul\":931:933   */\n      0x20\n        /* \"#utility.yul\":920:929   */\n      dup3\n        /* \"#utility.yul\":916:934   */\n      add\n        /* \"#utility.yul\":908:934   */\n      swap1\n      pop\n        /* \"#utility.yul\":944:1015   */\n      tag_53\n        /* \"#utility.yul\":1012:1013   */\n      0x00\n        /* \"#utility.yul\":1001:1010   */\n      dup4\n        /* \"#utility.yul\":997:1014   */\n      add\n        /* \"#utility.yul\":988:994   */\n      dup5\n        /* \"#utility.yul\":944:1015   */\n      tag_34\n      jump\t// in\n    tag_53:\n        /* \"#utility.yul\":800:1022   */\n      swap3\n      swap2\n      pop\n      pop\n      jump\t// out\n        /* \"#utility.yul\":1109:1226   */\n    tag_36:\n        /* \"#utility.yul\":1218:1219   */\n      0x00\n        /* \"#utility.yul\":1215:1216   */\n      dup1\n        /* \"#utility.yul\":1208:1220   */\n      revert\n        /* \"#utility.yul\":1355:1477   */\n    tag_38:\n        /* \"#utility.yul\":1428:1452   */\n      tag_58\n        /* \"#utility.yul\":1446:1451   */\n      dup2\n        /* \"#utility.yul\":1428:1452   */\n      tag_33\n      jump\t// in\n    tag_58:\n        /* \"#utility.yul\":1421:1426   */\n      dup2\n        /* \"#utility.yul\":1418:1453   */\n      eq\n        /* \"#utility.yul\":1408:1471   */\n      tag_59\n      jumpi\n        /* \"#utility.yul\":1467:1468   */\n      0x00\n        /* \"#utility.yul\":1464:1465   */\n      dup1\n        /* \"#utility.yul\":1457:1469   */\n      revert\n        /* \"#utility.yul\":1408:1471   */\n    tag_59:\n        /* \"#utility.yul\":1355:1477   */\n      pop\n      jump\t// out\n        /* \"#utility.yul\":1483:1622   */\n    tag_39:\n        /* \"#utility.yul\":1529:1534   */\n      0x00\n        /* \"#utility.yul\":1567:1573   */\n      dup2\n        /* \"#utility.yul\":1554:1574   */\n      calldataload\n        /* \"#utility.yul\":1545:1574   */\n      swap1\n      pop\n        /* \"#utility.yul\":1583:1616   */\n      tag_61\n        /* \"#utility.yul\":1610:1615   */\n      dup2\n        /* \"#utility.yul\":1583:1616   */\n      tag_38\n      jump\t// in\n    tag_61:\n        /* \"#utility.yul\":1483:1622   */\n      swap3\n      swap2\n      pop\n      pop\n      jump\t// out\n        /* \"#utility.yul\":1628:1957   */\n    tag_17:\n        /* \"#utility.yul\":1687:1693   */\n      0x00\n        /* \"#utility.yul\":1736:1738   */\n      0x20\n        /* \"#utility.yul\":1724:1733   */\n      dup3\n        /* \"#utility.yul\":1715:1722   */\n      dup5\n        /* \"#utility.yul\":1711:1734   */\n      sub\n        /* \"#utility.yul\":1707:1739   */\n      slt\n        /* \"#utility.yul\":1704:1823   */\n      iszero\n      tag_63\n      jumpi\n        /* \"#utility.yul\":1742:1821   */\n      tag_64\n      tag_36\n      jump\t// in\n    tag_64:\n        /* \"#utility.yul\":1704:1823   */\n    tag_63:\n        /* \"#utility.yul\":1862:1863   */\n      0x00\n        /* \"#utility.yul\":1887:1940   */\n      tag_65\n        /* \"#utility.yul\":1932:1939   */\n      dup5\n        /* \"#utility.yul\":1923:1929   */\n      dup3\n        /* \"#utility.yul\":1912:1921   */\n      dup6\n        /* \"#utility.yul\":1908:1930   */\n      add\n        /* \"#utility.yul\":1887:1940   */\n      tag_39\n      jump\t// in\n    tag_65:\n        /* \"#utility.yul\":1877:1940   */\n      swap2\n      pop\n        /* \"#utility.yul\":1833:1950   */\n      pop\n        /* \"#utility.yul\":1628:1957   */\n      swap3\n      swap2\n      pop\n      pop\n      jump\t// out\n        /* \"#utility.yul\":1963:2143   */\n    tag_40:\n        /* \"#utility.yul\":2011:2088   */\n      0x4e487b7100000000000000000000000000000000000000000000000000000000\n        /* \"#utility.yul\":2008:2009   */\n      0x00\n        /* \"#utility.yul\":2001:2089   */\n      mstore\n        /* \"#utility.yul\":2108:2112   */\n      0x11\n        /* \"#utility.yul\":2105:2106   */\n      0x04\n        /* \"#utility.yul\":2098:2113   */\n      mstore\n        /* \"#utility.yul\":2132:2136   */\n      0x24\n        /* \"#utility.yul\":2129:2130   */\n      0x00\n        /* \"#utility.yul\":2122:2137   */\n      revert\n        /* \"#utility.yul\":2149:2340   */\n    tag_27:\n        /* \"#utility.yul\":2189:2192   */\n      0x00\n        /* \"#utility.yul\":2208:2228   */\n      tag_68\n        /* \"#utility.yul\":2226:2227   */\n      dup3\n        /* \"#utility.yul\":2208:2228   */\n      tag_33\n      jump\t// in\n    tag_68:\n        /* \"#utility.yul\":2203:2228   */\n      swap2\n      pop\n        /* \"#utility.yul\":2242:2262   */\n      tag_69\n        /* \"#utility.yul\":2260:2261   */\n      dup4\n        /* \"#utility.yul\":2242:2262   */\n      tag_33\n      jump\t// in\n    tag_69:\n        /* \"#utility.yul\":2237:2262   */\n      swap3\n      pop\n        /* \"#utility.yul\":2285:2286   */\n      dup3\n        /* \"#utility.yul\":2282:2283   */\n      dup3\n        /* \"#utility.yul\":2278:2287   */\n      add\n        /* \"#utility.yul\":2271:2287   */\n      swap1\n      pop\n        /* \"#utility.yul\":2306:2309   */\n      dup1\n        /* \"#utility.yul\":2303:2304   */\n      dup3\n        /* \"#utility.yul\":2300:2310   */\n      gt\n        /* \"#utility.yul\":2297:2333   */\n      iszero\n      tag_70\n      jumpi\n        /* \"#utility.yul\":2313:2331   */\n      tag_71\n      tag_40\n      jump\t// in\n    tag_71:\n        /* \"#utility.yul\":2297:2333   */\n    tag_70:\n        /* \"#utility.yul\":2149:2340   */\n      swap3\n      swap2\n      pop\n      pop\n      jump\t// out\n\n    auxdata: 0xa26469706673582212203caa88b7554655ab516a608cfd2b8b5b15b267702dbbdcc5f17381899fea6fd264736f6c63430008110033\n}\n",
				"bytecode": {
					"linkReferences": {},
					"object": "608060405234801561001057600080fd5b50336000806101000a81548173ffffffffffffffffffffffffffffffffffffffff021916908373ffffffffffffffffffffffffffffffffffffffff1602179055506102f9806100606000396000f3fe608060405234801561001057600080fd5b506004361061004c5760003560e01c806338cc4831146100515780634e7531af1461006f5780636057361d1461008d578063c4e41b22146100a9575b600080fd5b6100596100c7565b60405161006691906101b3565b60405180910390f35b61007761014e565b60405161008491906101e7565b60405180910390f35b6100a760048036038101906100a29190610233565b610165565b005b6100b1610168565b6040516100be91906101e7565b60405180910390f35b60008060009054906101000a900473ffffffffffffffffffffffffffffffffffffffff1673ffffffffffffffffffffffffffffffffffffffff163373ffffffffffffffffffffffffffffffffffffffff16036101275761dead905061014b565b60008054906101000a900473ffffffffffffffffffffffffffffffffffffffff1690505b90565b60006103e8612710610160919061028f565b905090565b50565b6000612710905090565b600073ffffffffffffffffffffffffffffffffffffffff82169050919050565b600061019d82610172565b9050919050565b6101ad81610192565b82525050565b60006020820190506101c860008301846101a4565b92915050565b6000819050919050565b6101e1816101ce565b82525050565b60006020820190506101fc60008301846101d8565b92915050565b600080fd5b610210816101ce565b811461021b57600080fd5b50565b60008135905061022d81610207565b92915050565b60006020828403121561024957610248610202565b5b60006102578482850161021e565b91505092915050565b7f4e487b7100000000000000000000000000000000000000000000000000000000600052601160045260246000fd5b600061029a826101ce565b91506102a5836101ce565b92508282019050808211156102bd576102bc610260565b5b9291505056fea26469706673582212203caa88b7554655ab516a608cfd2b8b5b15b267702dbbdcc5f17381899fea6fd264736f6c63430008110033",
					"opcodes": "PUSH1 0x80 PUSH1 0x40 MSTORE CALLVALUE DUP1 ISZERO PUSH2 0x10 JUMPI PUSH1 0x0 DUP1 REVERT JUMPDEST POP CALLER PUSH1 0x0 DUP1 PUSH2 0x100 EXP DUP2 SLOAD DUP2 PUSH20 0xFFFFFFFFFFFFFFFFFFFFFFFFFFFFFFFFFFFFFFFF MUL NOT AND SWAP1 DUP4 PUSH20 0xFFFFFFFFFFFFFFFFFFFFFFFFFFFFFFFFFFFFFFFF AND MUL OR SWAP1 SSTORE POP PUSH2 0x2F9 DUP1 PUSH2 0x60 PUSH1 0x0 CODECOPY PUSH1 0x0 RETURN INVALID PUSH1 0x80 PUSH1 0x40 MSTORE CALLVALUE DUP1 ISZERO PUSH2 0x10 JUMPI PUSH1 0x0 DUP1 REVERT JUMPDEST POP PUSH1 0x4 CALLDATASIZE LT PUSH2 0x4C JUMPI PUSH1 0x0 CALLDATALOAD PUSH1 0xE0 SHR DUP1 PUSH4 0x38CC4831 EQ PUSH2 0x51 JUMPI DUP1 PUSH4 0x4E7531AF EQ PUSH2 0x6F JUMPI DUP1 PUSH4 0x6057361D EQ PUSH2 0x8D JUMPI DUP1 PUSH4 0xC4E41B22 EQ PUSH2 0xA9 JUMPI JUMPDEST PUSH1 0x0 DUP1 REVERT JUMPDEST PUSH2 0x59 PUSH2 0xC7 JUMP JUMPDEST PUSH1 0x40 MLOAD PUSH2 0x66 SWAP2 SWAP1 PUSH2 0x1B3 JUMP JUMPDEST PUSH1 0x40 MLOAD DUP1 SWAP2 SUB SWAP1 RETURN JUMPDEST PUSH2 0x77 PUSH2 0x14E JUMP JUMPDEST PUSH1 0x40 MLOAD PUSH2 0x84 SWAP2 SWAP1 PUSH2 0x1E7 JUMP JUMPDEST PUSH1 0x40 MLOAD DUP1 SWAP2 SUB SWAP1 RETURN JUMPDEST PUSH2 0xA7 PUSH1 0x4 DUP1 CALLDATASIZE SUB DUP2 ADD SWAP1 PUSH2 0xA2 SWAP2 SWAP1 PUSH2 0x233 JUMP JUMPDEST PUSH2 0x165 JUMP JUMPDEST STOP JUMPDEST PUSH2 0xB1 PUSH2 0x168 JUMP JUMPDEST PUSH1 0x40 MLOAD PUSH2 0xBE SWAP2 SWAP1 PUSH2 0x1E7 JUMP JUMPDEST PUSH1 0x40 MLOAD DUP1 SWAP2 SUB SWAP1 RETURN JUMPDEST PUSH1 0x0 DUP1 PUSH1 0x0 SWAP1 SLOAD SWAP1 PUSH2 0x100 EXP SWAP1 DIV PUSH20 0xFFFFFFFFFFFFFFFFFFFFFFFFFFFFFFFFFFFFFFFF AND PUSH20 0xFFFFFFFFFFFFFFFFFFFFFFFFFFFFFFFFFFFFFFFF AND CALLER PUSH20 0xFFFFFFFFFFFFFFFFFFFFFFFFFFFFFFFFFFFFFFFF AND SUB PUSH2 0x127 JUMPI PUSH2 0xDEAD SWAP1 POP PUSH2 0x14B JUMP JUMPDEST PUSH1 0x0 DUP1 SLOAD SWAP1 PUSH2 0x100 EXP SWAP1 DIV PUSH20 0xFFFFFFFFFFFFFFFFFFFFFFFFFFFFFFFFFFFFFFFF AND SWAP1 POP JUMPDEST SWAP1 JUMP JUMPDEST PUSH1 0x0 PUSH2 0x3E8 PUSH2 0x2710 PUSH2 0x160 SWAP2 SWAP1 PUSH2 0x28F JUMP JUMPDEST SWAP1 POP SWAP1 JUMP JUMPDEST POP JUMP JUMPDEST PUSH1 0x0 PUSH2 0x2710 SWAP1 POP SWAP1 JUMP JUMPDEST PUSH1 0x0 PUSH20 0xFFFFFFFFFFFFFFFFFFFFFFFFFFFFFFFFFFFFFFFF DUP3 AND SWAP1 POP SWAP2 SWAP1 POP JUMP JUMPDEST PUSH1 0x0 PUSH2 0x19D DUP3 PUSH2 0x172 JUMP JUMPDEST SWAP1 POP SWAP2 SWAP1 POP JUMP JUMPDEST PUSH2 0x1AD DUP2 PUSH2 0x192 JUMP JUMPDEST DUP3 MSTORE POP POP JUMP JUMPDEST PUSH1 0x0 PUSH1 0x20 DUP3 ADD SWAP1 POP PUSH2 0x1C8 PUSH1 0x0 DUP4 ADD DUP5 PUSH2 0x1A4 JUMP JUMPDEST SWAP3 SWAP2 POP POP JUMP JUMPDEST PUSH1 0x0 DUP2 SWAP1 POP SWAP2 SWAP1 POP JUMP JUMPDEST PUSH2 0x1E1 DUP2 PUSH2 0x1CE JUMP JUMPDEST DUP3 MSTORE POP POP JUMP JUMPDEST PUSH1 0x0 PUSH1 0x20 DUP3 ADD SWAP1 POP PUSH2 0x1FC PUSH1 0x0 DUP4 ADD DUP5 PUSH2 0x1D8 JUMP JUMPDEST SWAP3 SWAP2 POP POP JUMP JUMPDEST PUSH1 0x0 DUP1 REVERT JUMPDEST PUSH2 0x210 DUP2 PUSH2 0x1CE JUMP JUMPDEST DUP2 EQ PUSH2 0x21B JUMPI PUSH1 0x0 DUP1 REVERT JUMPDEST POP JUMP JUMPDEST PUSH1 0x0 DUP2 CALLDATALOAD SWAP1 POP PUSH2 0x22D DUP2 PUSH2 0x207 JUMP JUMPDEST SWAP3 SWAP2 POP POP JUMP JUMPDEST PUSH1 0x0 PUSH1 0x20 DUP3 DUP5 SUB SLT ISZERO PUSH2 0x249 JUMPI PUSH2 0x248 PUSH2 0x202 JUMP JUMPDEST JUMPDEST PUSH1 0x0 PUSH2 0x257 DUP5 DUP3 DUP6 ADD PUSH2 0x21E JUMP JUMPDEST SWAP2 POP POP SWAP3 SWAP2 POP POP JUMP JUMPDEST PUSH32 0x4E487B7100000000000000000000000000000000000000000000000000000000 PUSH1 0x0 MSTORE PUSH1 0x11 PUSH1 0x4 MSTORE PUSH1 0x24 PUSH1 0x0 REVERT JUMPDEST PUSH1 0x0 PUSH2 0x29A DUP3 PUSH2 0x1CE JUMP JUMPDEST SWAP2 POP PUSH2 0x2A5 DUP4 PUSH2 0x1CE JUMP JUMPDEST SWAP3 POP DUP3 DUP3 ADD SWAP1 POP DUP1 DUP3 GT ISZERO PUSH2 0x2BD JUMPI PUSH2 0x2BC PUSH2 0x260 JUMP JUMPDEST JUMPDEST SWAP3 SWAP2 POP POP JUMP INVALID LOG2 PUSH5 0x6970667358 0x22 SLT KECCAK256 EXTCODECOPY 0xAA DUP9 0xB7 SSTORE CHAINID SSTORE 0xAB MLOAD PUSH11 0x608CFD2B8B5B15B267702D 0xBB 0xDC 0xC5 CALL PUSH20 0x81899FEA6FD264736F6C63430008110033000000 "
				},
				"gasEstimates": {
					"creation": {
						"codeDepositCost": "152200",
						"executionCost": "24462",
						"totalCost": "176662"
					},
					"external": {
						"getAddress()": "4668",
						"getTotalSupply()": "381",
						"incrementTotalSupplyByThousand()": "infinite",
						"store(uint256)": "428"
					}
				},
				"methodIdentifiers": {
					"getAddress()": "38cc4831",
					"getTotalSupply()": "c4e41b22",
					"incrementTotalSupplyByThousand()": "4e7531af",
					"store(uint256)": "6057361d"
				}
			},
			"storageLayout": {
				"storage": [
					{
						"astId": 6,
						"contract": "Users/eggs/Desktop/SolidityBootcamp/04 - Solidity /VolcanoCoin.sol:VolcanoCoin",
						"label": "owner",
						"offset": 0,
						"slot": "0",
						"type": "t_address"
					}
				],
				"types": {
					"t_address": {
						"encoding": "inplace",
						"label": "address",
						"numberOfBytes": "20"
					}
				}
			},
			"userdoc": {
				"kind": "user",
				"methods": {},
				"version": 1
			}
		}
	}
}