{
	"Users/eggs/Desktop/SolidityBootcamp/04 - Solidity /VolcanoCoin.sol": {
		"VolcanoCoin": {
			"abi": [
				{
					"inputs": [],
					"stateMutability": "nonpayable",
					"type": "constructor"
				},
				{
					"inputs": [],
					"name": "getAddress",
					"outputs": [
						{
							"internalType": "address",
							"name": "",
							"type": "address"
						}
					],
					"stateMutability": "view",
					"type": "function"
				},
				{
					"inputs": [],
					"name": "getTotalSupply",
					"outputs": [
						{
							"internalType": "uint256",
							"name": "",
							"type": "uint256"
						}
					],
					"stateMutability": "view",
					"type": "function"
				},
				{
					"inputs": [
						{
							"internalType": "uint256",
							"name": "mom",
							"type": "uint256"
						}
					],
					"name": "incrementTotalSupplyBy",
					"outputs": [
						{
							"internalType": "uint256",
							"name": "_totalSupply",
							"type": "uint256"
						}
					],
					"stateMutability": "nonpayable",
					"type": "function"
				},
				{
					"inputs": [
						{
							"internalType": "uint256",
							"name": "amnt",
							"type": "uint256"
						}
					],
					"name": "incrementTotalSupplyByThousand",
					"outputs": [
						{
							"internalType": "uint256",
							"name": "_totalSupply",
							"type": "uint256"
						}
					],
					"stateMutability": "nonpayable",
					"type": "function"
				},
				{
					"inputs": [
						{
							"internalType": "uint256",
							"name": "num",
							"type": "uint256"
						}
					],
					"name": "store",
					"outputs": [],
					"stateMutability": "nonpayable",
					"type": "function"
				}
			],
			"devdoc": {
				"kind": "dev",
				"methods": {},
				"version": 1
			},
			"evm": {
				"assembly": "    /* \"Users/eggs/Desktop/SolidityBootcamp/04 - Solidity /VolcanoCoin.sol\":66:1353  contract VolcanoCoin {... */\n  mstore(0x40, 0x80)\n    /* \"Users/eggs/Desktop/SolidityBootcamp/04 - Solidity /VolcanoCoin.sol\":113:118  10000 */\n  0x2710\n    /* \"Users/eggs/Desktop/SolidityBootcamp/04 - Solidity /VolcanoCoin.sol\":94:118  uint totalSupply = 10000 */\n  0x00\n  sstore\n    /* \"Users/eggs/Desktop/SolidityBootcamp/04 - Solidity /VolcanoCoin.sol\":420:469  constructor() {... */\n  callvalue\n  dup1\n  iszero\n  tag_1\n  jumpi\n  0x00\n  dup1\n  revert\ntag_1:\n  pop\n    /* \"Users/eggs/Desktop/SolidityBootcamp/04 - Solidity /VolcanoCoin.sol\":452:462  msg.sender */\n  caller\n    /* \"Users/eggs/Desktop/SolidityBootcamp/04 - Solidity /VolcanoCoin.sol\":444:449  owner */\n  0x01\n  0x00\n    /* \"Users/eggs/Desktop/SolidityBootcamp/04 - Solidity /VolcanoCoin.sol\":444:462  owner = msg.sender */\n  0x0100\n  exp\n  dup2\n  sload\n  dup2\n  0xffffffffffffffffffffffffffffffffffffffff\n  mul\n  not\n  and\n  swap1\n  dup4\n  0xffffffffffffffffffffffffffffffffffffffff\n  and\n  mul\n  or\n  swap1\n  sstore\n  pop\n    /* \"Users/eggs/Desktop/SolidityBootcamp/04 - Solidity /VolcanoCoin.sol\":66:1353  contract VolcanoCoin {... */\n  dataSize(sub_0)\n  dup1\n  dataOffset(sub_0)\n  0x00\n  codecopy\n  0x00\n  return\nstop\n\nsub_0: assembly {\n        /* \"Users/eggs/Desktop/SolidityBootcamp/04 - Solidity /VolcanoCoin.sol\":66:1353  contract VolcanoCoin {... */\n      mstore(0x40, 0x80)\n      callvalue\n      dup1\n      iszero\n      tag_1\n      jumpi\n      0x00\n      dup1\n      revert\n    tag_1:\n      pop\n      jumpi(tag_2, lt(calldatasize, 0x04))\n      shr(0xe0, calldataload(0x00))\n      dup1\n      0x31911cb4\n      eq\n      tag_3\n      jumpi\n      dup1\n      0x38cc4831\n      eq\n      tag_4\n      jumpi\n      dup1\n      0x6057361d\n      eq\n      tag_5\n      jumpi\n      dup1\n      0xc4e41b22\n      eq\n      tag_6\n      jumpi\n      dup1\n      0xeb912a41\n      eq\n      tag_7\n      jumpi\n    tag_2:\n      0x00\n      dup1\n      revert\n        /* \"Users/eggs/Desktop/SolidityBootcamp/04 - Solidity /VolcanoCoin.sol\":898:1109  function incrementTotalSupplyByThousand(uint amnt) public onlyOwner returns (uint _totalSupply) {... */\n    tag_3:\n      tag_8\n      0x04\n      dup1\n      calldatasize\n      sub\n      dup2\n      add\n      swap1\n      tag_9\n      swap2\n      swap1\n      tag_10\n      jump\t// in\n    tag_9:\n      tag_11\n      jump\t// in\n    tag_8:\n      mload(0x40)\n      tag_12\n      swap2\n      swap1\n      tag_13\n      jump\t// in\n    tag_12:\n      mload(0x40)\n      dup1\n      swap2\n      sub\n      swap1\n      return\n        /* \"Users/eggs/Desktop/SolidityBootcamp/04 - Solidity /VolcanoCoin.sol\":1123:1300  function getAddress() public view returns (address) {... */\n    tag_4:\n      tag_14\n      tag_15\n      jump\t// in\n    tag_14:\n      mload(0x40)\n      tag_16\n      swap2\n      swap1\n      tag_17\n      jump\t// in\n    tag_16:\n      mload(0x40)\n      dup1\n      swap2\n      sub\n      swap1\n      return\n        /* \"Users/eggs/Desktop/SolidityBootcamp/04 - Solidity /VolcanoCoin.sol\":1306:1349  function store(uint256 num) public {... */\n    tag_5:\n      tag_18\n      0x04\n      dup1\n      calldatasize\n      sub\n      dup2\n      add\n      swap1\n      tag_19\n      swap2\n      swap1\n      tag_10\n      jump\t// in\n    tag_19:\n      tag_20\n      jump\t// in\n    tag_18:\n      stop\n        /* \"Users/eggs/Desktop/SolidityBootcamp/04 - Solidity /VolcanoCoin.sol\":477:564  function getTotalSupply() public view returns (uint){... */\n    tag_6:\n      tag_21\n      tag_22\n      jump\t// in\n    tag_21:\n      mload(0x40)\n      tag_23\n      swap2\n      swap1\n      tag_13\n      jump\t// in\n    tag_23:\n      mload(0x40)\n      dup1\n      swap2\n      sub\n      swap1\n      return\n        /* \"Users/eggs/Desktop/SolidityBootcamp/04 - Solidity /VolcanoCoin.sol\":690:892  function incrementTotalSupplyBy(uint mom) public onlyOwner returns (uint _totalSupply) {... */\n    tag_7:\n      tag_24\n      0x04\n      dup1\n      calldatasize\n      sub\n      dup2\n      add\n      swap1\n      tag_25\n      swap2\n      swap1\n      tag_10\n      jump\t// in\n    tag_25:\n      tag_26\n      jump\t// in\n    tag_24:\n      mload(0x40)\n      tag_27\n      swap2\n      swap1\n      tag_13\n      jump\t// in\n    tag_27:\n      mload(0x40)\n      dup1\n      swap2\n      sub\n      swap1\n      return\n        /* \"Users/eggs/Desktop/SolidityBootcamp/04 - Solidity /VolcanoCoin.sol\":898:1109  function incrementTotalSupplyByThousand(uint amnt) public onlyOwner returns (uint _totalSupply) {... */\n    tag_11:\n        /* \"Users/eggs/Desktop/SolidityBootcamp/04 - Solidity /VolcanoCoin.sol\":975:992  uint _totalSupply */\n      0x00\n        /* \"Users/eggs/Desktop/SolidityBootcamp/04 - Solidity /VolcanoCoin.sol\":374:379  owner */\n      0x01\n      0x00\n      swap1\n      sload\n      swap1\n      0x0100\n      exp\n      swap1\n      div\n      0xffffffffffffffffffffffffffffffffffffffff\n      and\n        /* \"Users/eggs/Desktop/SolidityBootcamp/04 - Solidity /VolcanoCoin.sol\":360:379  msg.sender == owner */\n      0xffffffffffffffffffffffffffffffffffffffff\n      and\n        /* \"Users/eggs/Desktop/SolidityBootcamp/04 - Solidity /VolcanoCoin.sol\":360:370  msg.sender */\n      caller\n        /* \"Users/eggs/Desktop/SolidityBootcamp/04 - Solidity /VolcanoCoin.sol\":360:379  msg.sender == owner */\n      0xffffffffffffffffffffffffffffffffffffffff\n      and\n      sub\n        /* \"Users/eggs/Desktop/SolidityBootcamp/04 - Solidity /VolcanoCoin.sol\":356:407  if (msg.sender == owner) {... */\n      tag_29\n      jumpi\n        /* \"Users/eggs/Desktop/SolidityBootcamp/04 - Solidity /VolcanoCoin.sol\":1004:1022  uint currentSupply */\n      0x00\n        /* \"Users/eggs/Desktop/SolidityBootcamp/04 - Solidity /VolcanoCoin.sol\":1025:1036  totalSupply */\n      dup1\n      sload\n        /* \"Users/eggs/Desktop/SolidityBootcamp/04 - Solidity /VolcanoCoin.sol\":1004:1036  uint currentSupply = totalSupply */\n      swap1\n      pop\n        /* \"Users/eggs/Desktop/SolidityBootcamp/04 - Solidity /VolcanoCoin.sol\":1061:1065  1000 */\n      0x03e8\n        /* \"Users/eggs/Desktop/SolidityBootcamp/04 - Solidity /VolcanoCoin.sol\":1046:1057  totalSupply */\n      0x00\n      dup1\n        /* \"Users/eggs/Desktop/SolidityBootcamp/04 - Solidity /VolcanoCoin.sol\":1046:1065  totalSupply += 1000 */\n      dup3\n      dup3\n      sload\n      tag_31\n      swap2\n      swap1\n      tag_32\n      jump\t// in\n    tag_31:\n      swap3\n      pop\n      pop\n      dup2\n      swap1\n      sstore\n      pop\n        /* \"Users/eggs/Desktop/SolidityBootcamp/04 - Solidity /VolcanoCoin.sol\":1098:1102  1000 */\n      0x03e8\n        /* \"Users/eggs/Desktop/SolidityBootcamp/04 - Solidity /VolcanoCoin.sol\":1082:1095  currentSupply */\n      dup2\n        /* \"Users/eggs/Desktop/SolidityBootcamp/04 - Solidity /VolcanoCoin.sol\":1082:1102  currentSupply + 1000 */\n      tag_33\n      swap2\n      swap1\n      tag_32\n      jump\t// in\n    tag_33:\n        /* \"Users/eggs/Desktop/SolidityBootcamp/04 - Solidity /VolcanoCoin.sol\":1075:1102  return currentSupply + 1000 */\n      swap2\n      pop\n      pop\n        /* \"Users/eggs/Desktop/SolidityBootcamp/04 - Solidity /VolcanoCoin.sol\":356:407  if (msg.sender == owner) {... */\n    tag_29:\n        /* \"Users/eggs/Desktop/SolidityBootcamp/04 - Solidity /VolcanoCoin.sol\":898:1109  function incrementTotalSupplyByThousand(uint amnt) public onlyOwner returns (uint _totalSupply) {... */\n      swap2\n      swap1\n      pop\n      jump\t// out\n        /* \"Users/eggs/Desktop/SolidityBootcamp/04 - Solidity /VolcanoCoin.sol\":1123:1300  function getAddress() public view returns (address) {... */\n    tag_15:\n        /* \"Users/eggs/Desktop/SolidityBootcamp/04 - Solidity /VolcanoCoin.sol\":1166:1173  address */\n      0x00\n        /* \"Users/eggs/Desktop/SolidityBootcamp/04 - Solidity /VolcanoCoin.sol\":1203:1208  owner */\n      0x01\n      0x00\n      swap1\n      sload\n      swap1\n      0x0100\n      exp\n      swap1\n      div\n      0xffffffffffffffffffffffffffffffffffffffff\n      and\n        /* \"Users/eggs/Desktop/SolidityBootcamp/04 - Solidity /VolcanoCoin.sol\":1189:1208  msg.sender == owner */\n      0xffffffffffffffffffffffffffffffffffffffff\n      and\n        /* \"Users/eggs/Desktop/SolidityBootcamp/04 - Solidity /VolcanoCoin.sol\":1189:1199  msg.sender */\n      caller\n        /* \"Users/eggs/Desktop/SolidityBootcamp/04 - Solidity /VolcanoCoin.sol\":1189:1208  msg.sender == owner */\n      0xffffffffffffffffffffffffffffffffffffffff\n      and\n      sub\n        /* \"Users/eggs/Desktop/SolidityBootcamp/04 - Solidity /VolcanoCoin.sol\":1185:1294  if (msg.sender == owner) {... */\n      tag_35\n      jumpi\n        /* \"Users/eggs/Desktop/SolidityBootcamp/04 - Solidity /VolcanoCoin.sol\":278:320  0x000000000000000000000000000000000000dEaD */\n      0xdead\n        /* \"Users/eggs/Desktop/SolidityBootcamp/04 - Solidity /VolcanoCoin.sol\":1224:1240  return BURN_ADDR */\n      swap1\n      pop\n      jump(tag_34)\n        /* \"Users/eggs/Desktop/SolidityBootcamp/04 - Solidity /VolcanoCoin.sol\":1185:1294  if (msg.sender == owner) {... */\n    tag_35:\n        /* \"Users/eggs/Desktop/SolidityBootcamp/04 - Solidity /VolcanoCoin.sol\":1278:1283  owner */\n      0x01\n      0x00\n      swap1\n      sload\n      swap1\n      0x0100\n      exp\n      swap1\n      div\n      0xffffffffffffffffffffffffffffffffffffffff\n      and\n        /* \"Users/eggs/Desktop/SolidityBootcamp/04 - Solidity /VolcanoCoin.sol\":1271:1283  return owner */\n      swap1\n      pop\n        /* \"Users/eggs/Desktop/SolidityBootcamp/04 - Solidity /VolcanoCoin.sol\":1123:1300  function getAddress() public view returns (address) {... */\n    tag_34:\n      swap1\n      jump\t// out\n        /* \"Users/eggs/Desktop/SolidityBootcamp/04 - Solidity /VolcanoCoin.sol\":1306:1349  function store(uint256 num) public {... */\n    tag_20:\n      pop\n      jump\t// out\n        /* \"Users/eggs/Desktop/SolidityBootcamp/04 - Solidity /VolcanoCoin.sol\":477:564  function getTotalSupply() public view returns (uint){... */\n    tag_22:\n        /* \"Users/eggs/Desktop/SolidityBootcamp/04 - Solidity /VolcanoCoin.sol\":524:528  uint */\n      0x00\n        /* \"Users/eggs/Desktop/SolidityBootcamp/04 - Solidity /VolcanoCoin.sol\":546:557  totalSupply */\n      dup1\n      sload\n        /* \"Users/eggs/Desktop/SolidityBootcamp/04 - Solidity /VolcanoCoin.sol\":539:557  return totalSupply */\n      swap1\n      pop\n        /* \"Users/eggs/Desktop/SolidityBootcamp/04 - Solidity /VolcanoCoin.sol\":477:564  function getTotalSupply() public view returns (uint){... */\n      swap1\n      jump\t// out\n        /* \"Users/eggs/Desktop/SolidityBootcamp/04 - Solidity /VolcanoCoin.sol\":690:892  function incrementTotalSupplyBy(uint mom) public onlyOwner returns (uint _totalSupply) {... */\n    tag_26:\n        /* \"Users/eggs/Desktop/SolidityBootcamp/04 - Solidity /VolcanoCoin.sol\":758:775  uint _totalSupply */\n      0x00\n        /* \"Users/eggs/Desktop/SolidityBootcamp/04 - Solidity /VolcanoCoin.sol\":374:379  owner */\n      0x01\n      0x00\n      swap1\n      sload\n      swap1\n      0x0100\n      exp\n      swap1\n      div\n      0xffffffffffffffffffffffffffffffffffffffff\n      and\n        /* \"Users/eggs/Desktop/SolidityBootcamp/04 - Solidity /VolcanoCoin.sol\":360:379  msg.sender == owner */\n      0xffffffffffffffffffffffffffffffffffffffff\n      and\n        /* \"Users/eggs/Desktop/SolidityBootcamp/04 - Solidity /VolcanoCoin.sol\":360:370  msg.sender */\n      caller\n        /* \"Users/eggs/Desktop/SolidityBootcamp/04 - Solidity /VolcanoCoin.sol\":360:379  msg.sender == owner */\n      0xffffffffffffffffffffffffffffffffffffffff\n      and\n      sub\n        /* \"Users/eggs/Desktop/SolidityBootcamp/04 - Solidity /VolcanoCoin.sol\":356:407  if (msg.sender == owner) {... */\n      tag_40\n      jumpi\n        /* \"Users/eggs/Desktop/SolidityBootcamp/04 - Solidity /VolcanoCoin.sol\":787:805  uint currentSupply */\n      0x00\n        /* \"Users/eggs/Desktop/SolidityBootcamp/04 - Solidity /VolcanoCoin.sol\":808:819  totalSupply */\n      dup1\n      sload\n        /* \"Users/eggs/Desktop/SolidityBootcamp/04 - Solidity /VolcanoCoin.sol\":787:819  uint currentSupply = totalSupply */\n      swap1\n      pop\n        /* \"Users/eggs/Desktop/SolidityBootcamp/04 - Solidity /VolcanoCoin.sol\":844:848  1000 */\n      0x03e8\n        /* \"Users/eggs/Desktop/SolidityBootcamp/04 - Solidity /VolcanoCoin.sol\":829:840  totalSupply */\n      0x00\n      dup1\n        /* \"Users/eggs/Desktop/SolidityBootcamp/04 - Solidity /VolcanoCoin.sol\":829:848  totalSupply += 1000 */\n      dup3\n      dup3\n      sload\n      tag_42\n      swap2\n      swap1\n      tag_32\n      jump\t// in\n    tag_42:\n      swap3\n      pop\n      pop\n      dup2\n      swap1\n      sstore\n      pop\n        /* \"Users/eggs/Desktop/SolidityBootcamp/04 - Solidity /VolcanoCoin.sol\":881:885  1000 */\n      0x03e8\n        /* \"Users/eggs/Desktop/SolidityBootcamp/04 - Solidity /VolcanoCoin.sol\":865:878  currentSupply */\n      dup2\n        /* \"Users/eggs/Desktop/SolidityBootcamp/04 - Solidity /VolcanoCoin.sol\":865:885  currentSupply + 1000 */\n      tag_43\n      swap2\n      swap1\n      tag_32\n      jump\t// in\n    tag_43:\n        /* \"Users/eggs/Desktop/SolidityBootcamp/04 - Solidity /VolcanoCoin.sol\":858:885  return currentSupply + 1000 */\n      swap2\n      pop\n      pop\n        /* \"Users/eggs/Desktop/SolidityBootcamp/04 - Solidity /VolcanoCoin.sol\":356:407  if (msg.sender == owner) {... */\n    tag_40:\n        /* \"Users/eggs/Desktop/SolidityBootcamp/04 - Solidity /VolcanoCoin.sol\":690:892  function incrementTotalSupplyBy(uint mom) public onlyOwner returns (uint _totalSupply) {... */\n      swap2\n      swap1\n      pop\n      jump\t// out\n        /* \"#utility.yul\":88:205   */\n    tag_45:\n        /* \"#utility.yul\":197:198   */\n      0x00\n        /* \"#utility.yul\":194:195   */\n      dup1\n        /* \"#utility.yul\":187:199   */\n      revert\n        /* \"#utility.yul\":334:411   */\n    tag_47:\n        /* \"#utility.yul\":371:378   */\n      0x00\n        /* \"#utility.yul\":400:405   */\n      dup2\n        /* \"#utility.yul\":389:405   */\n      swap1\n      pop\n        /* \"#utility.yul\":334:411   */\n      swap2\n      swap1\n      pop\n      jump\t// out\n        /* \"#utility.yul\":417:539   */\n    tag_48:\n        /* \"#utility.yul\":490:514   */\n      tag_61\n        /* \"#utility.yul\":508:513   */\n      dup2\n        /* \"#utility.yul\":490:514   */\n      tag_47\n      jump\t// in\n    tag_61:\n        /* \"#utility.yul\":483:488   */\n      dup2\n        /* \"#utility.yul\":480:515   */\n      eq\n        /* \"#utility.yul\":470:533   */\n      tag_62\n      jumpi\n        /* \"#utility.yul\":529:530   */\n      0x00\n        /* \"#utility.yul\":526:527   */\n      dup1\n        /* \"#utility.yul\":519:531   */\n      revert\n        /* \"#utility.yul\":470:533   */\n    tag_62:\n        /* \"#utility.yul\":417:539   */\n      pop\n      jump\t// out\n        /* \"#utility.yul\":545:684   */\n    tag_49:\n        /* \"#utility.yul\":591:596   */\n      0x00\n        /* \"#utility.yul\":629:635   */\n      dup2\n        /* \"#utility.yul\":616:636   */\n      calldataload\n        /* \"#utility.yul\":607:636   */\n      swap1\n      pop\n        /* \"#utility.yul\":645:678   */\n      tag_64\n        /* \"#utility.yul\":672:677   */\n      dup2\n        /* \"#utility.yul\":645:678   */\n      tag_48\n      jump\t// in\n    tag_64:\n        /* \"#utility.yul\":545:684   */\n      swap3\n      swap2\n      pop\n      pop\n      jump\t// out\n        /* \"#utility.yul\":690:1019   */\n    tag_10:\n        /* \"#utility.yul\":749:755   */\n      0x00\n        /* \"#utility.yul\":798:800   */\n      0x20\n        /* \"#utility.yul\":786:795   */\n      dup3\n        /* \"#utility.yul\":777:784   */\n      dup5\n        /* \"#utility.yul\":773:796   */\n      sub\n        /* \"#utility.yul\":769:801   */\n      slt\n        /* \"#utility.yul\":766:885   */\n      iszero\n      tag_66\n      jumpi\n        /* \"#utility.yul\":804:883   */\n      tag_67\n      tag_45\n      jump\t// in\n    tag_67:\n        /* \"#utility.yul\":766:885   */\n    tag_66:\n        /* \"#utility.yul\":924:925   */\n      0x00\n        /* \"#utility.yul\":949:1002   */\n      tag_68\n        /* \"#utility.yul\":994:1001   */\n      dup5\n        /* \"#utility.yul\":985:991   */\n      dup3\n        /* \"#utility.yul\":974:983   */\n      dup6\n        /* \"#utility.yul\":970:992   */\n      add\n        /* \"#utility.yul\":949:1002   */\n      tag_49\n      jump\t// in\n    tag_68:\n        /* \"#utility.yul\":939:1002   */\n      swap2\n      pop\n        /* \"#utility.yul\":895:1012   */\n      pop\n        /* \"#utility.yul\":690:1019   */\n      swap3\n      swap2\n      pop\n      pop\n      jump\t// out\n        /* \"#utility.yul\":1025:1143   */\n    tag_50:\n        /* \"#utility.yul\":1112:1136   */\n      tag_70\n        /* \"#utility.yul\":1130:1135   */\n      dup2\n        /* \"#utility.yul\":1112:1136   */\n      tag_47\n      jump\t// in\n    tag_70:\n        /* \"#utility.yul\":1107:1110   */\n      dup3\n        /* \"#utility.yul\":1100:1137   */\n      mstore\n        /* \"#utility.yul\":1025:1143   */\n      pop\n      pop\n      jump\t// out\n        /* \"#utility.yul\":1149:1371   */\n    tag_13:\n        /* \"#utility.yul\":1242:1246   */\n      0x00\n        /* \"#utility.yul\":1280:1282   */\n      0x20\n        /* \"#utility.yul\":1269:1278   */\n      dup3\n        /* \"#utility.yul\":1265:1283   */\n      add\n        /* \"#utility.yul\":1257:1283   */\n      swap1\n      pop\n        /* \"#utility.yul\":1293:1364   */\n      tag_72\n        /* \"#utility.yul\":1361:1362   */\n      0x00\n        /* \"#utility.yul\":1350:1359   */\n      dup4\n        /* \"#utility.yul\":1346:1363   */\n      add\n        /* \"#utility.yul\":1337:1343   */\n      dup5\n        /* \"#utility.yul\":1293:1364   */\n      tag_50\n      jump\t// in\n    tag_72:\n        /* \"#utility.yul\":1149:1371   */\n      swap3\n      swap2\n      pop\n      pop\n      jump\t// out\n        /* \"#utility.yul\":1377:1503   */\n    tag_51:\n        /* \"#utility.yul\":1414:1421   */\n      0x00\n        /* \"#utility.yul\":1454:1496   */\n      0xffffffffffffffffffffffffffffffffffffffff\n        /* \"#utility.yul\":1447:1452   */\n      dup3\n        /* \"#utility.yul\":1443:1497   */\n      and\n        /* \"#utility.yul\":1432:1497   */\n      swap1\n      pop\n        /* \"#utility.yul\":1377:1503   */\n      swap2\n      swap1\n      pop\n      jump\t// out\n        /* \"#utility.yul\":1509:1605   */\n    tag_52:\n        /* \"#utility.yul\":1546:1553   */\n      0x00\n        /* \"#utility.yul\":1575:1599   */\n      tag_75\n        /* \"#utility.yul\":1593:1598   */\n      dup3\n        /* \"#utility.yul\":1575:1599   */\n      tag_51\n      jump\t// in\n    tag_75:\n        /* \"#utility.yul\":1564:1599   */\n      swap1\n      pop\n        /* \"#utility.yul\":1509:1605   */\n      swap2\n      swap1\n      pop\n      jump\t// out\n        /* \"#utility.yul\":1611:1729   */\n    tag_53:\n        /* \"#utility.yul\":1698:1722   */\n      tag_77\n        /* \"#utility.yul\":1716:1721   */\n      dup2\n        /* \"#utility.yul\":1698:1722   */\n      tag_52\n      jump\t// in\n    tag_77:\n        /* \"#utility.yul\":1693:1696   */\n      dup3\n        /* \"#utility.yul\":1686:1723   */\n      mstore\n        /* \"#utility.yul\":1611:1729   */\n      pop\n      pop\n      jump\t// out\n        /* \"#utility.yul\":1735:1957   */\n    tag_17:\n        /* \"#utility.yul\":1828:1832   */\n      0x00\n        /* \"#utility.yul\":1866:1868   */\n      0x20\n        /* \"#utility.yul\":1855:1864   */\n      dup3\n        /* \"#utility.yul\":1851:1869   */\n      add\n        /* \"#utility.yul\":1843:1869   */\n      swap1\n      pop\n        /* \"#utility.yul\":1879:1950   */\n      tag_79\n        /* \"#utility.yul\":1947:1948   */\n      0x00\n        /* \"#utility.yul\":1936:1945   */\n      dup4\n        /* \"#utility.yul\":1932:1949   */\n      add\n        /* \"#utility.yul\":1923:1929   */\n      dup5\n        /* \"#utility.yul\":1879:1950   */\n      tag_53\n      jump\t// in\n    tag_79:\n        /* \"#utility.yul\":1735:1957   */\n      swap3\n      swap2\n      pop\n      pop\n      jump\t// out\n        /* \"#utility.yul\":1963:2143   */\n    tag_54:\n        /* \"#utility.yul\":2011:2088   */\n      0x4e487b7100000000000000000000000000000000000000000000000000000000\n        /* \"#utility.yul\":2008:2009   */\n      0x00\n        /* \"#utility.yul\":2001:2089   */\n      mstore\n        /* \"#utility.yul\":2108:2112   */\n      0x11\n        /* \"#utility.yul\":2105:2106   */\n      0x04\n        /* \"#utility.yul\":2098:2113   */\n      mstore\n        /* \"#utility.yul\":2132:2136   */\n      0x24\n        /* \"#utility.yul\":2129:2130   */\n      0x00\n        /* \"#utility.yul\":2122:2137   */\n      revert\n        /* \"#utility.yul\":2149:2340   */\n    tag_32:\n        /* \"#utility.yul\":2189:2192   */\n      0x00\n        /* \"#utility.yul\":2208:2228   */\n      tag_82\n        /* \"#utility.yul\":2226:2227   */\n      dup3\n        /* \"#utility.yul\":2208:2228   */\n      tag_47\n      jump\t// in\n    tag_82:\n        /* \"#utility.yul\":2203:2228   */\n      swap2\n      pop\n        /* \"#utility.yul\":2242:2262   */\n      tag_83\n        /* \"#utility.yul\":2260:2261   */\n      dup4\n        /* \"#utility.yul\":2242:2262   */\n      tag_47\n      jump\t// in\n    tag_83:\n        /* \"#utility.yul\":2237:2262   */\n      swap3\n      pop\n        /* \"#utility.yul\":2285:2286   */\n      dup3\n        /* \"#utility.yul\":2282:2283   */\n      dup3\n        /* \"#utility.yul\":2278:2287   */\n      add\n        /* \"#utility.yul\":2271:2287   */\n      swap1\n      pop\n        /* \"#utility.yul\":2306:2309   */\n      dup1\n        /* \"#utility.yul\":2303:2304   */\n      dup3\n        /* \"#utility.yul\":2300:2310   */\n      gt\n        /* \"#utility.yul\":2297:2333   */\n      iszero\n      tag_84\n      jumpi\n        /* \"#utility.yul\":2313:2331   */\n      tag_85\n      tag_54\n      jump\t// in\n    tag_85:\n        /* \"#utility.yul\":2297:2333   */\n    tag_84:\n        /* \"#utility.yul\":2149:2340   */\n      swap3\n      swap2\n      pop\n      pop\n      jump\t// out\n\n    auxdata: 0xa2646970667358221220a05f4eb9d9b5108b1bf17254550878e33fcf685dec9f0cf72d36ec3dc7b00b2564736f6c63430008110033\n}\n",
				"bytecode": {
					"linkReferences": {},
					"object": "608060405261271060005534801561001657600080fd5b5033600160006101000a81548173ffffffffffffffffffffffffffffffffffffffff021916908373ffffffffffffffffffffffffffffffffffffffff16021790555061044d806100676000396000f3fe608060405234801561001057600080fd5b50600436106100575760003560e01c806331911cb41461005c57806338cc48311461008c5780636057361d146100aa578063c4e41b22146100c6578063eb912a41146100e4575b600080fd5b61007660048036038101906100719190610301565b610114565b604051610083919061033d565b60405180910390f35b6100946101a2565b6040516100a19190610399565b60405180910390f35b6100c460048036038101906100bf9190610301565b61022c565b005b6100ce61022f565b6040516100db919061033d565b60405180910390f35b6100fe60048036038101906100f99190610301565b610238565b60405161010b919061033d565b60405180910390f35b6000600160009054906101000a900473ffffffffffffffffffffffffffffffffffffffff1673ffffffffffffffffffffffffffffffffffffffff163373ffffffffffffffffffffffffffffffffffffffff160361019d576000805490506103e860008082825461018491906103e3565b925050819055506103e88161019991906103e3565b9150505b919050565b6000600160009054906101000a900473ffffffffffffffffffffffffffffffffffffffff1673ffffffffffffffffffffffffffffffffffffffff163373ffffffffffffffffffffffffffffffffffffffff16036102035761dead9050610229565b600160009054906101000a900473ffffffffffffffffffffffffffffffffffffffff1690505b90565b50565b60008054905090565b6000600160009054906101000a900473ffffffffffffffffffffffffffffffffffffffff1673ffffffffffffffffffffffffffffffffffffffff163373ffffffffffffffffffffffffffffffffffffffff16036102c1576000805490506103e86000808282546102a891906103e3565b925050819055506103e8816102bd91906103e3565b9150505b919050565b600080fd5b6000819050919050565b6102de816102cb565b81146102e957600080fd5b50565b6000813590506102fb816102d5565b92915050565b600060208284031215610317576103166102c6565b5b6000610325848285016102ec565b91505092915050565b610337816102cb565b82525050565b6000602082019050610352600083018461032e565b92915050565b600073ffffffffffffffffffffffffffffffffffffffff82169050919050565b600061038382610358565b9050919050565b61039381610378565b82525050565b60006020820190506103ae600083018461038a565b92915050565b7f4e487b7100000000000000000000000000000000000000000000000000000000600052601160045260246000fd5b60006103ee826102cb565b91506103f9836102cb565b9250828201905080821115610411576104106103b4565b5b9291505056fea2646970667358221220a05f4eb9d9b5108b1bf17254550878e33fcf685dec9f0cf72d36ec3dc7b00b2564736f6c63430008110033",
					"opcodes": "PUSH1 0x80 PUSH1 0x40 MSTORE PUSH2 0x2710 PUSH1 0x0 SSTORE CALLVALUE DUP1 ISZERO PUSH2 0x16 JUMPI PUSH1 0x0 DUP1 REVERT JUMPDEST POP CALLER PUSH1 0x1 PUSH1 0x0 PUSH2 0x100 EXP DUP2 SLOAD DUP2 PUSH20 0xFFFFFFFFFFFFFFFFFFFFFFFFFFFFFFFFFFFFFFFF MUL NOT AND SWAP1 DUP4 PUSH20 0xFFFFFFFFFFFFFFFFFFFFFFFFFFFFFFFFFFFFFFFF AND MUL OR SWAP1 SSTORE POP PUSH2 0x44D DUP1 PUSH2 0x67 PUSH1 0x0 CODECOPY PUSH1 0x0 RETURN INVALID PUSH1 0x80 PUSH1 0x40 MSTORE CALLVALUE DUP1 ISZERO PUSH2 0x10 JUMPI PUSH1 0x0 DUP1 REVERT JUMPDEST POP PUSH1 0x4 CALLDATASIZE LT PUSH2 0x57 JUMPI PUSH1 0x0 CALLDATALOAD PUSH1 0xE0 SHR DUP1 PUSH4 0x31911CB4 EQ PUSH2 0x5C JUMPI DUP1 PUSH4 0x38CC4831 EQ PUSH2 0x8C JUMPI DUP1 PUSH4 0x6057361D EQ PUSH2 0xAA JUMPI DUP1 PUSH4 0xC4E41B22 EQ PUSH2 0xC6 JUMPI DUP1 PUSH4 0xEB912A41 EQ PUSH2 0xE4 JUMPI JUMPDEST PUSH1 0x0 DUP1 REVERT JUMPDEST PUSH2 0x76 PUSH1 0x4 DUP1 CALLDATASIZE SUB DUP2 ADD SWAP1 PUSH2 0x71 SWAP2 SWAP1 PUSH2 0x301 JUMP JUMPDEST PUSH2 0x114 JUMP JUMPDEST PUSH1 0x40 MLOAD PUSH2 0x83 SWAP2 SWAP1 PUSH2 0x33D JUMP JUMPDEST PUSH1 0x40 MLOAD DUP1 SWAP2 SUB SWAP1 RETURN JUMPDEST PUSH2 0x94 PUSH2 0x1A2 JUMP JUMPDEST PUSH1 0x40 MLOAD PUSH2 0xA1 SWAP2 SWAP1 PUSH2 0x399 JUMP JUMPDEST PUSH1 0x40 MLOAD DUP1 SWAP2 SUB SWAP1 RETURN JUMPDEST PUSH2 0xC4 PUSH1 0x4 DUP1 CALLDATASIZE SUB DUP2 ADD SWAP1 PUSH2 0xBF SWAP2 SWAP1 PUSH2 0x301 JUMP JUMPDEST PUSH2 0x22C JUMP JUMPDEST STOP JUMPDEST PUSH2 0xCE PUSH2 0x22F JUMP JUMPDEST PUSH1 0x40 MLOAD PUSH2 0xDB SWAP2 SWAP1 PUSH2 0x33D JUMP JUMPDEST PUSH1 0x40 MLOAD DUP1 SWAP2 SUB SWAP1 RETURN JUMPDEST PUSH2 0xFE PUSH1 0x4 DUP1 CALLDATASIZE SUB DUP2 ADD SWAP1 PUSH2 0xF9 SWAP2 SWAP1 PUSH2 0x301 JUMP JUMPDEST PUSH2 0x238 JUMP JUMPDEST PUSH1 0x40 MLOAD PUSH2 0x10B SWAP2 SWAP1 PUSH2 0x33D JUMP JUMPDEST PUSH1 0x40 MLOAD DUP1 SWAP2 SUB SWAP1 RETURN JUMPDEST PUSH1 0x0 PUSH1 0x1 PUSH1 0x0 SWAP1 SLOAD SWAP1 PUSH2 0x100 EXP SWAP1 DIV PUSH20 0xFFFFFFFFFFFFFFFFFFFFFFFFFFFFFFFFFFFFFFFF AND PUSH20 0xFFFFFFFFFFFFFFFFFFFFFFFFFFFFFFFFFFFFFFFF AND CALLER PUSH20 0xFFFFFFFFFFFFFFFFFFFFFFFFFFFFFFFFFFFFFFFF AND SUB PUSH2 0x19D JUMPI PUSH1 0x0 DUP1 SLOAD SWAP1 POP PUSH2 0x3E8 PUSH1 0x0 DUP1 DUP3 DUP3 SLOAD PUSH2 0x184 SWAP2 SWAP1 PUSH2 0x3E3 JUMP JUMPDEST SWAP3 POP POP DUP2 SWAP1 SSTORE POP PUSH2 0x3E8 DUP2 PUSH2 0x199 SWAP2 SWAP1 PUSH2 0x3E3 JUMP JUMPDEST SWAP2 POP POP JUMPDEST SWAP2 SWAP1 POP JUMP JUMPDEST PUSH1 0x0 PUSH1 0x1 PUSH1 0x0 SWAP1 SLOAD SWAP1 PUSH2 0x100 EXP SWAP1 DIV PUSH20 0xFFFFFFFFFFFFFFFFFFFFFFFFFFFFFFFFFFFFFFFF AND PUSH20 0xFFFFFFFFFFFFFFFFFFFFFFFFFFFFFFFFFFFFFFFF AND CALLER PUSH20 0xFFFFFFFFFFFFFFFFFFFFFFFFFFFFFFFFFFFFFFFF AND SUB PUSH2 0x203 JUMPI PUSH2 0xDEAD SWAP1 POP PUSH2 0x229 JUMP JUMPDEST PUSH1 0x1 PUSH1 0x0 SWAP1 SLOAD SWAP1 PUSH2 0x100 EXP SWAP1 DIV PUSH20 0xFFFFFFFFFFFFFFFFFFFFFFFFFFFFFFFFFFFFFFFF AND SWAP1 POP JUMPDEST SWAP1 JUMP JUMPDEST POP JUMP JUMPDEST PUSH1 0x0 DUP1 SLOAD SWAP1 POP SWAP1 JUMP JUMPDEST PUSH1 0x0 PUSH1 0x1 PUSH1 0x0 SWAP1 SLOAD SWAP1 PUSH2 0x100 EXP SWAP1 DIV PUSH20 0xFFFFFFFFFFFFFFFFFFFFFFFFFFFFFFFFFFFFFFFF AND PUSH20 0xFFFFFFFFFFFFFFFFFFFFFFFFFFFFFFFFFFFFFFFF AND CALLER PUSH20 0xFFFFFFFFFFFFFFFFFFFFFFFFFFFFFFFFFFFFFFFF AND SUB PUSH2 0x2C1 JUMPI PUSH1 0x0 DUP1 SLOAD SWAP1 POP PUSH2 0x3E8 PUSH1 0x0 DUP1 DUP3 DUP3 SLOAD PUSH2 0x2A8 SWAP2 SWAP1 PUSH2 0x3E3 JUMP JUMPDEST SWAP3 POP POP DUP2 SWAP1 SSTORE POP PUSH2 0x3E8 DUP2 PUSH2 0x2BD SWAP2 SWAP1 PUSH2 0x3E3 JUMP JUMPDEST SWAP2 POP POP JUMPDEST SWAP2 SWAP1 POP JUMP JUMPDEST PUSH1 0x0 DUP1 REVERT JUMPDEST PUSH1 0x0 DUP2 SWAP1 POP SWAP2 SWAP1 POP JUMP JUMPDEST PUSH2 0x2DE DUP2 PUSH2 0x2CB JUMP JUMPDEST DUP2 EQ PUSH2 0x2E9 JUMPI PUSH1 0x0 DUP1 REVERT JUMPDEST POP JUMP JUMPDEST PUSH1 0x0 DUP2 CALLDATALOAD SWAP1 POP PUSH2 0x2FB DUP2 PUSH2 0x2D5 JUMP JUMPDEST SWAP3 SWAP2 POP POP JUMP JUMPDEST PUSH1 0x0 PUSH1 0x20 DUP3 DUP5 SUB SLT ISZERO PUSH2 0x317 JUMPI PUSH2 0x316 PUSH2 0x2C6 JUMP JUMPDEST JUMPDEST PUSH1 0x0 PUSH2 0x325 DUP5 DUP3 DUP6 ADD PUSH2 0x2EC JUMP JUMPDEST SWAP2 POP POP SWAP3 SWAP2 POP POP JUMP JUMPDEST PUSH2 0x337 DUP2 PUSH2 0x2CB JUMP JUMPDEST DUP3 MSTORE POP POP JUMP JUMPDEST PUSH1 0x0 PUSH1 0x20 DUP3 ADD SWAP1 POP PUSH2 0x352 PUSH1 0x0 DUP4 ADD DUP5 PUSH2 0x32E JUMP JUMPDEST SWAP3 SWAP2 POP POP JUMP JUMPDEST PUSH1 0x0 PUSH20 0xFFFFFFFFFFFFFFFFFFFFFFFFFFFFFFFFFFFFFFFF DUP3 AND SWAP1 POP SWAP2 SWAP1 POP JUMP JUMPDEST PUSH1 0x0 PUSH2 0x383 DUP3 PUSH2 0x358 JUMP JUMPDEST SWAP1 POP SWAP2 SWAP1 POP JUMP JUMPDEST PUSH2 0x393 DUP2 PUSH2 0x378 JUMP JUMPDEST DUP3 MSTORE POP POP JUMP JUMPDEST PUSH1 0x0 PUSH1 0x20 DUP3 ADD SWAP1 POP PUSH2 0x3AE PUSH1 0x0 DUP4 ADD DUP5 PUSH2 0x38A JUMP JUMPDEST SWAP3 SWAP2 POP POP JUMP JUMPDEST PUSH32 0x4E487B7100000000000000000000000000000000000000000000000000000000 PUSH1 0x0 MSTORE PUSH1 0x11 PUSH1 0x4 MSTORE PUSH1 0x24 PUSH1 0x0 REVERT JUMPDEST PUSH1 0x0 PUSH2 0x3EE DUP3 PUSH2 0x2CB JUMP JUMPDEST SWAP2 POP PUSH2 0x3F9 DUP4 PUSH2 0x2CB JUMP JUMPDEST SWAP3 POP DUP3 DUP3 ADD SWAP1 POP DUP1 DUP3 GT ISZERO PUSH2 0x411 JUMPI PUSH2 0x410 PUSH2 0x3B4 JUMP JUMPDEST JUMPDEST SWAP3 SWAP2 POP POP JUMP INVALID LOG2 PUSH5 0x6970667358 0x22 SLT KECCAK256 LOG0 0x5F 0x4E 0xB9 0xD9 0xB5 LT DUP12 SHL CALL PUSH19 0x54550878E33FCF685DEC9F0CF72D36EC3DC7B0 SIGNEXTEND 0x25 PUSH5 0x736F6C6343 STOP ADDMOD GT STOP CALLER "
				},
				"gasEstimates": {
					"creation": {
						"codeDepositCost": "220200",
						"executionCost": "46635",
						"totalCost": "266835"
					},
					"external": {
						"getAddress()": "4693",
						"getTotalSupply()": "2481",
						"incrementTotalSupplyBy(uint256)": "infinite",
						"incrementTotalSupplyByThousand(uint256)": "infinite",
						"store(uint256)": "428"
					}
				},
				"methodIdentifiers": {
					"getAddress()": "38cc4831",
					"getTotalSupply()": "c4e41b22",
					"incrementTotalSupplyBy(uint256)": "eb912a41",
					"incrementTotalSupplyByThousand(uint256)": "31911cb4",
					"store(uint256)": "6057361d"
				}
			},
			"storageLayout": {
				"storage": [
					{
						"astId": 4,
						"contract": "Users/eggs/Desktop/SolidityBootcamp/04 - Solidity /VolcanoCoin.sol:VolcanoCoin",
						"label": "totalSupply",
						"offset": 0,
						"slot": "0",
						"type": "t_uint256"
					},
					{
						"astId": 6,
						"contract": "Users/eggs/Desktop/SolidityBootcamp/04 - Solidity /VolcanoCoin.sol:VolcanoCoin",
						"label": "owner",
						"offset": 0,
						"slot": "1",
						"type": "t_address"
					}
				],
				"types": {
					"t_address": {
						"encoding": "inplace",
						"label": "address",
						"numberOfBytes": "20"
					},
					"t_uint256": {
						"encoding": "inplace",
						"label": "uint256",
						"numberOfBytes": "32"
					}
				}
			},
			"userdoc": {
				"kind": "user",
				"methods": {},
				"version": 1
			}
		}
	}
}