{
	"Users/eggs/Desktop/SolidityBootcamp/03 - Solidity Remix/homework3.sol": {
		"BootcampContract": {
			"abi": [
				{
					"inputs": [],
					"stateMutability": "nonpayable",
					"type": "constructor"
				},
				{
					"inputs": [],
					"name": "getAddress",
					"outputs": [],
					"stateMutability": "nonpayable",
					"type": "function"
				},
				{
					"inputs": [],
					"name": "retrieve",
					"outputs": [
						{
							"internalType": "uint256",
							"name": "",
							"type": "uint256"
						}
					],
					"stateMutability": "view",
					"type": "function"
				},
				{
					"inputs": [
						{
							"internalType": "uint256",
							"name": "num",
							"type": "uint256"
						}
					],
					"name": "store",
					"outputs": [],
					"stateMutability": "nonpayable",
					"type": "function"
				}
			],
			"devdoc": {
				"kind": "dev",
				"methods": {},
				"version": 1
			},
			"evm": {
				"assembly": "    /* \"Users/eggs/Desktop/SolidityBootcamp/03 - Solidity Remix/homework3.sol\":60:459  contract BootcampContract {... */\n  mstore(0x40, 0x80)\n    /* \"Users/eggs/Desktop/SolidityBootcamp/03 - Solidity Remix/homework3.sol\":134:183  constructor() {... */\n  callvalue\n  dup1\n  iszero\n  tag_1\n  jumpi\n  0x00\n  dup1\n  revert\ntag_1:\n  pop\n    /* \"Users/eggs/Desktop/SolidityBootcamp/03 - Solidity Remix/homework3.sol\":166:176  msg.sender */\n  caller\n    /* \"Users/eggs/Desktop/SolidityBootcamp/03 - Solidity Remix/homework3.sol\":158:163  owner */\n  0x01\n  0x00\n    /* \"Users/eggs/Desktop/SolidityBootcamp/03 - Solidity Remix/homework3.sol\":158:176  owner = msg.sender */\n  0x0100\n  exp\n  dup2\n  sload\n  dup2\n  0xffffffffffffffffffffffffffffffffffffffff\n  mul\n  not\n  and\n  swap1\n  dup4\n  0xffffffffffffffffffffffffffffffffffffffff\n  and\n  mul\n  or\n  swap1\n  sstore\n  pop\n    /* \"Users/eggs/Desktop/SolidityBootcamp/03 - Solidity Remix/homework3.sol\":60:459  contract BootcampContract {... */\n  dataSize(sub_0)\n  dup1\n  dataOffset(sub_0)\n  0x00\n  codecopy\n  0x00\n  return\nstop\n\nsub_0: assembly {\n        /* \"Users/eggs/Desktop/SolidityBootcamp/03 - Solidity Remix/homework3.sol\":60:459  contract BootcampContract {... */\n      mstore(0x40, 0x80)\n      callvalue\n      dup1\n      iszero\n      tag_1\n      jumpi\n      0x00\n      dup1\n      revert\n    tag_1:\n      pop\n      jumpi(tag_2, lt(calldatasize, 0x04))\n      shr(0xe0, calldataload(0x00))\n      dup1\n      0x2e64cec1\n      eq\n      tag_3\n      jumpi\n      dup1\n      0x38cc4831\n      eq\n      tag_4\n      jumpi\n      dup1\n      0x6057361d\n      eq\n      tag_5\n      jumpi\n    tag_2:\n      0x00\n      dup1\n      revert\n        /* \"Users/eggs/Desktop/SolidityBootcamp/03 - Solidity Remix/homework3.sol\":378:457  function retrieve() public view returns (uint256){... */\n    tag_3:\n      tag_6\n      tag_7\n      jump\t// in\n    tag_6:\n      mload(0x40)\n      tag_8\n      swap2\n      swap1\n      tag_9\n      jump\t// in\n    tag_8:\n      mload(0x40)\n      dup1\n      swap2\n      sub\n      swap1\n      return\n        /* \"Users/eggs/Desktop/SolidityBootcamp/03 - Solidity Remix/homework3.sol\":189:301  function getAddress() public {... */\n    tag_4:\n      tag_10\n      tag_11\n      jump\t// in\n    tag_10:\n      stop\n        /* \"Users/eggs/Desktop/SolidityBootcamp/03 - Solidity Remix/homework3.sol\":307:371  function store(uint256 num) public {... */\n    tag_5:\n      tag_12\n      0x04\n      dup1\n      calldatasize\n      sub\n      dup2\n      add\n      swap1\n      tag_13\n      swap2\n      swap1\n      tag_14\n      jump\t// in\n    tag_13:\n      tag_15\n      jump\t// in\n    tag_12:\n      stop\n        /* \"Users/eggs/Desktop/SolidityBootcamp/03 - Solidity Remix/homework3.sol\":378:457  function retrieve() public view returns (uint256){... */\n    tag_7:\n        /* \"Users/eggs/Desktop/SolidityBootcamp/03 - Solidity Remix/homework3.sol\":419:426  uint256 */\n      0x00\n        /* \"Users/eggs/Desktop/SolidityBootcamp/03 - Solidity Remix/homework3.sol\":444:450  number */\n      dup1\n      sload\n        /* \"Users/eggs/Desktop/SolidityBootcamp/03 - Solidity Remix/homework3.sol\":437:450  return number */\n      swap1\n      pop\n        /* \"Users/eggs/Desktop/SolidityBootcamp/03 - Solidity Remix/homework3.sol\":378:457  function retrieve() public view returns (uint256){... */\n      swap1\n      jump\t// out\n        /* \"Users/eggs/Desktop/SolidityBootcamp/03 - Solidity Remix/homework3.sol\":189:301  function getAddress() public {... */\n    tag_11:\n        /* \"Users/eggs/Desktop/SolidityBootcamp/03 - Solidity Remix/homework3.sol\":246:251  owner */\n      0x01\n      0x00\n      swap1\n      sload\n      swap1\n      0x0100\n      exp\n      swap1\n      pop\n      pop\n        /* \"Users/eggs/Desktop/SolidityBootcamp/03 - Solidity Remix/homework3.sol\":189:301  function getAddress() public {... */\n      jump\t// out\n        /* \"Users/eggs/Desktop/SolidityBootcamp/03 - Solidity Remix/homework3.sol\":307:371  function store(uint256 num) public {... */\n    tag_15:\n        /* \"Users/eggs/Desktop/SolidityBootcamp/03 - Solidity Remix/homework3.sol\":361:364  num */\n      dup1\n        /* \"Users/eggs/Desktop/SolidityBootcamp/03 - Solidity Remix/homework3.sol\":352:358  number */\n      0x00\n        /* \"Users/eggs/Desktop/SolidityBootcamp/03 - Solidity Remix/homework3.sol\":352:364  number = num */\n      dup2\n      swap1\n      sstore\n      pop\n        /* \"Users/eggs/Desktop/SolidityBootcamp/03 - Solidity Remix/homework3.sol\":307:371  function store(uint256 num) public {... */\n      pop\n      jump\t// out\n        /* \"#utility.yul\":7:84   */\n    tag_21:\n        /* \"#utility.yul\":44:51   */\n      0x00\n        /* \"#utility.yul\":73:78   */\n      dup2\n        /* \"#utility.yul\":62:78   */\n      swap1\n      pop\n        /* \"#utility.yul\":7:84   */\n      swap2\n      swap1\n      pop\n      jump\t// out\n        /* \"#utility.yul\":90:208   */\n    tag_22:\n        /* \"#utility.yul\":177:201   */\n      tag_31\n        /* \"#utility.yul\":195:200   */\n      dup2\n        /* \"#utility.yul\":177:201   */\n      tag_21\n      jump\t// in\n    tag_31:\n        /* \"#utility.yul\":172:175   */\n      dup3\n        /* \"#utility.yul\":165:202   */\n      mstore\n        /* \"#utility.yul\":90:208   */\n      pop\n      pop\n      jump\t// out\n        /* \"#utility.yul\":214:436   */\n    tag_9:\n        /* \"#utility.yul\":307:311   */\n      0x00\n        /* \"#utility.yul\":345:347   */\n      0x20\n        /* \"#utility.yul\":334:343   */\n      dup3\n        /* \"#utility.yul\":330:348   */\n      add\n        /* \"#utility.yul\":322:348   */\n      swap1\n      pop\n        /* \"#utility.yul\":358:429   */\n      tag_33\n        /* \"#utility.yul\":426:427   */\n      0x00\n        /* \"#utility.yul\":415:424   */\n      dup4\n        /* \"#utility.yul\":411:428   */\n      add\n        /* \"#utility.yul\":402:408   */\n      dup5\n        /* \"#utility.yul\":358:429   */\n      tag_22\n      jump\t// in\n    tag_33:\n        /* \"#utility.yul\":214:436   */\n      swap3\n      swap2\n      pop\n      pop\n      jump\t// out\n        /* \"#utility.yul\":523:640   */\n    tag_24:\n        /* \"#utility.yul\":632:633   */\n      0x00\n        /* \"#utility.yul\":629:630   */\n      dup1\n        /* \"#utility.yul\":622:634   */\n      revert\n        /* \"#utility.yul\":769:891   */\n    tag_26:\n        /* \"#utility.yul\":842:866   */\n      tag_38\n        /* \"#utility.yul\":860:865   */\n      dup2\n        /* \"#utility.yul\":842:866   */\n      tag_21\n      jump\t// in\n    tag_38:\n        /* \"#utility.yul\":835:840   */\n      dup2\n        /* \"#utility.yul\":832:867   */\n      eq\n        /* \"#utility.yul\":822:885   */\n      tag_39\n      jumpi\n        /* \"#utility.yul\":881:882   */\n      0x00\n        /* \"#utility.yul\":878:879   */\n      dup1\n        /* \"#utility.yul\":871:883   */\n      revert\n        /* \"#utility.yul\":822:885   */\n    tag_39:\n        /* \"#utility.yul\":769:891   */\n      pop\n      jump\t// out\n        /* \"#utility.yul\":897:1036   */\n    tag_27:\n        /* \"#utility.yul\":943:948   */\n      0x00\n        /* \"#utility.yul\":981:987   */\n      dup2\n        /* \"#utility.yul\":968:988   */\n      calldataload\n        /* \"#utility.yul\":959:988   */\n      swap1\n      pop\n        /* \"#utility.yul\":997:1030   */\n      tag_41\n        /* \"#utility.yul\":1024:1029   */\n      dup2\n        /* \"#utility.yul\":997:1030   */\n      tag_26\n      jump\t// in\n    tag_41:\n        /* \"#utility.yul\":897:1036   */\n      swap3\n      swap2\n      pop\n      pop\n      jump\t// out\n        /* \"#utility.yul\":1042:1371   */\n    tag_14:\n        /* \"#utility.yul\":1101:1107   */\n      0x00\n        /* \"#utility.yul\":1150:1152   */\n      0x20\n        /* \"#utility.yul\":1138:1147   */\n      dup3\n        /* \"#utility.yul\":1129:1136   */\n      dup5\n        /* \"#utility.yul\":1125:1148   */\n      sub\n        /* \"#utility.yul\":1121:1153   */\n      slt\n        /* \"#utility.yul\":1118:1237   */\n      iszero\n      tag_43\n      jumpi\n        /* \"#utility.yul\":1156:1235   */\n      tag_44\n      tag_24\n      jump\t// in\n    tag_44:\n        /* \"#utility.yul\":1118:1237   */\n    tag_43:\n        /* \"#utility.yul\":1276:1277   */\n      0x00\n        /* \"#utility.yul\":1301:1354   */\n      tag_45\n        /* \"#utility.yul\":1346:1353   */\n      dup5\n        /* \"#utility.yul\":1337:1343   */\n      dup3\n        /* \"#utility.yul\":1326:1335   */\n      dup6\n        /* \"#utility.yul\":1322:1344   */\n      add\n        /* \"#utility.yul\":1301:1354   */\n      tag_27\n      jump\t// in\n    tag_45:\n        /* \"#utility.yul\":1291:1354   */\n      swap2\n      pop\n        /* \"#utility.yul\":1247:1364   */\n      pop\n        /* \"#utility.yul\":1042:1371   */\n      swap3\n      swap2\n      pop\n      pop\n      jump\t// out\n\n    auxdata: 0xa264697066735822122087e918b11ca8fe97af612376117efc13143cdaede83846b984d9dbb534f0f1c864736f6c63430008110033\n}\n",
				"bytecode": {
					"linkReferences": {},
					"object": "608060405234801561001057600080fd5b5033600160006101000a81548173ffffffffffffffffffffffffffffffffffffffff021916908373ffffffffffffffffffffffffffffffffffffffff160217905550610175806100616000396000f3fe608060405234801561001057600080fd5b50600436106100415760003560e01c80632e64cec11461004657806338cc4831146100645780636057361d1461006e575b600080fd5b61004e61008a565b60405161005b91906100c6565b60405180910390f35b61006c610093565b005b61008860048036038101906100839190610112565b6100a3565b005b60008054905090565b600160009054906101000a905050565b8060008190555050565b6000819050919050565b6100c0816100ad565b82525050565b60006020820190506100db60008301846100b7565b92915050565b600080fd5b6100ef816100ad565b81146100fa57600080fd5b50565b60008135905061010c816100e6565b92915050565b600060208284031215610128576101276100e1565b5b6000610136848285016100fd565b9150509291505056fea264697066735822122087e918b11ca8fe97af612376117efc13143cdaede83846b984d9dbb534f0f1c864736f6c63430008110033",
					"opcodes": "PUSH1 0x80 PUSH1 0x40 MSTORE CALLVALUE DUP1 ISZERO PUSH2 0x10 JUMPI PUSH1 0x0 DUP1 REVERT JUMPDEST POP CALLER PUSH1 0x1 PUSH1 0x0 PUSH2 0x100 EXP DUP2 SLOAD DUP2 PUSH20 0xFFFFFFFFFFFFFFFFFFFFFFFFFFFFFFFFFFFFFFFF MUL NOT AND SWAP1 DUP4 PUSH20 0xFFFFFFFFFFFFFFFFFFFFFFFFFFFFFFFFFFFFFFFF AND MUL OR SWAP1 SSTORE POP PUSH2 0x175 DUP1 PUSH2 0x61 PUSH1 0x0 CODECOPY PUSH1 0x0 RETURN INVALID PUSH1 0x80 PUSH1 0x40 MSTORE CALLVALUE DUP1 ISZERO PUSH2 0x10 JUMPI PUSH1 0x0 DUP1 REVERT JUMPDEST POP PUSH1 0x4 CALLDATASIZE LT PUSH2 0x41 JUMPI PUSH1 0x0 CALLDATALOAD PUSH1 0xE0 SHR DUP1 PUSH4 0x2E64CEC1 EQ PUSH2 0x46 JUMPI DUP1 PUSH4 0x38CC4831 EQ PUSH2 0x64 JUMPI DUP1 PUSH4 0x6057361D EQ PUSH2 0x6E JUMPI JUMPDEST PUSH1 0x0 DUP1 REVERT JUMPDEST PUSH2 0x4E PUSH2 0x8A JUMP JUMPDEST PUSH1 0x40 MLOAD PUSH2 0x5B SWAP2 SWAP1 PUSH2 0xC6 JUMP JUMPDEST PUSH1 0x40 MLOAD DUP1 SWAP2 SUB SWAP1 RETURN JUMPDEST PUSH2 0x6C PUSH2 0x93 JUMP JUMPDEST STOP JUMPDEST PUSH2 0x88 PUSH1 0x4 DUP1 CALLDATASIZE SUB DUP2 ADD SWAP1 PUSH2 0x83 SWAP2 SWAP1 PUSH2 0x112 JUMP JUMPDEST PUSH2 0xA3 JUMP JUMPDEST STOP JUMPDEST PUSH1 0x0 DUP1 SLOAD SWAP1 POP SWAP1 JUMP JUMPDEST PUSH1 0x1 PUSH1 0x0 SWAP1 SLOAD SWAP1 PUSH2 0x100 EXP SWAP1 POP POP JUMP JUMPDEST DUP1 PUSH1 0x0 DUP2 SWAP1 SSTORE POP POP JUMP JUMPDEST PUSH1 0x0 DUP2 SWAP1 POP SWAP2 SWAP1 POP JUMP JUMPDEST PUSH2 0xC0 DUP2 PUSH2 0xAD JUMP JUMPDEST DUP3 MSTORE POP POP JUMP JUMPDEST PUSH1 0x0 PUSH1 0x20 DUP3 ADD SWAP1 POP PUSH2 0xDB PUSH1 0x0 DUP4 ADD DUP5 PUSH2 0xB7 JUMP JUMPDEST SWAP3 SWAP2 POP POP JUMP JUMPDEST PUSH1 0x0 DUP1 REVERT JUMPDEST PUSH2 0xEF DUP2 PUSH2 0xAD JUMP JUMPDEST DUP2 EQ PUSH2 0xFA JUMPI PUSH1 0x0 DUP1 REVERT JUMPDEST POP JUMP JUMPDEST PUSH1 0x0 DUP2 CALLDATALOAD SWAP1 POP PUSH2 0x10C DUP2 PUSH2 0xE6 JUMP JUMPDEST SWAP3 SWAP2 POP POP JUMP JUMPDEST PUSH1 0x0 PUSH1 0x20 DUP3 DUP5 SUB SLT ISZERO PUSH2 0x128 JUMPI PUSH2 0x127 PUSH2 0xE1 JUMP JUMPDEST JUMPDEST PUSH1 0x0 PUSH2 0x136 DUP5 DUP3 DUP6 ADD PUSH2 0xFD JUMP JUMPDEST SWAP2 POP POP SWAP3 SWAP2 POP POP JUMP INVALID LOG2 PUSH5 0x6970667358 0x22 SLT KECCAK256 DUP8 0xE9 XOR 0xB1 SHR 0xA8 INVALID SWAP8 0xAF PUSH2 0x2376 GT PUSH31 0xFC13143CDAEDE83846B984D9DBB534F0F1C864736F6C634300081100330000 "
				},
				"gasEstimates": {
					"creation": {
						"codeDepositCost": "74600",
						"executionCost": "24389",
						"totalCost": "98989"
					},
					"external": {
						"getAddress()": "2276",
						"retrieve()": "2415",
						"store(uint256)": "22542"
					}
				},
				"methodIdentifiers": {
					"getAddress()": "38cc4831",
					"retrieve()": "2e64cec1",
					"store(uint256)": "6057361d"
				}
			},
			"storageLayout": {
				"storage": [
					{
						"astId": 3,
						"contract": "Users/eggs/Desktop/SolidityBootcamp/03 - Solidity Remix/homework3.sol:BootcampContract",
						"label": "number",
						"offset": 0,
						"slot": "0",
						"type": "t_uint256"
					},
					{
						"astId": 5,
						"contract": "Users/eggs/Desktop/SolidityBootcamp/03 - Solidity Remix/homework3.sol:BootcampContract",
						"label": "owner",
						"offset": 0,
						"slot": "1",
						"type": "t_address"
					}
				],
				"types": {
					"t_address": {
						"encoding": "inplace",
						"label": "address",
						"numberOfBytes": "20"
					},
					"t_uint256": {
						"encoding": "inplace",
						"label": "uint256",
						"numberOfBytes": "32"
					}
				}
			},
			"userdoc": {
				"kind": "user",
				"methods": {},
				"version": 1
			}
		}
	}
}